:020000040800F2
:10000000000200200101000891030008E11500082A
:10001000E1150008E1150008E1150008E1150008E8
:10002000E1150008E1150008E1150008E1150008D8
:10003000E1150008E1150008E1150008E1150008C8
:10004000E1150008E1150008E1150008E1150008B8
:10005000E1150008E1150008E1150008E1150008A8
:10006000E1150008E1150008E1150008E115000898
:10007000E1150008E1150008E11500084134000809
:10008000E1150008E1150008E1150008E115000878
:10009000E1150008E1150008E1150008E115000868
:1000A000E1150008E1150008E1150008914200087B
:1000B000E1150008E1150008E1150008E115000848
:1000C0000000000000000000000000000000000030
:1000D0000000000000000000000000000000000020
:1000E0000000000000000000000000000000000010
:1000F0000000000000000000000000000000000000
:1001000072B6244880F30888234880F309880220C7
:1001100080F31488BFF36F8F04F08AFF04F080FE31
:100120001E481F491B4A914202DA08600431FAE76F
:100130001C49194A914202DA08600431FAE71A4967
:100140001A4A1B4B9A4204DA0868106004310432E0
:10015000F8E700201749184A914202DA0860043192
:10016000FAE704F005FF04F05BFF144C144DAC42B9
:1001700003DA216888470434F9E705F069FC114C7B
:10018000114DAC4203DA216888470434F9E70F497E
:100190000847000000020020000400205555555576
:1001A0000000002000020020CC73000800040020A2
:1001B000B0040020B0040020A810002000010008B6
:1001C00000010008000100080001000811500008AB
:1001D000F0B544464D4656465F46F0B46B46CB609C
:1001E000C3689D46F0BCA046A946B246BB46F0BDDA
:1001F00062B6281CA047002004F06AFE04F098FEB6
:10020000014A024B1360FEE704ED00E000000080AD
:10021000002934D00123002210B488422CD30124B9
:100220002407A14204D2814202D209011B01F8E74E
:10023000E400A14204D2814202D249005B00F8E707
:10024000884201D3401A1A434C08A04202D3001B33
:100250005C0822438C08A04202D3001B9C08224366
:10026000CC08A04202D3001BDC082243002803D0A4
:100270001B0901D00909E3E7101C10BC70470028D6
:1002800001D00020C04307B4024802A140180290E8
:1002900003BDC0461D0000000029F0D003B5FFF7E4
:1002A000B9FF0EBC4243891A1847C046000000003F
:1002B0007047C04600000000000000000000000081
:1002C000074B08490022CC2099600A604860191C3D
:1002D00010311A60DA60196159619A617047C0463D
:1002E000B004002058050020C046C046C046C046A5
:1002F0007047C046C046C046C046C046C046C0461D
:10030000034B002204211A6059609A607047C0466E
:1003100070040020C046C046C046C046C046C04625
:1003200000207047C046C046C046C046C046C046D2
:10033000014B00221A60704730050020C046C046BD
:10034000044B012280201A60C205516A536A994207
:10035000FCD070476C100020C046C046C046C04666
:10036000034B01221A6072B672B672B662B670475B
:100370006C100020C046C046C046C046C046C046BD
:10038000024B802219680A431A6070470038014006
:10039000EFF30983203383F3098862B67047C046C0
:1003A00010B572B6094A441E10684B4201386418F1
:1003B0004018074918401C400B68191A8C4203D892
:1003C0000419146062B610BD0020FBE7F40B002096
:1003D000F00B0020C046C046C046C046C046C046DE
:1003E00072B62023C15C07290CD8124A8B00D15861
:1003F0008F46436A9A6801329A60436801681960BF
:10040000026853600122534200212022436281543A
:10041000094B82681B6899689142FBD25A68036055
:1004200042601060586062B67047436A00211960EC
:10043000E8E7C04670600008F80F0020C046C046DC
:1004400030B5051CC30712D5204900230A688A422B
:1004500003D0126801338A42FBD14868884203D036
:100460004068013B8842FBD10120002B2BD1AB0718
:1004700015D5164900230C1CCA691C34A24203D0AE
:1004800012680133A242FBD1086A1C31884203D0B2
:100490004068013B8842FBD10120002B13D1002092
:1004A0006B0710D5094D2969A9420DD009690130A2
:1004B000A942FBD16C69AC4203D064690138AC42FB
:1004C000FBD1431E984130BD0020F3E7F80F002018
:1004D000FEE7C046C046C046C046C046C046C0460D
:1004E00038B572B60F4C2068A16983688A68934258
:1004F00001D262B638BD036801255C602360A0614B
:100500002024055500250D5500E01B689C68A2427B
:10051000FBD95A680B604A6011605960FFF758FEBA
:10052000E7E7C046F80F0020C046C046C046C046B8
:10053000F8B50A4F041C21260425FFF7D1FFFFF769
:10054000CFFFFFF7CDFFFFF7CBFF2368BA69043376
:100550002360905D0542F0D0F8BDC046F80F002042
:10056000F0B556464D4644465F46F0B40723022197
:100570000F2590260327994683B000220124A84620
:10058000F305BC468A4608E01D6A019EBD432E4322
:100590001E6240082CD0890001320442F9D04D4639
:1005A0001540AD00261CAE4047460196AF405E6840
:1005B000251C9540AE435E609E686546B346560076
:1005C000B540ED435E462E409E60DE682E40DE6004
:1005D000022914D01E6835400D431D60072AD3D967
:1005E0005D6A4008BD43019F2F435F620028D2D15E
:1005F00003B03CBC90469946A246AB46F0BD072AE4
:100600000BD81E6ABE43371C019E3E431E621F6804
:1006100056463D4035431D60BBE75E6ABE43371C0E
:10062000019E3E435E62F2E7C046C046C046C046F9
:100630008023DA05536A091A1A1A00208A4208D35D
:10064000044B054A012018701070044904480160E9
:1006500001207047F80B0020280E00209060000851
:10066000480D0020C046C046C046C046C046C046F1
:100670001A4B10B51A68002A06D072B62121545CB4
:1006800004202043505462B65A68002A06D072B63D
:100690002121545C04202043505462B69A68002AF9
:1006A00006D072B62121545C04202043505462B617
:1006B000DA68002A06D072B62121545C0420204357
:1006C000505462B61B69002B06D072B621229C5C86
:1006D00004212143995462B610BDC046D00B0020BE
:1006E00072B6054A054913688B4202D2187001336D
:1006F000136062B67047C04670100020841000205E
:1007000008B50078FFF7ECFF08BDC046C046C046FC
:1007100008B54120FFF7E4FF08BDC046C046C0460B
:1007200008B54220FFF7DCFF08BDC046C046C04602
:1007300008B54320FFF7D4FF08BDC046C046C046F9
:1007400008B50078FFF7CCFF08BDC046C046C046DC
:1007500038B50178041C094D002907D028680134F8
:1007600003689A68904721780029F7D12868022207
:1007700001680C680249A04738BDC0462C0E002015
:10078000A4600008C046C046C046C046C046C04639
:1007900038B50178041C002908D0054D28680134BB
:1007A00003689A68904721780029F7D138BDC04680
:1007B0002C0E0020C046C046C046C046C046C046BB
:1007C000F0B5474680B4041C84B000283BD06F4687
:1007D0006D46201C0A21FFF75FFD0E1C3036F6B275
:1007E0002E70201C0A21FFF713FD0135041EF0D1E5
:1007F000BD4224D9012358426844AC1E154F80469F
:10080000E30715D4386801688A68311C9047386856
:100810002678EC1E0568311CAB68984744450ED01D
:10082000386821780268661E9568A8473678023CC9
:100830003868311C0568AB6898474445F0D104B06E
:1008400004BC9046F0BD034F386801688C683021C5
:10085000A047F4E72C0E0020C046C046C046C04664
:1008600038B5334D01232B603248FFF791FF7420D8
:10087000FFF7A6FF304C201CFFF76AFF022028601C
:100880002E48FFF785FF4420FFF79AFF201CFFF753
:100890005FFF032129602A48FFF77AFF1420FFF742
:1008A0008FFF201CFFF754FF04222A602548FFF722
:1008B0006FFF0C20FFF784FF201CFFF749FF052383
:1008C0002B602148FFF764FF1020FFF779FF201C01
:1008D000FFF73EFF062028601C48FFF759FF08205D
:1008E000FFF76EFF201CFFF733FF07212960184830
:1008F000FFF74EFF0420FFF763FF201CFFF728FFE0
:1009000008222A601348FFF743FF1420FFF758FF1F
:10091000201CFFF71DFF09232B600F48FFF738FF4E
:100920002820FFF74DFF201CFFF712FF38BDC046FF
:100930006C100020A8600008B8600008C0600008C3
:10094000D0600008E0600008F06000080061000866
:10095000106100082061000830610008C046C046F0
:10096000F0B51F4A474680B4884617681D4994462B
:100970007C1A0B1CE40714D5B94214D206780D7802
:100980004B1C0130B5420CD016E01C7802785E1C7E
:10099000451C944210D15C784278731C681C9442C8
:1009A0000AD1BB42F1D3007800280FD16246116012
:1009B000002004BC9046F0BD0B4F0C490C4E0120AA
:1009C00045463870087035600120F2E7064F074948
:1009D000074D012344463B700B702C600120E8E773
:1009E0007010002074100020F80B0020280E00204A
:1009F000480D0020C046C046C046C046C046C0465E
:100A00000022002807D1054A05480123137003700E
:100A1000044B01221960101C7047C046F80B0020DF
:100A2000280E0020480D0020C046C046C046C046E3
:100A300038B51D4D01232B6072B60120FFF700FD74
:100A400062B601246040C0B21849FFF7D9FF002800
:100A500000D038BD0220286072B60220FFF7F0FCFB
:100A600062B66040C0B21249FFF7CAFF0028F0D159
:100A70000321296072B60420FFF7E2FC62B66040F1
:100A8000C0B20C49FFF7BCFF0028E2D104222A6063
:100A900072B60820FFF7D4FC62B64440E0B20649C3
:100AA000FFF7AEFFD5E7C0466C100020406100089C
:100AB000586100087C61000898610008C046C04683
:100AC00038B50B4D4C2428682D210368023C9A68E8
:100AD0009047286801688B682D219847002CF2D137
:100AE00028680449046802222568A84738BDC04622
:100AF0002C0E0020A4600008C046C046C046C04678
:100B00000F3011D072B6EFF30983203B83F30988CD
:100B100080225004064AD861116890698968826809
:100B2000914202D803489861704703499961FBE7F5
:100B3000F80F002000020008FD010008C046C04672
:100B400008B5031C72B60068002803D0016819605C
:100B500062B608BD9A68002AFAD058680421904706
:100B6000F6E7C046C046C046C046C046C046C0467E
:100B700072B6034B99694A6B1043486362B670477B
:100B8000F80F0020C046C046C046C046C046C0461A
:100B900072B6021C00E01A1C1368834203D08B4219
:100BA000F9D10968116062B67047C046C046C046B8
:100BB00082684168131C483B10B50469D961111C57
:100BC0006C39D9600C6144694C61104C0C6201684D
:100BD0000224C068996120215C5400212124195508
:100BE0009860D86399635963094C012022215854B5
:100BF0006069111C20391C3A1C61586103616361F2
:100C0000181C09601260526010BDC046F101000856
:100C1000F80F0020C046C046C046C046C046C04689
:100C200038B50F4C2068A16983688A68934200D860
:100C300038BD036801255C602360A0612024055550
:100C400000250D5500E01B689C68A242FBD35A6842
:100C50000B604A6011605960FFF7BAFAE8E7C046D6
:100C6000F80F0020C046C046C046C046C046C04639
:100C700010B572B6074B9A69D46B91688C4201D05B
:100C8000814200D29060D063FFF7CAFF62B6201C99
:100C900010BDC046F80F0020C046C046C046C04642
:100CA000F0B54E4645465746E0B41E4E1E4AB06962
:100CB000012384681360651C281C9146FFF7D8FF48
:100CC0001A4F8046001B43425841391CFFF798FEDB
:100CD000002804D01CBC90469946A246F0BDB269DB
:100CE000134993688A46E81A43425841FFF788FE41
:100CF0000028EFD102204A4610604046FFF7B8FFB7
:100D0000281A45426841391CFFF77AFE0028E1D1D4
:100D1000B6695146B568641B60426041FFF770FEDA
:100D2000D8E7C046F80F00206C100020B061000822
:100D3000D4610008C046C046C046C046C046C04652
:100D400008B5EFF30583D80501D1FFF769FF62B657
:100D500008BDC046C046C046C046C046C046C046A4
:100D600070B5144E8468B5694162AA6894420CD883
:100D70000025202145543668B2689442FBD9746836
:100D8000066044602060706070BD00212023E9543B
:100D9000341C2468A1688A42FBD962682C606A60AE
:100DA000156065602023B0610126C654291CFFF739
:100DB0000FFAE9E7F80F0020C046C046C046C0461B
:100DC00008B572B6836801338360002B01DD62B61B
:100DD00008BD01680A6802605060081C0021FFF726
:100DE000BFFFF4E7C046C046C046C046C046C04646
:100DF000074B2022996910B588541868046863600D
:100E00001C60986101238354FFF7E2F910BDC046CE
:100E1000F80F0020C046C046C046C046C046C04687
:100E2000054B10B59C6972B60320FFF7E1FF606ABD
:100E30000028F9D062B610BDF80F0020C046C046A9
:100E400010B572B60B4CA3691A1CD86A2C329042AA
:100E500007D001680D24D96220234A60C45462B6C9
:100E600010BD0E20FFF7C4FFA3691A1CD86A2C32EC
:100E7000EFE7C046F80F0020C046C046C046C04657
:100E800010B5031C72B68268013A82600020002A05
:100E900001DB62B610BD074CA0694362596803606C
:100EA0004160086058600520FFF7A2FFA369586AF7
:100EB000EFE7C046F80F0020C046C046C046C04617
:100EC000F8B5084C2123A269D05C420709D4064F2B
:100ED00021260425381CFFF7D3FFA1698B5D1D4235
:100EE000F8D0F8BDF80F002014050020C046C04619
:100EF00010B5041C0348FFF7C3FF2078FFF7F0FB91
:100F000010BDC04608050020C046C046C046C046C9
:100F100010B5044C201CFFF7B3FF201CFFF750FF57
:100F200010BDC04608050020C046C046C046C046A9
:100F300000222023C2548268054B1B6899689142A5
:100F4000FBD25A6803604260106058607047C04628
:100F5000F80F0020C046C046C046C046C046C04646
:100F60000C4B10B59C6972B66162026B011C2C318E
:100F700021606260146004632023C15C0E2905D0E7
:100F80000C20FFF735FF606A62B610BDFFF7D0FF97
:100F9000F6E7C046F80F0020C046C046C046C0462F
:100FA00010B54121041CFFF7DBFF201C4221FFF795
:100FB000D7FF201C4321FFF7D3FF201C4421FFF75C
:100FC000CFFF10BDC046C046C046C046C046C04662
:100FD00008B5436B202219434163835C0A2B0BD075
:100FE0000B2B00D008BD426A11408A42FAD1002181
:100FF0004162FFF79DFFF5E7436A0B42F2D0002103
:101000004162FFF795FFEDE7C046C046C046C046C7
:1010100070B50468061C0D1CA0420ED0E3682B437B
:10102000E360002D02D022691A4203D06068A168F3
:10103000FFF7CEFF2468A642F0D170BDC046C0467F
:1010400038B5114B04689D69C368AB63A04218D0E2
:10105000E96B002B09D01A68934203D09268914241
:1010600000D2111CDB68002BF5D1A960A26B2568AA
:10107000686005608460C260A063201CFFF758FFB1
:1010800038BD00218160FBE7F80F0020C046C04654
:1010900038B5134B9D6972B6C3680468AB63A04250
:1010A0001BD0E96B002B09D01A68934203D09268D9
:1010B000914200D2111CDB68002BF5D1A960A26B14
:1010C000256868600560C2608460A063201CFFF72B
:1010D0002FFFFFF7A5FD62B638BD00218160FAE75A
:1010E000F80F0020C046C046C046C046C046C046B5
:1010F000F8B52F4B051C9C698368002B52D0A16862
:1011000098682026814207D999609F5D062F31D0CB
:10111000072F1CD0002F11D02E1C3668B54203D0EB
:10112000B268A768BA42F8D27368266063601C6030
:10113000746065620620FFF75BFEF8BD5A681968A7
:10114000181C11601E687260FFF7F2FEE4E75F682A
:10115000186838601A6857605F6A381C00688742F0
:1011600002D086688E42F9D24168186059600B60DF
:101170004360D1E75A681F68176018684260586A70
:10118000021C1268904202D097688F42F9D25168CF
:101190001A6059600B6053608368A1689868884240
:1011A000B2D3B9E7A26B8460C260A063C5E7C04652
:1011B000F80F0020C046C046C046C046C046C046E4
:1011C00008B572B6FFF794FF62B608BDC046C046C8
:1011D00038B5064C051C201CFFF7F2FF2878FFF7F6
:1011E0007FFA201CFFF754FF38BDC04620040020C2
:1011F00038B5064C051C201CFFF7E2FF2878FFF7E6
:101200006FFA201CFFF744FF38BDC0466004002081
:10121000F0B557464E464546E0B4041C8A46914612
:1012200028D0102318198046FFF7CAFF211C083167
:101230000027002000250968002908D04B680135E7
:10124000C0189F42F7D209681F1C0029F6D15246E8
:10125000002A01D0C60016604C46002C01D0FF00C9
:1012600027604046FFF714FF281C1CBC9046994697
:10127000A246F0BD004CD4E788100020C046C0460E
:1012800070B5041C083C636826680733D808351C11
:10129000103660600835301CFFF792FF2B1C1A686F
:1012A000AB4201D0A34203D2002A03D0944201D31F
:1012B000131CF4E7616822604D1C1C60E80025687F
:1012C0002218AA4209D05D68681CC1005A189442CD
:1012D0000FD0301CFFF7DCFE70BD50681268091893
:1012E000013161605D682260681CC1005A18944237
:1012F000EFD1606824682D1801355D601C60E8E757
:1013000008B572B62223C25C013AC254016A104B7E
:101310000B400F2B01D062B608BD436902691A6108
:1013200001694B6162B62123C15C0322114001298E
:1013300009D00229F0D1036CC06972B61968016046
:10134000186062B6E8E7C069FFF79AFFE4E7C046B5
:10135000FF00FF00C046C046C046C046C046C0466B
:1013600038B5041C72B62023C05C0F2807D007498B
:10137000A26A8D6909202A60A562FFF739FD656AB6
:1013800062B6201CFFF7BCFF281C38BDF80F0020F8
:1013900010B5124C2068002803D0FFF7E1FF0023AE
:1013A00023606068002803D0FFF7DAFF0020606048
:1013B000A068002803D0FFF7D3FF0021A160E068F8
:1013C000002803D0FFF7CCFF0022E260206900284C
:1013D00003D0FFF7C5FF0023236110BDD00B002011
:1013E00008B5FFF7D5FF08BDC046C046C046C04699
:1013F00008B5FFF7CDFF08BDC046C046C046C04691
:1014000008B5FFF7C5FF08BDC046C046C046C04688
:1014100008B5836801338360002B00DD08BD0168D7
:101420000A680260506000204862081CFFF780FDD7
:10143000F4E7C046C046C046C046C046C046C046A7
:10144000F8B58568041C01358160002D2BDC4068EF
:10145000012341682F1C61600C601F40FFF768FD8D
:101460000226764201354662012D1CD0002F09D09C
:1014700060680135426862601460FFF759FD46629A
:10148000012D10D060680235436863601C60FFF76F
:101490004FFD46626068476867603C60FFF748FD43
:1014A0004662012DEED1F8BDC046C046C046C046DA
:1014B00010B5041C0168636881605A1AC1609110FC
:1014C0001C30FFF7BDFF201C10300021FFF7B8FFD4
:1014D00010BDC046C046C046C046C046C046C04615
:1014E00008B572B60348FFF7E3FFFFF799FB62B652
:1014F00008BDC04638040020C046C046C046C046AD
:1015000008B572B6FFF79CFFFFF78AFB62B608BD0D
:10151000F8B51D4E1D4C01233360201CFFF7B0FCB5
:10152000071C72B61A4DA16848424841291CFFF7B2
:1015300067FA62B6002800D0F8BD784278411549B4
:10154000FFF75EFA0028F7D102203060201CFFF779
:1015500037FC72B6A068291C013843425841FFF796
:101560004FFA62B60028E7D10322201C0221326024
:10157000FFF7C6FF72B6A068291C023843425841E3
:10158000FFF73EFA62B6D7E76C100020080500208E
:10159000F061000804620008C046C046C046C0466C
:1015A00008B502480021FFF7ABFF08BD0805002081
:1015B000EFF31080C30702D4EFF3058372B67047D0
:1015C00008B572B662B672B6FFF7F2FFC30701D470
:1015D000FFF7B6FB62B608BDC046C046C046C0466F
:1015E000FEE7C046C046C046C046C046C046C046EC
:1015F000F8B50F4B01221A600024072501260D4F74
:1016000002E00134002D0DD0281CE0400642F8D045
:10161000A200311CA140201CD3598D4301349847AE
:10162000002DF1D104490548FFF79AF9F8BDC046ED
:101630006C10002054630008206200081C6200083F
:1016400008B5064B1868984206D0026800211A6057
:1016500053604162FFF76CFC08BDC04618040020CF
:1016600008B572B6054B1868984205D0026800218B
:101670001A605360FFF774FB62B608BD18040020BF
:1016800010B5041C72B6084A1068002804D0002166
:1016900041621160FFF74CFCFFF7C2FA62B6207896
:1016A000FFF71EF810BDC04630050020C046C046FA
:1016B00038B572B6124CA0680130A060002815DD64
:1016C0000138A060002804DBFFF7AAFA002062B608
:1016D00038BD0C4A6368956905202C606B601D60FD
:1016E00065606C62FFF784FB686AF0E72068036856
:1016F00023605C60FFF71CFC00214162A068DFE70B
:1017000008050020F80F0020C046C046C046C0466D
:10171000F8B5144D071C281CFFF752FD72B6124B8A
:101720009C69A66B301CFFF78BFC104A6262131C8D
:101730001B68934203D09868A1688842F8D25A681F
:101740002360626014605C600720FFF751FB301C6F
:10175000FFF7CEFC62B63878FEF7C2FF281CFFF711
:1017600097FCF8BD20040020F80F0020180400208A
:1017700008B5FFF7B5FE08BDC046C046C046C04626
:1017800008B5FFF7ADFE08BDC046C046C046C0461E
:1017900008B5FFF7A5FE08BDC046C046C046C04616
:1017A00038B572B6441C051CFF34DC35E061E560D9
:1017B0006B61184B2A6190222B6255004319164D1C
:1017C000A160E163022291211A70421900234D00A9
:1017D0001370A36363634319104D01221A701049FB
:1017E0006B6994222561A16163611C61510094239E
:1017F0006C615A004518962185504D009622431978
:10180000510043505B60201C0021FFF7A9FA62B62B
:10181000201C38BDF101000821010000F80F002054
:1018200034620008C046C046C046C046C046C046F6
:10183000F0B52F4A57464E464546E0B42D482E4E49
:1018400093690221051C016080460327301C9C68B7
:101850009146B246FFF7B4FC284E2F60284F611C1A
:10186000321C381C274BFFF79BFF274DA423286011
:101870005800A11C321C3818244BFFF791FFA421FB
:101880008A006860E11CB818214B321CFFF788FF02
:10189000F623A8609800211D321C38181D4BFFF755
:1018A0007FFFA421CA001C4B611DE860B818321CE0
:1018B000FFF776FF042746462861376050464D46BD
:1018C000FFF7E6FBFFF764FDAB6914499868241A3B
:1018D00060426041FFF794F8002803D11048114995
:1018E000FFF73EF81CBC90469946A246F0BDC046A4
:1018F000F80F00206C10002020040020D1110008F7
:101900005805002068620008D00B00203C620008E7
:101910004062000844620008486200084C62000807
:101920006462000820620008C046C046C046C04647
:10193000F0B528484746816980B48E68264F274D08
:10194000274A012390461360711C2A1C381C254B22
:10195000FFF726FF244CA42253002060B11CF81886
:101960002A1C224BFFF71CFF6060A420810078181E
:101970002A1CF11C1E4BFFF713FFF6229300A060F8
:10198000311DF8182A1C1B4BFFF70AFFE060A4204A
:10199000C10078182A1C711D174BFFF701FF0226A2
:1019A000474620613E6072B6FFF74AFEFFF748FEE9
:1019B000FFF746FEFFF744FEFFF742FEFFF730F960
:1019C00062B6FFF7E5FC0D490D48FEF7C9FF04BC00
:1019D0009046F0BDF80F00205805002011170008B0
:1019E0006C10002068620008D00B00203C620008E8
:1019F0004062000844620008486200082062000853
:101A000064620008C046C046C046C046C046C046E4
:101A1000F0B52B484746816980B48E68294F2A4D1E
:101A20002A4A012390461360711C2A1C381C284B3B
:101A3000FFF7B6FE274CA42253002060B11CF81813
:101A40002A1C254BFFF7ACFE6060A42081007818AB
:101A50002A1CF11C214BFFF7A3FEF6229300A06085
:101A6000311DF8182A1C1E4BFFF79AFEE060A420D7
:101A7000C10078182A1C711D1A4BFFF791FE02262F
:101A8000474620613E6072B6174C022520686E42C0
:101A9000A04208D0026822605460FFF749FA46620B
:101AA0002068A042F6D1FFF7BBF862B6FFF770FCE2
:101AB0000E490F48FEF754FF04BC9046F0BDC046E7
:101AC000F80F002058050020111700086C100020A6
:101AD00068620008D00B00203C62000840620008E9
:101AE00044620008486200081804002020620008D0
:101AF00064620008C046C046C046C046C046C046F4
:101B0000F8B51B4B1B4C98691B4F8668022121605E
:101B1000381C711C194A1A4BFFF742FE194DA423B9
:101B20002860032258002260B11C3818164A174B4F
:101B3000FFF736FEA42293000421154A6860216055
:101B4000F818F11C134BFFF72BFE0526266006271D
:101B5000A860FFF785FD07252760FFF781FD256059
:101B6000FFF716FC0C490D48FEF7FAFEF8BDC0461B
:101B7000F80F00206C100020580500206137000885
:101B800048620008D00B00201117000840620008CE
:101B9000F111000844620008206200081C6200087D
:101BA000224838B58169224C224D8968012323607F
:101BB00001312B1C204A2148FFF7F2FD204A022365
:101BC0001060236072B61F4CA0680130A06000282E
:101BD00022DDA3680133A360002B14DDFFF720F89A
:101BE00062B6FFF7D5FB72B6A068174901384342C9
:101BF0005841FEF705FF62B6002803D1281C13499F
:101C0000FEF7AEFE38BD2068016821604C60FFF72A
:101C10008FF900224262E1E72068016821604C6090
:101C2000FFF786F900224262D3E7C046F80F002092
:101C30006C10002048620008F10E000858050020D2
:101C4000D00B0020080500206C620008206200080C
:101C50001D48F8B581691D4D8968012301312B604C
:101C60001B4A00231B48FFF79BFD02241A4A2C60E5
:101C70001060FFF71DFD194C2668301B184E4342BB
:101C80005841311CFEF7BCFE002800D0F8BDA76803
:101C900078427841134F391CFEF7B2FE0028F5D187
:101CA00003232B60FFF704FD2568311C281B4342EA
:101CB0005841FEF7A5FE0028E8D1A068391C434230
:101CC0005841FEF79DFEE1E7F80F00206C10002060
:101CD000110F000858050020D00B00200805002037
:101CE0007C6200088C620008C046C046C046C04600
:101CF000F0B52D4E4746B06980B42C4D2C4F2D4A7F
:101D0000816801239046136005312A1C381C2A4B38
:101D1000FFF746FDB369A421284C4A00996820606A
:101D20000131B818264B2A1CFFF73AFDB2696060F2
:101D3000A420810078189168224B2A1C0331FFF7F8
:101D40002FFDB169F6238968A06098002A1C381815
:101D500004311D4BFFF724FDA422D300E060F818E6
:101D6000B7692A1CB968194B0231FFF719FD2061C8
:101D7000174C454602262E60201CFFF721F8201C38
:101D8000FFF71EF8201CFFF71BF8201CFFF718F8C0
:101D9000201CFFF715F8FFF7FBFA0E490E48FEF777
:101DA000DFFD04BC9046F0BDF80F0020F10E0008E6
:101DB000580500206C10002048620008D00B00205D
:101DC00044620008406200083C6200086862000843
:101DD000080500202062000864620008C046C04672
:101DE000F8B55F4656464D464446F0B45B4E5C4DF2
:101DF000B0695C4A5C4F81680123136005395B4B15
:101E00009346381C2A1CFFF7CBFC594CA4212060B8
:101E1000B0694A008168D3190439181C2A1C9A46F3
:101E2000544BFFF7BDFCB169606089682A1C033917
:101E3000514B5248FFF7B4FCB269A0609168504B17
:101E400002392A1C4F48FFF7ABFCB369E060996880
:101E50002A1C01394C4B4D48FFF7A2FC2061FFF7CB
:101E600097FA4B484B4981468846FEF779FD002892
:101E700005D03CBC90469946A246AB46F8BDB06939
:101E8000022381685A46136001392A1C3E4B3F48A1
:101E9000FFF786FCB169206189682A1C0239384B3A
:101EA0003848FFF77DFCB369E06099682A1C033964
:101EB000314B3248FFF774FCB269A06091682D4B3A
:101EC00004392A1C5046FFF76BFC6060B0692A1C7D
:101ED0008168264B0539381CFFF762FC2060FFF74C
:101EE00057FA48464146FEF73BFD0028C1D1B2698A
:101EF0005B4603211960916850462A1C04391D4B2A
:101F0000FFF74EFC6060B0692A1C8168174B0539E9
:101F1000381CFFF745FCB7692060B9682A1C0139F5
:101F2000194B1A48FFF73CFCB169206189682A1CEB
:101F30000239134B1348FFF733FCB669E060B16810
:101F40002A1C03390C4B0D48FFF72AFCA060FFF751
:101F50001FFA48464146FEF703FD8AE7F80F0020C6
:101F6000410700086C100020580500206862000836
:101F7000D00B00203C62000840620008E807002007
:101F8000446200083009002048620008780A0020F6
:101F90006462000820620008C046C046C046C046D1
:101FA00072B6034B00229969486B4A6362B6704768
:101FB000F80F0020C046C046C046C046C046C046D6
:101FC00008B5FFF7EDFF08BDC046C046C046C04695
:101FD00008B5FFF7E5FF08BDC046C046C046C0468D
:101FE00008B5FFF7DDFF08BDC046C046C046C04685
:101FF00008B5FFF7D5FF08BDC046C046C046C0467D
:1020000008B5FFF7CDFF08BDC046C046C046C04674
:1020100008B5FFF7C5FF024B02481B60006008BD12
:102020003404002030040020C046C046C046C046EC
:10203000094B10B59C6972B6626B002A06D101206B
:10204000414261620A20FEF7D3FE626B50421040AB
:102050008243626362B610BDF80F0020C046C046DE
:10206000084B10B59C6972B6606B002806D1012040
:10207000414261620A20FEF7BBFE606B0022626390
:1020800062B610BDF80F0020C046C046C046C0462C
:102090000A4B10B59C6972B60522606B111C014099
:1020A000052904D00B206262FEF7A2FE606B0523B7
:1020B0009843606362B6052010BDC046F80F00204B
:1020C000F0B556464D465F464446F0B4824683B06E
:1020D0008946002800D171E0102290464E4607360E
:1020E000D044F10840460191FFF76AF851460723B2
:1020F00008319B460B68002B1AD0181C0F30061CA9
:1021000058685A469643441C321CE4001D1C083A89
:102110001F190835BA4207D2083CA446019F9C1AF1
:102120006444E410A7421ED9191C0B68002BE4D1AB
:1021300040465446FEF7ACFF2568002D45D0019F70
:1021400008210137F800A84700283ED04946051C61
:10215000046041600835281C03B03CBC9046994699
:10216000A246AB46F0BD9A4216D8019E864228D0C0
:10217000019A1F680132D0001C181E1B6644F21021
:10218000276062600C601A1C4B465646536016600E
:102190004046FEF77DFFDEE7551BE9105960A74278
:1021A0000AD2019F019D0137F8001118EF4318680A
:1021B0003C1908604C601960351CE5E7044882460C
:1021C0008AE718681A1C0860DEE70025C3E7C046E6
:1021D00088100020C046C046C046C046C046C04623
:1021E00008B5FFF76DFF08BDC046C046C046C046F3
:1021F000F0B5041C87B00F1C1048211C161C1D1CB8
:10220000FFF75EFF002816D00D4B019000190097D4
:10221000029003960493059572B66846FEF7C8FCD3
:102220000122212142540021041CFEF799FD62B6CF
:10223000201C07B0F0BD0024FAE7C046B00400201F
:1022400001070008C046C046C046C046C046C0465A
:10225000F0B54F464646C0B43F4B404C9869404E9F
:1022600085B0022187682160301C694601AAFEF70B
:10227000CFFF051C0138434258413A49FEF7C0FBE5
:10228000002804D005B00CBC90469946F0BD03224E
:10229000A423226058003449344B7A1EFFF7A8FF6C
:1022A00033490860431E9841324B8846191C9946B1
:1022B000FEF7A6FB0028E5D10420A4212060BA1E69
:1022C00048002D4B2D49FFF793FF42465060494689
:1022D000431E9841FEF794FB0028D3D105232360C9
:1022E000FA1E2749274B2848FFF782FF4746B86068
:1022F000264943425841FEF783FB0028C2D10620FD
:102300002060FFF745F822482249FEF729FB002804
:10231000B8D107212160301C02A903AAFEF778FF7B
:10232000281A454268411C49FEF76AFB0028A9D1DA
:10233000009C029E1949A01B43425841FEF760FBD6
:1023400000289FD1019D039A1549A81A434258417C
:10235000FEF756FB96E7C046F80F00206C100020F1
:10236000B0040020A0620008B062000848620008C3
:10237000D00B0020B862000844620008D062000858
:10238000D862000840620008C8000200E06200084D
:10239000FC6200082062000800630008186300085F
:1023A00034630008C046C046C046C046C046C0466A
:1023B000F0B5124D87B0071C281C0E1C141CFEF72C
:1023C000BFFB002818D06B680D490190C01800971A
:1023D000029003960491059472B66846FEF7E8FBF6
:1023E00021270222C25505640021061CFEF7B8FC15
:1023F00062B6301C07B0F0BD0026FAE7E40B0020FF
:1024000001070008C046C046C046C046C046C04698
:10241000F8B546464F46C0B4944E0123336072B6B9
:10242000934C0021201C01F05BFB62B6914D013002
:1024300043425841291CFEF7E3FA002803D00CBCA4
:1024400090469946F8BD22688B4F101B4342584175
:10245000391CFEF7D5FA0028F1D1A168484248415D
:10246000864B191C9846FEF7CBFA0028E7D1844A20
:102470000220916930608968824A013900238248CC
:10248000FFF78EF9814B186072B68149201C01F06C
:1024900027FB814662B6FEF77BFF4A465042504119
:1024A000291CFEF7ADFA0028C9D12068391C001B91
:1024B00043425841FEF7A4FA0028C0D1A16848421F
:1024C00048414146FEF79CFA0028B8D10323336007
:1024D00002F0BEFF061C4120FEF702F972B6FA2296
:1024E000201C510001F0FCFA62B601304342584111
:1024F000291CFEF785FA0028A1D12068391C001B91
:1025000043425841FEF77CFA002898D1A16848421E
:1025100048414146FEF774FA002800D08FE7422078
:10252000FEF7DEF872B6FA23201C590001F0D8FA43
:1025300062B6013043425841291CFEF761FA002877
:1025400000D07CE72268391C101B43425841FEF73B
:1025500057FA002800D072E7A16848424841414636
:10256000FEF74EFA002800D069E74320FEF7B8F8DE
:1025700072B6FA23201C590001F0B2FA62B601309B
:1025800043425841291CFEF73BFA002800D056E789
:102590002068391C001B43425841FEF731FA0028DD
:1025A00000D04CE7A268414650425041FEF728FA5D
:1025B000002800D043E74420FEF792F872B6FA21D3
:1025C000201C490001F08CFA62B6013043425841A8
:1025D000291CFEF715FA002800D030E72368391CC3
:1025E000181B43425841FEF70BFA002800D026E79B
:1025F000A268414650425041FEF702FA002800D03E
:102600001DE74520FEF76CF872B6FA21201C490040
:1026100001F066FA62B6013043425841291CFEF7C8
:10262000EFF9002800D00AE72568391C281B43422F
:102630005841FEF7E5F9002800D000E7A0684146C0
:1026400043425841FEF7DCF9002800D0F7E6114874
:102650001149FEF785F9002800D0F0E60F4C104F25
:102660003019F119FDF7E4FFE9E6C0466C100020CF
:1026700008050020606300087C6200088C62000886
:10268000F80F00200158000858050020D00B00204A
:10269000881300006462000820620008C40900007A
:1026A000D8090000C046C046C046C046C046C04625
:1026B00030B5264C012587B02560FEF779FF05422D
:1026C00001D1FEF73DFB0223236072B6FEF770FFD7
:1026D000C20701D4FEF734FB62B603202060EFF39B
:1026E0001081CA0700D472B6EFF31082D20700D46B
:1026F00072B662B60425256072B6EFF31083DA076E
:1027000000D562B6EFF31080C20700D562B605218E
:1027100021600024049472B6049A002A02D001A811
:1027200000F0A6FF01A80121094A002300F0D8FF0C
:1027300062B60A2002F084FE72B6049862B60549B9
:1027400043425841FEF75CF907B030BD6C100020E1
:10275000C115000878630008C046C046C046C046A0
:10276000F0B5274C274E02218BB02460316072B641
:10277000206800AB0090244801258769236000226F
:102780006B42019702950392049362B672B6276872
:10279000806905AD059725606860A960EA602B61D6
:1027A00062B672B62168194F081B431E9841391C46
:1027B000FEF726F962B6002801D00BB0F0BD032267
:1027C0003260201C6946FEF7E3F972B62368391CB3
:1027D000181B431E9841FEF713F962B60028ECD18E
:1027E00004203060291C201CFEF7D2F972B626683E
:1027F0000749341B60426041FEF702F962B6DCE72C
:10280000340400206C100020F80F00208C630008B6
:1028100098630008C046C046C046C046C046C04691
:10282000F0B5454657464E46E0B4374D01238AB0D1
:102830002B6072B6354E364FB269386800A90192E6
:10284000029300225B42009039600392049362B6C7
:1028500072B6304805AC016880460460B0690591E5
:10286000042160608A46A160E260236162B60222B0
:102870002A6002F0EDFDB6698146B168264A013949
:10288000264B2748FEF78CFF0321264B2960186052
:10289000FFF7FEFB822248469600F530311CFF30E0
:1028A0004944FDF7C5FE002805D00AB01CBC90467F
:1028B0009946A246F0BDFFF773FB1B4943425841BE
:1028C000FEF79EF80028F0D1FEF762FD5046286022
:1028D0006946381CFEF75CF9211C4046FEF758F9A2
:1028E0003D68124CEF1B78427841211CFEF788F8B6
:1028F0000028DAD143461968C81A43425841211CBE
:10290000FEF77EF8D1E7C0466C100020F80F0020DB
:10291000340400203004002001440008486200080C
:1029200058050020D00B0020A86300089863000819
:10293000F0B5474680B4654F01233B6072B6644CE6
:10294000644DE068E5602860201CFEF761FDFEF73D
:1029500067F962B621696E1872B6E268201C3260AF
:10296000E660FEF755FDFEF75BF962B62369F618DF
:1029700072B6E068E6603060201CFEF749FDFEF7A5
:102980004FF962B62169721872B6E368201C1360B1
:10299000E260FEF73DFDFEF743F962B602263E60B7
:1029A000002001F02DF94C4E431E9841311CFEF7DA
:1029B00027F8002800D086E001F022F9311C431EE0
:1029C0009841FEF71DF8002800D07CE001F018F9CE
:1029D000311C431E9841FEF713F8002873D101F013
:1029E0000FF9311C431E9841FEF70AF800286AD1FE
:1029F0000321396001F004F9384A43425841111C5F
:102A00009046FDF7FDFF00285DD10420386072B6C6
:102A1000E368201C2B60E560FEF7FAFCFEF700F986
:102A200062B672B6E1682A1D6960E260201CFEF79A
:102A3000EFFCFEF7F5F862B672B6E0682B1C0833BF
:102A4000A860E360201CFEF7E3FCFEF7E9F862B63D
:102A500072B6E168201CE9600C35E560FEF7D8FC31
:102A6000FEF7DEF862B6052500203D6001F0C8F8EB
:102A7000311C431E9841FDF7C3FF002823D101F00C
:102A8000BFF8311C431E9841FDF7BAFF00281AD148
:102A900001F0B6F8311C431E9841FDF7B1FF002844
:102AA00011D101F0ADF8311C431E9841FDF7A8FF8C
:102AB000002808D106243C6001F0A2F841464342B8
:102AC0005841FDF79DFF04BC9046F0BD6C100020FE
:102AD00000040020F8040020B4630008C06300086C
:102AE00070B52A4C012323600520FEF741F802202F
:102AF0002060FFF7CDFA0538434258412449FDF7DD
:102B00007FFF002800D070BDFFF74AFA214D4342F5
:102B10005841291CFDF774FF0028F4D1032104203B
:102B20002160FEF725F80422226002F091FC1A4B86
:102B3000061C9B69194A996819480139FEF730FE4D
:102B40001849086005202060FFF7A2FAFA228221C6
:102B500053008A00041CB118F018FDF769FD002825
:102B6000D1D1053C604260410F49FDF749FF002883
:102B7000C9D1FFF715FA291C43425841FDF740FF20
:102B80000028C0D1FEF704FCBDE7C0466C10002051
:102B9000D0630008A8630008F80F0020C15900089E
:102BA00058050020D00B0020E8630008C046C0464E
:102BB00070B5274C012323600520FDF7D9FF0220C3
:102BC0002060FFF74DFA0538434258412149FDF78F
:102BD00017FF002800D070BDFFF7E2F91E4D4342F9
:102BE0005841291CFDF70CFF0028F4D10321216076
:102BF00002F02EFC194A061C936919489968194A73
:102C00000139FEF7CDFD184B186004202060FFF756
:102C100027FAFA2182234A009900041C7118B0187F
:102C2000FDF706FD0028D6D1013C604260410F4906
:102C3000FDF7E6FE0028CED1FFF7B2F9291C43428A
:102C40005841FDF7DDFE0028C5D1FEF7A1FBC2E724
:102C50006C100020D0630008A8630008F80F002063
:102C600058050020C1590008D00B0020FC63000863
:102C700070B5324C012323600720FDF779FF022055
:102C80002060FFF7D5F92E4D013843425841291CE9
:102C9000FDF7B6FE002800D070BDFFF7C9F9023875
:102CA00043425841291CFDF7ABFE0028F4D1FFF741
:102CB000BFF9043843425841291CFDF7A1FE002802
:102CC000EAD1FFF76DF91F4D43425841291CFDF72A
:102CD00097FE0028E0D10321216002F0B9FB1A4AD7
:102CE000061C936919489968194A0139FEF758FD7D
:102CF000184B186004202060FFF79AF9FA2182230C
:102D00004A009900041C7118B018FDF791FC0028C6
:102D1000C2D1601E444260410F49FDF771FE002898
:102D2000BAD1FFF73DF9291C43425841FDF768FE2F
:102D30000028B1D1FEF72CFBAEE7C0466C10002096
:102D400010640008A8630008F80F00205805002050
:102D5000C1590008D00B0020FC630008C046C046E3
:102D6000F8B5214A5F4656464D4644460123F0B425
:102D70001360934602F06CFB1C4A82468020C1051A
:102D80001B4F1C4E1C4D00248946904672B60121F3
:102D9000381C321C002300F0A3FC1849321C00230D
:102DA000281C00F09DFC381C00F062FC281C00F080
:102DB0005FFC62B64B46586A51460134421A42459E
:102DC000E4D95E46022737600D48FDF7E1FC60005C
:102DD000FDF7F6FC0B48FDF7BBFC3CBC9046994662
:102DE000A246AB46F8BDC0466C1000200F2700007D
:102DF000D0040020F1020008E404002010270000A5
:102E00002464000834640008C046C046C046C0467A
:102E1000F8B51E4A4F4646460123C0B4136091469A
:102E200002F016FB80271A4C1A4E80460025FF053B
:102E3000201CFEF7C5F9201CFEF72AF9201CFEF71E
:102E4000BFF9201CFEF724F9201CFEF7B9F9201C5D
:102E5000FEF71EF9201CFEF7B3F9201CFEF718F947
:102E6000786A41460135421AB242E1D902234C4602
:102E700023600948FDF78CFCA800FDF7A1FC07487A
:102E8000FDF766FC0CBC90469946F8BD6C1000201E
:102E9000200500200F27000024640008406400087B
:102EA000F8B51E4A4F4646460123C0B4136091460A
:102EB00002F0CEFA80271A4C1A4E80460025FF05F4
:102EC000201CFDF7DDFF201CFDF77AFF201CFDF71D
:102ED000D7FF201CFDF774FF201CFDF7D1FF201C3D
:102EE000FDF76EFF201CFDF7CBFF201CFDF768FFF0
:102EF000786A41460135421AB242E1D902234C4672
:102F000023600948FDF744FCA800FDF759FC074879
:102F1000FDF71EFC0CBC90469946F8BD6C100020D5
:102F2000140500200F2700002464000850640008E6
:102F3000F0B5474680B42D4A012382B013600020CB
:102F40009046019002F084FA294E2A4FB1692A4D29
:102F500089682A1C01AB0139381CFEF721FCB169D4
:102F6000264CA4228968530020602A1CF8180139D5
:102F700001ABFEF715FCB36960609968A42082007C
:102F8000B81801AB2A1C0139FEF70AFCB269F62118
:102F9000A0608800916801AB2A1C38180139FEF73F
:102FA000FFFBA423D900E0607818B7692A1CB96830
:102FB00001AB0139FEF7F4FB4546022620612E6085
:102FC0000F48032402F03CFAFDF752FBFEF7E0F94C
:102FD0002C600C48FDF7DCFB0198FDF7F1FB0A487B
:102FE000FDF7B6FB02B004BC9046F0BD6C100020AB
:102FF000F80F00205805002031050008D00B0020F4
:10300000102700002464000860640008C046C04621
:10301000F8B54F464646C0B4394E3A4FB0693A4DBE
:103020003A4A816801231360914605312A1C381CF5
:103030000023FEF7B5FBB369A421354C4A0099681B
:1030400020600431B81800232A1CFEF7A9FBB269DE
:103050006060A42081007818916800232A1C033145
:10306000FEF79EFBB169F6238968A06098002A1CD0
:10307000381802310023FEF793FBA422D300E0604E
:10308000F818B7692A1CB96800230131FEF788FBDC
:1030900002264D462E60206102F0DAF91D4E804670
:1030A0001D4D80200024C7050021281CFEF728FAAA
:1030B000796A424601348B1AB342F5D94F46032050
:1030C0003860FDF7D5FA0021281C0425FEF718FA10
:1030D000FEF75EF93D601148FDF75AFB201CFDF735
:1030E0006FFB0F48FDF754FB61000C196000FDF702
:1030F00067FB0C48FDF72CFB0CBC90469946F8BDCD
:10310000F80F002058050020C10E00086C100020A8
:10311000D00B00200F2700001405002024640008B5
:103120006C64000860640008C046C046C046C046E3
:10313000F8B51C4B5F46986956464D4644461A4AB8
:103140008168F0B40124013114608A46934602F08C
:103150007FF9164D8026A846154F164D814600244E
:10316000F605514600233A1C4046FEF719FBFEF7D0
:10317000C7F8736A48460134191AA942F1D95A4668
:10318000022717600C48FDF703FB201CFDF718FB16
:103190000A48FDF7DDFA3CBC90469946A246AB468C
:1031A000F8BDC046F80F00206C1000205805002024
:1031B000214F00080F2700002464000880640008E5
:1031C000F8B51C4B5F46986956464D4644461A4A28
:1031D0008168F0B40124013914608A46934602F0F4
:1031E00037F9164D8026A846154F164D8146002406
:1031F000F605514600233A1C4046FEF7D1FAFEF789
:10320000AFF8736A48460134191AA942F1D95A46EF
:10321000022717600C48FDF7BBFA201CFDF7D0FA17
:103220000A48FDF795FA3CBC90469946A246AB4643
:10323000F8BDC046F80F00206C1000205805002093
:10324000214F00080F270000246400088064000854
:1032500072B6074B00209968002901D062B670470A
:10326000044A9069816B98608363D9600120F5E717
:1032700020040020F80F0020C046C046C046C046CB
:1032800006480749074B00221B605B6000604060F6
:103290008260096049608A607047C046200400204F
:1032A0006004002018040020C046C046C046C04646
:1032B0000448054B00221B605B6000604060826038
:1032C0007047C0462004002018040020C046C046B5
:1032D0000448054B00221B605B6000604060826018
:1032E0007047C0462004002018040020C046C04695
:1032F000044B00220421DA6019615A611B605B6093
:103300009A60704700040020C046C046C046C046D0
:10331000024B00221B605B609A6070472005002012
:10332000024B00221B605B609A6070472004002003
:10333000044B054800221B605B609A60006040609F
:10334000826070472004002060040020C046C04610
:10335000024B00221B605B609A60704720040020D3
:10336000094B0A4A181C1A60DA609A6010321C3045
:103370005A601A1C1032D861186204210020596268
:103380001A615A619861704738040020C00B002010
:10339000044B00220421DA6019615A611B605B60F2
:1033A0009A60704700040020C046C046C046C04630
:1033B000024B00221B605B609A607047080500208A
:1033C000024B00221B605B609A607047080500207A
:1033D000024B00221B605B609A607047080500206A
:1033E000024B00221B605B609A607047080500205A
:1033F000024B01221B605B609A6070470805002049
:10340000024B01221B605B609A607047140500202C
:10341000024B00221B605B609A607047140500201D
:10342000034BA421002248001A6058609A6070473C
:10343000E40B0020C046C046C046C046C046C04659
:10344000F8B546464F46C0B48026F6053369F046C7
:10345000980706D44046FDF753FB0CBC90469946AE
:10346000F8BD0020306172B6184C706AE369A16A39
:103470009A68451A954218D3251C00271C35B94671
:103480001F688A184846A262D9687D60E761D860E3
:10349000AF4217D062B61869884772B6E369706A9E
:1034A000A16A9A68471ABA42EAD9094EB34207D0CC
:1034B0008C18251A012D07D980232818DA055063A6
:1034C00062B6C7E7F060E5E70225F5E7F80F0020F0
:1034D00014100020C046C046C046C046C046C04684
:1034E000F0B54E4645465746E0B42F4D2F4AAB69DE
:1034F00002209C681060A61C671C9E60381C9046C9
:10350000FDF7B6FB2A49001B434258418946FDF7A7
:1035100077FA002804D01CBC90469946A246F0BD1C
:10352000AB699A68B61A70427041224E311CFDF7A1
:1035300067FA0028EFD1A869C16B781A4342584155
:103540001D49FDF75DFA0028E5D103234246E01C42
:1035500013608246FDF78CFB381A47427841494692
:10356000FDF74EFA0028D6D1AF695346B968581A0C
:1035700043425841311CFDF743FA0028CBD1AE69D4
:103580005046F26B0D49801A43425841FDF738FA14
:103590000028C0D1042741460F6072B6AD69AC6007
:1035A000EC6362B6B7E7C046F80F00206C1000204D
:1035B000B0610008D46100088C640008B46400089D
:1035C00010B52148214C012323608369204A996862
:1035D00020480131FEF7E4F81F490222226008600A
:1035E000FDF72EFC446A72B6211CFDF7B9FB62B6EA
:1035F000E0B2FDF775F8FDF723FC446A72B6211CB2
:10360000FDF7AEFB62B6E0B2FDF76AF8FDF718FC15
:10361000446A72B6211CFDF7A3FB62B6E0B2FDF767
:103620005FF8FDF70DFC446A72B6211CFDF798FBAC
:1036300062B6E0B2FDF754F8FDF7AAFE0749084864
:10364000FDF78EF910BDC046F80F00206C10002069
:10365000A10F000858050020D00B002020620008B0
:10366000D4640008C046C046C046C046C046C046F6
:103670001A4A10B5D36983420ED0446801681C32DF
:10368000216003685C600024C460934203D08268B8
:1036900098688118996010BD1968101C1C300024AE
:1036A000D1614860DC60814214D088689B68926A6E
:1036B0001C188C608021CB05586A811A8C42EAD98B
:1036C000641A012C04D923188020C2055363E2E751
:1036D0000224F8E78021CB05DC60DCE7F80F00204E
:1036E00070B503618023C260DA05566A012922D9C8
:1036F000194D2C1CEB691C34A3421ED0AA6A9C688D
:1037000089198A1AA24203D211E01B68121B9C6815
:103710009442FAD35C688260036044602060586021
:103720009868811A996001235A426A6270BD8026A6
:10373000F6057163ECE70221DAE7AE62E861286220
:1037400081600360436080208E190025C10502223C
:103750004E630D61CA60E9E7F80F0020C046C0461D
:10376000F8B51E4D46464F46C0B48046281CFDF7AE
:1037700027FD1B4E301CFDF723FD72B6194CA369C3
:10378000986B8146FDF75CFC1749A2690B1C5162DE
:103790001B688B4203D09F6890688742F8D25968B3
:1037A000136051600A605A600720FDF721FBA4698D
:1037B000626A531C02D04846FDF79AFC62B6434643
:1037C0001878FCF78DFF301CFDF762FC281CFDF714
:1037D0005FFC0CBC90469946F8BDC04660040020D2
:1037E00020040020F80F002018040020C046C04626
:1037F00030B5051C87B04B1C12D00B4C01A8A36937
:103800000A4AFFF76DFF281CFDF7F2FA049B002B14
:1038100002D001A8FFF72CFFA069406A07B030BDB5
:10382000FDF7E6FA004CF7E7F80F0020E103000887
:1038300008B500290AD0074B42689B6918605A6096
:10384000136043600420FFF7D3FF08BD012040420E
:10385000FBE7C046F80F0020C046C046C046C04641
:1038600038B5041C0D1C72B6A368002B07D1201CB0
:10387000291CFFF7DDFF0028F6DA62B638BDA06824
:10388000A1690138A06022690D780131A1619142DE
:1038900001D3E368A361E169002901D0201C8847B6
:1038A00062B6281CEAE7C046C046C046C046C046CD
:1038B00008B50C30FFF7D4FF08BDC046C046C0466F
:1038C00008B501210C304942FFF7CAFF08BDC046C8
:1038D000F0B556464D4644465F46F0B40E1CC169ED
:1038E00083B0041C151C9946884672B68023D805FF
:1038F000426A01214B424A449A4601920027CA4437
:103900008346A06800281BD0A268A369013AA26080
:1039100019780133317020690136A361834201D3E4
:10392000E268A2614346002B01D0201CC04762B66A
:10393000013D0137002D12D072B6A0680028E3D1F6
:103940005146CB1C13D85846426A019B991A8945A7
:1039500004D3201CFFF76CFF0028D2D062B6381CBD
:1039600003B03CBC90469946A246AB46F0BD201C35
:103970004946FFF75DFFEFE7C046C046C046C04678
:1039800008B50C30FFF7A4FF08BDC046C046C046CE
:1039900008B501230C305B42FFF79AFF08BDC04613
:1039A00070B5041C0E1C151C72B6A368002B07D141
:1039B000201C291CFFF73CFF0028F6DA62B670BD18
:1039C000A06861690138A0600E70226901316161EF
:1039D000914201D3E5686561E669002E01D0201CA3
:1039E000B04762B60020EAE7C046C046C046C046BF
:1039F00008B53030FFF7D4FF08BDC046C046C0460A
:103A000008B5012230305242FFF7CAFF08BDC04658
:103A1000F0B556464D4644465F46F0B40E1CC169AB
:103A200083B0041C151C9946884672B68023D805BD
:103A3000426A01214B424A449A4601920027CA44F5
:103A40008346A06800281BD0A2686369013AA2607F
:103A5000317801361970206901336361834201D3E3
:103A6000E26862614346002B01D0201CC04762B669
:103A7000013D0137002D12D072B6A0680028E3D1B5
:103A80005146CB1C13D85846426A019B991A894566
:103A900004D3201CFFF7CCFE0028D2D062B6381C1D
:103AA00003B03CBC90469946A246AB46F0BD201CF4
:103AB0004946FFF7BDFEEFE7C046C046C046C046D8
:103AC00008B53030FFF7A4FF08BDC046C046C04669
:103AD00008B5012330305B42FFF79AFF08BDC046AE
:103AE00010B58468031C621E82600020002A00DB7F
:103AF00010BD00290BD008488469052063625A680C
:103B00002360626014605C60FFF772FEF0E70121E1
:103B10009C604842ECE7C046F80F0020C046C04613
:103B200070B5041C0E1C1C30111CFFF7D9FF051EBC
:103B30000BD1A368626840C3A360934207D2201CE4
:103B40001030FDF765FCFDF76BF8281C70BD206890
:103B5000A060F4E7C046C046C046C046C046C04666
:103B600070B5061C72B60D4D281CFFF7B9FF041E78
:103B70000DD12A1C1C3AD3681168043BD3608B42D8
:103B800008D31E600648FDF743FCFDF749F862B60E
:103B9000201C70BD5368043BD360F2E7540400203E
:103BA00048040020C046C046C046C046C046C04685
:103BB00070B5061C72B60D4D281CFFF791FF041E50
:103BC0000DD12B1C103BDA68586802CA3160DA60EC
:103BD000824207D20648FDF71BFCFDF721F862B6CA
:103BE000201C70BD1E68DE60F4E7C046480400205B
:103BF00054040020C046C046C046C046C046C04629
:103C000010B5011C72B60B4C201CFFF769FF002891
:103C10000DD1E068002803D00168E16062B610BDF4
:103C20006369002BFAD0206904219847F6E7002049
:103C3000F4E7C04600040020C046C046C046C04667
:103C400008B5064B0122FA201A608000FFF7D8FF62
:103C5000034943425841FCF7D3FE08BD6C100020D5
:103C6000C0630008C046C046C046C046C046C04605
:103C7000F0B54D465F4656464446F0B48F4D01239D
:103C800083B02B6072B68E4C8E49606A0438434212
:103C90005841FCF7B5FE62B6002806D003B03CBC24
:103CA00090469946A246AB46F0BD02202860FDF73B
:103CB00017FC72B6606A844E043843425841311C86
:103CC000FCF79EFE62B60028E8D172B67F4FA2696B
:103CD000391C50425041FCF793FE62B60028DDD1FA
:103CE00072B62168A3687A4AC81A43425841111C27
:103CF0009046FCF785FE62B60028CFD172B6E16827
:103D00002068401A43425841724B191C9A46FCF7EE
:103D100077FE62B60028C1D103222A6072B6012361
:103D2000201C42215A42FFF7FBFE62B66A49434219
:103D300058418946FCF764FE0028AFD172B60122D3
:103D4000201C43215242FFF7EBFE62B6434258412A
:103D50004946FCF755FE0028A0D172B60123201C6D
:103D600044215A42FFF7DCFE62B6434258414946BD
:103D7000FCF746FE002800D090E70121494241208F
:103D8000FFF7EEFE494643425841FCF739FE002852
:103D900000D083E70420286072B6626A4F4950421F
:103DA0005041FCF72DFE62B6002800D076E772B6CF
:103DB000A0694B49043843425841FCF721FE62B6E2
:103DC000002800D06AE772B6E368A168581A434237
:103DD00058414449FCF714FE62B6002800D05DE764
:103DE00005200422286093460123594201A8FFF7C9
:103DF000DFFE494643425841FCF702FE002800D04E
:103E00004CE769460879FCF76BFC01204242934479
:103E10005B46002BE8D134483449FCF7A1FD00286B
:103E200000D03BE70621296072B60122201C462102
:103E30005242FFF775FE62B6434258414946FCF7CD
:103E4000DFFD002800D029E70123594201A8FFF730
:103E5000AFFE494643425841FCF7D2FD002800D04E
:103E60001CE70720286072B6606A311C04384342A0
:103E70005841FCF7C5FD62B6002800D00EE772B6C7
:103E8000A569391C68426841FCF7BAFD62B6002892
:103E900000D003E72668A7684146F01B434258411B
:103EA000FCF7AEFD002800D0F8E62168E468081BA6
:103EB000434258415146FCF7A3FDEFE66C10002049
:103EC00038040020DC640008E8640008F46400089A
:103ED0000065000824650008606300084865000864
:103EE0005465000860650008D4640008786500081F
:103EF000F0B556464D4644465F46F0B4B64DB74C15
:103F000085B001232B6001A9201C0022FDF780F958
:103F1000B34E013843425841311CFCF771FD002873
:103F200006D005B03CBC90469946A246AB46F0BDD3
:103F30000220CD2128600901201CFEF7C1F8A94903
:103F400043425841FCF75CFD0028EAD103221021CE
:103F50002A60201CFEF7B4F8071C431E9841A24BB0
:103F6000191C9846FCF74CFD0028DAD1381CFDF7E7
:103F700087F90420286002A9201C03AAFDF748F94C
:103F800000900138434258419849FCF739FD002818
:103F9000C7D1029A0F219142BF417842944F391CF8
:103FA000FCF72EFD0028BCD1039B0298391CC01AD7
:103FB00043425841FCF724FD0028B2D10521296075
:103FC000201C1021FEF70CF910218246201CFEF760
:103FD00007F910218146201CFEF702F9071C504604
:103FE000FDF74EF94846FDF74BF9381CFDF748F947
:103FF00069460022201CFDF70BF901384342584165
:10400000311CFCF7FDFC071E00D08AE706222A605F
:104010001021201CFEF7E4F810218346201CFEF737
:10402000DFF810218246201CFEF7DAF8FDF728F9A8
:104030005046FDF725F95846FDF722F93A1C694626
:10404000201CFDF7E5F8013843425841311CFCF7CC
:10405000D7FC071E00D064E7072028601121201C30
:10406000FEF7BEF810218146201CFEF7B9F8834602
:104070004846FDF705F93A1C6946201CFDF7C8F8CB
:104080005C4F023843425841391CFCF7B9FC814669
:10409000002800D045E71021201CFEF7A1F8694652
:1040A00082464A46201CFDF7B3F80121884207D01A
:1040B00069460022201CFDF7ABF8811E4A4251419F
:1040C000081C311CFCF79CFC8146002800D028E726
:1040D0005846FDF7D5F85046FDF7D2F84A466946EE
:1040E000201CFDF795F8013843425841311CFCF77C
:1040F00087FC8146002800D013E708232B6010219D
:10410000201CFEF76DF810218346201CFEF768F88E
:1041100082465846FDF7B4F869464A46201CFDF72A
:1041200077F80238391C43425841FCF769FC071EF6
:1041300000D0F6E62021201CFEF752F8FDF7A0F88B
:104140005046FDF79DF83A1C6946201CFDF760F8C3
:10415000013843425841311CFCF752FC021E00D08A
:10416000DFE609212960201C6946FDF751F8009916
:10417000201CFEF735F841468146431E9841FCF766
:104180003FFC021E00D0CCE6111C201CFDF740F8BD
:10419000194943425841FCF733FC071E00D0C0E6E2
:1041A0004846FDF76DF80A222A606946201C3A1C31
:1041B000FDF72EF8013843425841311CFCF720FC32
:1041C000002800D0ADE6009D019C0C49281B43420D
:1041D0005841FCF715FCA4E66C10002038050020BF
:1041E000A06200088C650008A4650008B865000896
:1041F000CC650008E4650008E8640008F465000880
:1042000030B5134C83B001232360694601AA002016
:10421000FCF7FEFF10210F48FDF752FF0E49051C69
:10422000431E9841FCF7ECFB002801D003B030BDE1
:10423000281CFDF725F80220206008490020FDF722
:104240003FFF074943425841FCF7DAFBEEE7C0461F
:104250006C10002038050020A465000800FFFFFF57
:104260008C650008C046C046C046C046C046C04631
:1042700008B572B68368002B03DDFCF7D1FC62B68B
:1042800008BDFDF7C5F8F8E7C046C046C046C046C1
:10429000F8B5594C46464F46C0B4666FF04637688D
:1042A000F56935622A0748D1EA053ED4AB0617D432
:1042B0008020384201D0284255D16B0609D572B60C
:1042C000656CA06C854200D171E04024A743376043
:1042D00062B64046FCF714FC0CBC90469946F8BD0B
:1042E00072B67C22B08CA35C6169034099460029B8
:1042F00066D0206A626A904267D061694A4601319D
:1043000061610270E3690130206298424CD2211C45
:10431000E0680C31884206D002680023E2605160F8
:104320004362FCF705FE62B6C2E772B680213348ED
:104330008900FCF76DFE62B6B8E72907C80FC10116
:10434000EB0701D520231943AA0701D540221143C9
:104350006B0702D580204300194372B62748FCF74B
:1043600057FE62B6A0E772B6A16C626C8A4234D086
:10437000A06B236C0130A0630A7801319146A164DF
:10438000994201D3E16BA164231C206B3033984226
:1043900006D002680021226353604162FCF7C8FD29
:1043A0004846308562B688E7A0692062AFE7A36B14
:1043B000002B00D189E7201D1021FCF729FE84E79E
:1043C000201D0421FCF724FE93E76369002B94D0A1
:1043D000201D8021FCF71CFEA5E7A36B002BC7D096
:1043E0000821201DFCF714FEC0233A1C9A434021EB
:1043F00011433160D6E7C046300E0020340E002055
:1044000008B572B609480021FCF702FEFCF708FC6B
:1044100062B6FA20400001F013F872B60448002199
:10442000FCF7F6FDFCF7FCFB62B608BD3404002087
:1044300030040020C046C046C046C046C046C04604
:10444000F8B556464D4644465F46F0B4544E554D79
:10445000B36902209A682860904672B6524C0020D8
:10446000A168002900D170E062B6504F391CFCF7FA
:10447000C7FA002805D03CBC90469946A246AB46F8
:10448000F8BD03222A60FEF7E3FE01218A46484A6E
:1044900053465840C0B2111C9146FCF7B1FA0028AF
:1044A000E9D104202860201CFCF7F2FDA1684842F5
:1044B0004841404B191C9B46FCF7A2FA0028DAD170
:1044C00022683D49101B43425841FCF799FA0028E5
:1044D000D1D1B16905208A6843462860981A4342C1
:1044E00058413649FCF78CFA0028C4D106202860D0
:1044F000FEF7AEFE391CFCF783FA0028BBD1FEF7AD
:10450000A7FE57467840C0B24946FCF779FA002822
:10451000B1D1B76972B6BB6B002B21D000218A469E
:104520000BE00168826B4B6019609860DA6083630E
:10453000FCF7FEFCBB6B002B0ED0DA681868BA6380
:104540008342EED150469860F4E7B7690120BB6B17
:10455000A760E360BC6387E7F86BB860FCF760FBBB
:1045600062B6A768594678427841FCF749FA0028B4
:1045700000D080E72168081B444260410E49FCF7E7
:104580003FFA002800D076E7B66907242C60B568AA
:104590004246501B434258410849FCF731FA6AE74A
:1045A000F80F00206C100020200400200466000892
:1045B00014660008206600087C6200084C6200084F
:1045C000F8B52E4D4646A8694F46C0B481682C4EBA
:1045D0000123336001392B4A2B4B2C48FDF7E0F8BF
:1045E0002B49086072B62B4CAA69032054622260E2
:1045F000FCF7FEFBAF697B6A984662B6264F2168DE
:1046000048424841391CFCF7FBF9002803D00CBC98
:1046100090469946F8BD4246504250411F4B191CE6
:104620009946FCF7EDF90028F1D1FCF7B1FE022024
:10463000306072B68026AD69F1054E6A03206C6267
:1046400017492560FFF7D4F8051C62B6144A154BCC
:10465000B018F118FBF7ECFF0028D8D12068391CFE
:1046600043425841FCF7CCF90028D0D1681C4542A0
:1046700068414946FCF7C4F9C9E7C046F80F002075
:104680006C100020811600084862000858050020C0
:10469000D00B0020300500202C66000804620008C2
:1046A0001027000012270000C046C046C046C04682
:1046B000F0B54D465F4656464446F0B4B84D01232A
:1046C00083B02B6072B6B74CB749606A0438434276
:1046D0005841FCF795F962B6002806D003B03CBCFF
:1046E00090469946A246AB46F0BD0220286072B6BD
:1046F000201CFCF7DDFE62B672B6606AAB4E043871
:1047000043425841311CFCF77BF962B60028E5D1E1
:1047100072B6A74FA269391C50425041FCF770F99C
:1047200062B60028DAD172B62168A368A14AC81A15
:1047300043425841111C9046FCF762F962B60028CA
:10474000CCD172B6E1682068401A434258419A4B76
:10475000191C9A46FCF754F962B60028BED1032210
:104760002A6072B6606A002800DCC0E0A1680138E7
:1047700042236268606208C1A160914201D320684F
:10478000A060201C1030FCF743FE012062B68B496C
:104790008946FCF735F90028A0D172B6636A002B70
:1047A00000DCA2E0A068013B43226168636204C0B0
:1047B000A060884201D32368A360201C1030FCF75E
:1047C00027FE012062B64946FCF71AF9002800D0FE
:1047D00084E772B6606A002800DCDFE0A168013877
:1047E00044226368606204C1A160994201D32068D9
:1047F000A060201C1030FCF70BFE012062B6494679
:10480000FCF7FEF8002800D068E772B6616A00295C
:1048100000DCC1E0E36822680139043B6162E360C7
:10482000934202D26368043BE36041201860201C7D
:104830001030FCF7EDFD012062B64946FCF7E0F8C8
:10484000002800D04AE704218B46296072B6636ACB
:104850005B4958425841FCF7D3F862B6002800D0B3
:104860003CE772B6A0695749043843425841FCF707
:10487000C7F862B6002800D030E772B6A168E068D9
:10488000401A434258415049FCF7BAF862B6002832
:1048900000D023E705222A6020E0E068013BA36105
:1048A00002C862680191E060904201D32368E3602E
:1048B0004648FCF7ADFD002062B601304946FCF7E2
:1048C0009FF8002800D009E769460879FBF708FF40
:1048D000012253429B44584600280AD072B6A3696D
:1048E000002BDADC01204042E6E700206AE70020E6
:1048F0004CE737483749FCF733F8002800D0EDE69D
:104900000621296072B60122201C46215242FFF77F
:1049100007F962B6434258414946FCF771F800284E
:1049200000D0DBE60123594201A8FFF741F94946CF
:1049300043425841FCF764F8002800D0CEE6072037
:10494000286072B6606A311C043843425841FCF753
:1049500057F862B6002800D0C0E672B6A569391CC7
:1049600068426841FCF74CF862B6002800D0B5E612
:104970002668A7684146F01B43425841FCF740F8BF
:10498000002800D0AAE62168E468081B4342584189
:104990005146FCF735F8A1E600204DE700202DE751
:1049A0006C10002038040020DC640008E864000873
:1049B000F4640008006500082465000860630008CE
:1049C000486500085465000860650008540400202C
:1049D000D464000878650008C046C046C046C0469A
:1049E00070B5644E012382B0336072B6624C01220E
:1049F000201C42215242FFF793F862B65F4D4342BA
:104A00005841291CFBF7FCFF00283DD172B6012359
:104A1000201C43215A42FFF783F862B643425841B3
:104A2000291CFBF7EDFF00282ED172B60122201CB5
:104A300044215242FFF774F862B643425841291CA0
:104A4000FBF7DEFF00281FD172B60123201C452191
:104A50005A42FFF765F862B643425841291CFBF7FA
:104A6000CFFF002810D10220306072B65821201CE0
:104A70000122FFF755F862B6013043425841291C24
:104A8000FBF7BEFF002801D002B070BD72B6616AAC
:104A9000002969DDA368013958226068616204C396
:104AA000A36083425DD2201C1030FCF7B1FC0020D3
:104AB00062B6291CFBF7A4FF0028E5D1012158208C
:104AC000FFF74EF8013043425841291CFBF798FF8D
:104AD0000028D9D172B6636A002B47DDE0682268EE
:104AE000013B04386362E060904202D2606804389F
:104AF000E06058210160201C1030FCF789FC002088
:104B000062B6291CFBF77CFF0028BDD1032333606C
:104B1000FCF7E6FC04220121326001A8FFF748F807
:104B2000013043425841291CFBF76AFF0028ABD1F2
:104B300072B6A669002E1BDDE068013EA66102C8C0
:104B400063680191E060984201D32268E260201C12
:104B50001C30FCF75DFC002062B6291CFBF750FFFF
:104B600092E72168A1609EE70120A1E70120C7E745
:104B70000120F1E76C100020380400206063000879
:104B8000F0B54A4D85B001AC012300202B600194A3
:104B90006460A06072B6A168454E4A1E1143C80FFA
:104BA000311CFBF72DFF62B6002801D005B0F0BD27
:104BB00002272F60201C0021FCF7A2FC72B6A3681C
:104BC000311C581E0343D80FFBF71AFF62B60028AA
:104BD000ECD1384A032197692960B968364A01390E
:104BE000231C3648FCF7DCFD354B18600420286098
:104BF000201CFCF745F9071C72B6A1684A1E114338
:104C0000C80F311CFBF7FCFE62B60028CED17842FB
:104C100078412C49FBF7F4FE0028C7D105262E6009
:104C200072B6A368002B38DDFBF7FAFF62B672B6E6
:104C3000A768F817C11BC80F2349FBF7E1FE62B64E
:104C40000028B3D172B6A068204E013843425841C3
:104C5000311CFBF7D5FE62B60028A7D106222A60D8
:104C600072B6A568002D1CDDFBF7DAFF62B672B6DE
:104C7000A3681749DF17F81AC00FFBF7C1FE62B629
:104C8000002800D092E772B6A068311C0138434278
:104C90005841FBF7B5FE62B688E7201CFCF7B8FB6D
:104CA000C2E7201CFCF7B4FBDEE7C0466C10002016
:104CB00038660008F80F00207142000858050020EF
:104CC000D00B00204466000858660008646600089F
:104CD0003C660008C046C046C046C046C046C04606
:104CE00070B54B4E4B4D01233360AA6972B6516BC0
:104CF000002908D162B6484C0120211CFBF780FE38
:104D000000280DD070BD484208408143516362B60F
:104D1000414C43425841211CFBF772FE0028F1D15F
:104D2000AB6972B65A6B002A62D0586362B6002033
:104D3000211CFBF765FE0028E4D1A96972B64B6B14
:104D40005A1C58D062B60120211CFBF759FE0028DE
:104D5000D8D102203060AE6972B6726B002A0AD1D7
:104D600001225142FA2371620A205900FEF740FDE8
:104D7000002844DB726B504210408243726362B67B
:104D800043425841211CFBF73BFE0028BAD1AE69D3
:104D900072B6706B00280AD101204142FA23716279
:104DA0000A205900FEF724FD00282BDB706B00223F
:104DB000726362B643425841211CFBF721FE002872
:104DC000A0D1AD6972B66E6B731C09D0012041424F
:104DD000FA2369620B205900FEF70AFD002814DB54
:104DE00000226A6362B60020211CFBF709FE89E7F6
:104DF00062B601209CE7486362B60020A4E762B671
:104E00000120BFE762B60120D6E762B60120EBE7DA
:104E10006C100020F80F002078660008C046C046DD
:104E20002748012302680221134303600368244AD0
:104E30001942FBD050680321884350605368101C0E
:104E400053600C2143681E4A0B40FBD11168F920C6
:104E5000014011605360516B01230B4353630220E7
:104E6000536B17491842FBD04A6A0120104348622D
:104E700002204B6A124A1842FBD0A021880300236B
:104E80005060D36213631168802043040B43802178
:104E90001360880413680A490342FBD009481122B1
:104EA00002604A68022313434B600C204B68044A9B
:104EB0000340082BFAD191690120084390617047A3
:104EC0000010024000200240C046C046C046C04616
:104ED00038B572B60F4B9C696062251CA06A2835F4
:104EE000A84206D00268A262FCF722F8A06AA84293
:104EF000F8D12220215C002908D12123E55CAA07F2
:104F000004D1606922690261246960610F20FBF7A6
:104F10006FFF38BDF80F0020C046C046C046C046EF
:104F200008B5FFF7D5FF08BDC046C046C046C0461D
:104F30000D4A10B510689169036801245A60136026
:104F400090612022845400248C548A6800E01B68FD
:104F50009C689442FBD85A680B604A6011605960A3
:104F6000FBF736F910BDC046F80F0020C046C0461A
:104F7000F0B5474680B425488023844698460024EF
:104F8000E0446246566895681168AE4220D2F74305
:104F9000E8190A1C430701CADF0F331C01C3AB42E7
:104FA00010D2002F04D04968043202C3AB4209D2A8
:104FB000101C80C8191C80C152685A600B1D021D4C
:104FC000AB42F5D3F3435D19A80801308700F61909
:104FD0006146CD68AE4211D2F243AB18580710C6F5
:104FE000C70FAE420AD2002F02D010C6AE4205D281
:104FF000311C10C174600E1DAE42F9D31025AC44B3
:10500000C445BED304BC9046F0BDC04688660008C7
:10501000FEE7C046C046C046C046C046C046C04681
:105020007047C046C046C046C046C046C046C0469F
:105030007047C046C046C046C046C046C046C0468F
:10504000074B08490022CC2099600A604860191C6F
:1050500010311A60DA60196159619A617047C0466F
:105060003805002058050020C046C046C046C0464E
:10507000094B0A4A181C1A60DA609A6010321C3018
:105080005A601A1C1032D86118620421002059623B
:105090001A615A619861704738040020C00B0020E3
:1050A000094B0A4A181C1A60DA609A6010321C30E8
:1050B0005A601A1C1032D86118620421002059620B
:1050C0001A615A619861704738040020C00B0020B3
:1050D00010B5FBF7B5FE446A72B6211CFBF740FE23
:1050E00062B6002CF5D110BDC046C046C046C046D1
:1050F000F0B5474680B45D4F01233B6072B65C4C0F
:105100005C4D226825602A6062B66068411972B6FB
:10511000266821600E6062B66368C81872B622689D
:105120002060026062B66168461872B62368266025
:10513000336062B602203860201CFBF701FD4E4E42
:10514000431E9841311CFBF75BFC002800D079E03E
:10515000201CFBF7F5FC311C431E9841FBF750FC6B
:1051600000286FD1201CFBF7EBFC311C431E98413B
:10517000FBF746FC002865D1201CFBF7E1FC311C45
:10518000431E9841FBF73CFC00285BD103223A60A8
:10519000201CFBF7D5FC3949434258418846FBF7B0
:1051A0002FFC00284ED104233B6072B62068256096
:1051B000286062B672B62268291D6A60216062B6F4
:1051C00072B62368081DAB60206062B672B62268B2
:1051D0000831EA60216062B60525201C3D60FBF7BE
:1051E000AFFC311C431E9841FBF70AFC002829D173
:1051F000201CFBF7A5FC311C431E9841FBF700FC6B
:1052000000281FD1201CFBF79BFC311C431E98413A
:10521000FBF7F6FB002815D1201CFBF791FC311C95
:10522000431E9841FBF7ECFB00280BD10626201CFF
:105230003E60FBF785FC414643425841FBF7E0FBEB
:10524000002802D004BC9046F0BD0D48072104237D
:105250003960A0600027201C63602760FBF770FCAA
:10526000084943425841FBF7CBFBEBE76C100020A9
:1052700070040020F8040020B4630008C063000834
:105280002103000808670008C046C046C046C04663
:10529000F8B5534F01233B6072B6524D524829680E
:1052A0002860016062B672B6A4232E68A422590059
:1052B0005400421806512A6062B672B6A4212B68C7
:1052C000A4248A00A600841883512C6062B672B6AA
:1052D000F6262968B300C150C018286062B6434A58
:1052E000032394693B60A668414A711E4148FDF75B
:1052F0005FF8414CB11E2060404A4148FDF758F824
:10530000F11E60603F4A4048FDF752F8311FA0602F
:105310003E4A3F48FDF74CF8711FE0603D4A3E4869
:10532000FDF746F82061206804213960002854D038
:105330006268002A51D0A668002E4ED0E068431E55
:1053400098413649FBF75CFB002800D0F8BD206986
:10535000334943425841FBF753FB0028F6D105235C
:105360003B60FCF715F82F482F49FBF7F9FA0028A6
:10537000ECD106243C60281CFBF7E2FB2B4F431EBC
:105380009841391CFBF73CFB0028DFD1281CFBF7B8
:10539000D7FB391C431E9841FBF732FB0028D5D1BF
:1053A000281CFBF7CDFB391C431E9841FBF728FB5B
:1053B0000028CBD1281CFBF7C3FB391C431E9841A6
:1053C000FBF71EFB0028C1D1281CFBF7B9FB1849CD
:1053D00043425841FBF714FBB8E70020B1E7C04651
:1053E0006C100020E40B002058050020F80F00206E
:1053F00048620008B0620008D00B00204462000838
:10540000D062000840620008D86200083C620008D0
:1054100024670008686200082C670008B86200086A
:10542000E0620008D46400082062000834670008C5
:1054300044670008C046C046C046C046C046C04695
:1054400008B5011C72B60820FEF7D2F962B608BD95
:1054500008B50120FFF7F4FF72B68023D805406A33
:1054600062B608BDC046C046C046C046C046C0463B
:105470002848F8B58169284A89684F46464601237D
:10548000C0B4914613600131244A00232448FCF73C
:1054900087F90226234D4F463E602860041CFFF723
:1054A000D7FF214E802280460025D70572B6002105
:1054B000201CFBF755FC201C0021FBF751FC201C95
:1054C0000021FBF74DFC201C0021FBF749FC62B6D4
:1054D0007B6A40460435191AB142E7D903274A4688
:1054E000176072B6201C01246142FBF739FC62B6DA
:1054F000FBF74EFF04264B461E600C48FBF748F9AD
:105500006800FBF75DF90A48FBF722F90CBC9046EE
:105510009946F8BDF80F00206C100020210E0008FD
:1055200058050020D00B00200F270000246400083D
:1055300060640008C046C046C046C046C046C0467B
:10554000F0B5474680B4051CFFF782FF80270B4E5D
:1055500080460024FF05281C0121FBF701FD7B6A22
:1055600042460134981AB042F5D9281C0021FBF7B5
:10557000F7FC201C04BC9046F0BDC0460F2700007D
:10558000134838B58169134C8968012301392360B8
:10559000114A00231148FCF703F90225104A25603F
:1055A0001060FFF7CDFF051CFBF7F2FE032323601D
:1055B0000C48FBF7EDF8281CFBF702F90A48FBF74B
:1055C000E7F86800FBF7FCF80848FBF7C1F838BDBE
:1055D000F80F00206C100020D15000085805002062
:1055E000D00B00202464000858670008606400089D
:1055F000134838B58169134C896801230131236050
:10560000114A00231148FCF7CBF80225104A256007
:105610001060FFF795FF051CFBF7BAFE032323601C
:105620000C48FBF7B5F8281CFBF7CAF80A48FBF74B
:10563000AFF86800FBF7C4F80848FBF789F838BDF5
:10564000F80F00206C100020D150000858050020F1
:10565000D00B00202464000858670008606400082C
:10566000F0B52E4D4746A86980B42D4E2D4F816868
:1056700001233B600131301C2B4A0023FCF790F8DA
:1056800002213960A969294CA42289685300284A5B
:1056900020600239F01800239046FCF781F8A969D0
:1056A00060608968A42083004246F0180339002313
:1056B000FCF776F8AB69F6229968A0609000301884
:1056C000424604390023FCF76BF8A421CA00E060CD
:1056D000B018AE694246B16800230539FCF760F89E
:1056E00003253D6020612068FFF72AFF041CFBF7BB
:1056F0004FFE042038600F48FBF74AF8201CFBF7E8
:105700005FF80D48FBF744F86000FBF759F80B48C9
:10571000FBF71EF804BC9046F0BDC046F80F002011
:10572000580500206C100020D1500008D00B00203C
:10573000214F0008246400085867000860640008CE
:1057400070B5294E012380253360ED056C6A642015
:10575000FFF776FE201C211C64306731FAF768FFE2
:10576000002800D070BDFA210220306088006C6AE9
:10577000FFF766FEFA221D499300E0186118FAF758
:1057800057FF0028EED1FA220320306090006C6AA7
:10579000FFF756FEFA23154A99006018A118FAF788
:1057A00047FF0028DED10420306011486C6AFFF703
:1057B00047FE0F4B0F49E0186118FAF739FF002830
:1057C000D0D1052232606E6A341C643472B66D6AC0
:1057D000611B02D00820FEF70BF862B6311C67315E
:1057E000201CFAF725FFBDE76C100020EB0300003A
:1057F0001027000013270000C046C046C046C04620
:10580000FA2008B54000FFF71BFE72B60348FBF70D
:10581000FFFDFBF705FA62B608BDC046080500208B
:10582000F8B556464D4644465F46F0B4424D434FA8
:10583000AB69434E9C680222601C8146A11C8A46CB
:105840003260381C49463F4A3F4BFBF7A9FFB84638
:105850003E4F51463860404649303D4A3D4BFF304F
:10586000FBF79EFF032378603B4833608046FBF7DD
:10587000A7FCA969394F8A68391CA01A43425841CC
:10588000FBF7BEF8002805D03CBC90469946A246DE
:10589000AB46F8BD0423FA2033608000FFF7D0FD4B
:1058A000A9694B468A68391C981A43425841FBF74C
:1058B000A7F80028E8D12A4905203060081C8B464B
:1058C000FBF77EFCAA694B469068391C181A4342C4
:1058D0005841FBF795F80028D6D10621FA2231600D
:1058E0009000FFF7ADFDA86953468168581A4342FE
:1058F0005841391CFBF784F80028C5D107225846C7
:105900003260FBF7C5FBA8694B468168581A4342D1
:105910005841391CFBF774F80028B5D108223260D1
:105920004046FBF7B5FBAD69391CAE68A01B44428D
:105930006041FBF765F8A7E7F80F00205805002045
:105940006C1000207159000848620008D00B00203C
:105950009159000844620008200400204C620008AD
:1059600060040020C046C046C046C046C046C0468F
:10597000FA2010B54000FFF763FD044C201CFBF734
:105980001FFC201CFBF784FB10BDC0462004002038
:1059900010B50748FFF754FD72B6064C201CFBF704
:1059A000A7FB201CFBF74CFBFBF73AF962B610BDD6
:1059B000DC05000060040020C046C046C046C0466A
:1059C00010B5041CFA204000FFF73AFD72B6012121
:1059D000201CFBF7FDFAFBF723F962B610BDC046A9
:1059E00038B5084B084A98698024084D8261A400A4
:1059F0006C830748FFF724FD2C830548FFF720FD43
:105A0000F6E7C046F80F0020646700080008004869
:105A1000C4090000C046C046C046C046C046C04695
:105A200038B5074B074A9869074D826180246C831B
:105A30000648FFF705FD2C830448FFF701FDF6E754
:105A4000F80F002070670008000800488813000065
:105A5000F0B5B14B5F4656464D46444601219A6A21
:105A6000F0B400224C429C629A6218691C611A616F
:105A7000DD68AA4880270543DD60DA60DE697905C4
:105A80003143A74DD9612C688020460026432E6003
:105A90001F6AC0218D00802483B02F40A000874260
:105AA00003D0802677021F621A629B4B8022196AFC
:105AB0001502294207D11C6A8020860026431E62F7
:105AC0001F6A3D431D62944CFC236169DA030A435B
:105AD00090256261EE05FC20924D9349A02200239F
