:020000040800F2
:100000000002002091010008E1400008930100086F
:100010009301000893010008930100089301000870
:100020009301000893010008930100089301000860
:100030009301000893010008930100089301000850
:100040009301000893010008930100089301000840
:100050009301000893010008930100089301000830
:100060009301000893010008930100089301000820
:100070009301000893010008930100084112000851
:100080009301000893010008930100089301000800
:1000900093010008930100089301000893010008F0
:1000A0009301000893010008930100082112000841
:1000B0000112000893010008930100089301000851
:1000C00072B6244880F30888234880F30988022008
:1000D00080F31488BFF36F8F01F042F900F0E0FF66
:1000E0001E481F491B4A914202DA08600431FAE7B0
:1000F0001C49194A914202DA08600431FAE71A49A8
:100100001A4A1B4B9A4204DA086810600431043220
:10011000F8E700201749184A914202DA08600431D2
:10012000FAE701F0E5F801F013F9144C144DAC4274
:1001300003DA216888470434F9E702F0A1FF114C83
:10014000114DAC4203DA216888470434F9E70F49BE
:1001500008470000000200200004002055555555B6
:100160000000002000020020E470000800040020CD
:1001700030040020300400205C0F0020C000000884
:10018000C0000008C0000008C000000841130008BB
:1001900096E700F000F8FEE7F0B544464D465646B7
:1001A0005F46F0B46B46CB60C3689D46F0BCA0468A
:1001B000A946B246BB46F0BD62B6281CA047002047
:1001C00000F0F6FB00F084F9014A024B1360FEE7F1
:1001D00004ED00E000000080002243088B4274D34D
:1001E00003098B425FD3030A8B4244D3030B8B4238
:1001F00028D3030C8B420DD3FF22090212BA030C41
:100200008B4202D31212090265D0030B8B4219D321
:1002100000E0090AC30B8B4201D3CB03C01A524141
:10022000830B8B4201D38B03C01A5241430B8B4289
:1002300001D34B03C01A5241030B8B4201D30B0372
:10024000C01A5241C30A8B4201D3CB02C01A524199
:10025000830A8B4201D38B02C01A5241430A8B425C
:1002600001D34B02C01A5241030A8B4201D30B0245
:10027000C01A5241CDD2C3098B4201D3CB01C01A5F
:10028000524183098B4201D38B01C01A5241430969
:100290008B4201D34B01C01A524103098B4201D357
:1002A0000B01C01A5241C3088B4201D3CB00C01AC4
:1002B000524183088B4201D38B00C01A524143083C
:1002C0008B4201D34B00C01A5241411A00D2014661
:1002D000524110467047FFE701B5002000F00CF8CE
:1002E00002BDC0460029F7D003B5FFF775FF0EBC6D
:1002F0004243891A1847C0467047C04600000000B4
:1003000072B62023C35C072B0CD8124A9B00D3582B
:100310009F46426A936801339360026843681A609B
:1003200002685360012300225B4243622133C254BE
:100330008268094B1B6899689142FBD25A68036036
:1003400042601060586062B670470022436A1A60CB
:10035000E8E7C0464C540008840E0020C046C04662
:10036000FEE7C046C046C046C046C046C046C0467E
:10037000C023024A11680B431360704700440040D9
:10038000C023024A11680B431360704700380140D4
:1003900000207047C046C046C046C046C046C04662
:1003A00070B50468061C0D1CA0420ED0E3682B43F8
:1003B000E360002D02D023692B4203D06068A1685E
:1003C00003F0D6FE2468A642F0D170BDC046C046F8
:1003D00072B6034B9B695A6B1043586362B6704701
:1003E000840E0020C046C046C046C046C046C04637
:1003F00072B6021C02E08B4205D01A1C13688342BD
:10040000F9D162B670470B681360FAE7C046C04680
:1004100038B572B60F4C2068A16983688A68934228
:1004200001D262B638BD036801255C602360A0611B
:100430002024055500250D5500E01B689C68A2424C
:10044000FBD95A680B604A6011605960FFF7A4FE3F
:10045000E7E7C046840E0020C046C046C046C046FE
:1004600082684168131C483B10B5D961111C0469AE
:100470006C39D9600C6144694C61104C0C620168A4
:10048000022499612021C06898605C5400211F34C7
:100490001955D8630120996359632231585408498A
:1004A00048691961586103614B61111C1C3A20397C
:1004B0000960181C1260526010BDC046B9010008E6
:1004C000840E0020C046C046C046C046C046C04656
:1004D0000D4A10B510689169036801245A601360D1
:1004E00090612022845400248C548A6800E01B68A8
:1004F0009C689442FBD85A680B604A60116059604E
:10050000FFF74AFE10BDC046840E0020C046C0461C
:1005100038B50F4C2068A16983688A68934200D877
:1005200038BD036801255C602360A0612024055567
:1005300000250D5500E01B689C68A242FBD35A6859
:100540000B604A6011605960FFF726FEE8E7C0467D
:10055000840E0020C046C046C046C046C046C046C5
:1005600010B572B6074B9B69DC6B9A68944201D058
:10057000824200D29860D863FFF7CAFF62B6201C9F
:1005800010BDC046840E0020C046C046C046C046CE
:1005900038B5144B82689D694162AC68A2420CD8A0
:1005A0000024202144541B6899688A42FBD95A6868
:1005B000036042601060586038BD20220021A954B9
:1005C0001A1C126891688C42FBD951682A606960D4
:1005D0000D605560986101222023291CC254FFF749
:1005E000DBFDE9E7840E0020C046C046C046C04699
:1005F00008B572B6836801338360002B01DD62B6F3
:1006000008BD031C0068002102681A605360FFF7F0
:10061000BFFFF4E7C046C046C046C046C046C0461D
:100620002022074B10B599698854186804686360E4
:100630001C60986101238354FFF7AEFD10BDC046D6
:10064000840E0020C046C046C046C046C046C046D4
:1006500010B572B683680022013B8360002B02DB79
:1006600062B6101C10BD074CA3695862426818603E
:100670005A60136043600520FFF7D2FFA3695A6AEE
:10068000EEE7C046840E0020C046C046C046C046C5
:1006900000222023C2548268054B1B68996891424E
:1006A000FBD25A6803604260106058607047C046D1
:1006B000840E0020C046C046C046C046C046C04664
:1006C00038B5114B04689D69C368AB63A04218D06C
:1006D000E96B002B09D01A68934203D092689142CB
:1006E00000D2111CDB68002BF5D12268A9600260E2
:1006F0005060A26B8460C260A063201CFFF7C8FF3B
:1007000038BD00238360FBE7840E0020C046C0464E
:1007100038B5134B9D6972B6C3680468AB63A042D9
:100720001BD0E96B002B09D01A68934203D0926862
:10073000914200D2111CDB68002BF5D12268A96020
:1007400002605060A26B8460C260A063201CFFF74F
:100750009FFFFFF7DDFE62B638BD00238360FAE736
:10076000840E0020C046C046C046C046C046C046B3
:10077000F8B582682F4B9C69002A56D0A16893680F
:10078000051C2026994207D99160935D062B33D032
:10079000072B1DD0002B12D02B1C03E09A68A168F8
:1007A0008A4202D31B689D42F8D15A682360626076
:1007B000062014605C606562FFF732FFF8BD1168C7
:1007C0005368101C196011684B60FFF761FFE3E785
:1007D00053681068186010684360506A031C02E098
:1007E0009E688E4202D31B689842F9D15968136003
:1007F00051600A605A60CFE753681068186010684B
:100800004360506A031C02E09F688F4202D31B685A
:100810009842F9D15968136051600A605A60826841
:10082000A16893688B42AFD3B6E7A36B8460C360C3
:10083000A063C3E7840E0020C046C046C046C04641
:1008400008B572B6FFF794FF62B608BDC046C04651
:1008500070B572B62222835C013B8354026A2D4B31
:1008600013400F2B01D062B670BD026943691A6153
:100870000269536162B621230322C35C1340012B3A
:1008800009D0022BF0D1036CC26972B619681160ED
:100890001A6062B6E8E7C469083C636826680733F3
:1008A000DB08351D0C366360301CFFF7C9FF2B1CBD
:1008B0009D4204D09C4202D81B689D42FAD11A681E
:1008C000002A03D0944201D3131CF1E7616822602F
:1008D0001C604A1CD2002068A218824209D05968C4
:1008E0004A1CD2009A1894420BD0301CFFF710FF1C
:1008F000BAE7506812688446614401316160226041
:10090000EDE76268944622686144013159601A60DB
:10091000EBE7C046FF00FF00C046C046C046C046E9
:1009200038B5041C72B62023C35C0F2B07D0074BCD
:10093000826A9B691A6083620920FFF771FE656A0B
:1009400062B6201CFFF784FF281C38BD840E0020EF
:1009500008B5836801338360002B00DD08BD031CEC
:10096000006802681A60536000234362FFF790FE3C
:10097000F4E7C046C046C046C046C046C046C04672
:1009800070B5051C72B60226846876420134816017
:10099000002C09DC6868013443686B601D60FFF758
:1009A00077FE4662012CF5D1FFF7B2FD62B670BD4D
:1009B00038B572B60F4B9C69251C6062A06A283559
:1009C000A84206D00368A362FFF762FEA06AA842AD
:1009D000F8D12223E35C002B08D12123E35C9B07A1
:1009E00004D1226963691A61226953610F20FFF7FC
:1009F00017FE38BD840E0020C046C046C046C04623
:100A0000F0B545464E465746E0B4466D041C336883
:100A1000F569984635622B0700D096E0EB0500D5C6
:100A20008BE0AB063ED5231D5C2799461FE0236A69
:100A3000626A93422AD06269013262615A1C226260
:100A40001D70236AE269934201D3A3692362231CC8
:100A5000E0680C33834206D00268E26053600023F2
:100A60004362FFF715FE62B6F569AB061AD572B69A
:100A7000B38CE55D1D406369002BD8D14846042145
:100A8000FFF78EFC236A626A9342D4D16269002A1E
:100A9000D1D080214846C900FFF782FC62B6F569D3
:100AA000AB06E4D480234246134235D02B4233D0E8
:100AB0000023271C9A468033303799461BE0A26BEF
:100AC0000132A2635A1CA2641D78236C9A4201D39E
:100AD000E36BA364206BB84206D0036823635F60B6
:100AE00053464362FFF7D4FDADB2358562B64B463F
:100AF000F5692B4210D072B6A36C626C9A42DED1BB
:100B0000A26B002ADBD0201D0821FFF749FC8023BF
:100B100042469A43326062B6402743461F4207D09E
:100B20002F4205D072B6636CA26C934223D062B69A
:100B30001CBC90469946A246F0BD72B68021201D8D
:100B40008900FFF72DFC62B66BE72907C90FC901C1
:100B5000EB0701D520231943AB0701D540231943E7
:100B60006B0702D580235B00194372B6201DFFF787
:100B700017FC62B652E7A36B002BD8D0201D1021C2
:100B8000FFF70EFC4346BB433360D0E7C046C04688
:100B90001B4B10B5DA6982420FD0416802681C33E2
:100BA0000A60026851600021C1609A4204D09168D5
:100BB00083688C466344936010BD181C0024116840
:100BC0001C30D9614860D460814215D08868926831
:100BD000844662448A60996A8023DB055B6A5B1AFB
:100BE0009A42E9D9D01A012804D980235218DB058A
:100BF0005A63E1E79A1CF8E78023DB05DC60DBE75A
:100C0000840E0020C046C046C046C046C046C0460E
:100C100003618023DB05C26070B55A6A012925D9BA
:100C20001D4C251CE3691C35AB4226D0A56A521B1E
:100C300089188A4215D89A68914203D218E01B6835
:100C4000891A9A688A42FAD35A680360426010602F
:100C5000586081609A68511A996001235B4263620F
:100C600070BD9A681B68891A9A68EBE70221D7E77A
:100C700080264D19F6057563E4E7A262E061206203
:100C8000036043608023816089180022DB0559637B
:100C90001A610232DA60E3E7840E0020C046C046E3
:100CA00030B5051C87B04B1C12D00B4C01A8A369B2
:100CB0000A4AFFF7ADFF281CFFF7B2FC049B002B8C
:100CC00002D001A8FFF764FFA369586A07B030BDDE
:100CD000FFF7A6FC004CF7E7840E00200103000894
:100CE00008B500290AD0074B42689B6918605A6012
:100CF000136043600420FFF7D3FF08BD012040428A
:100D0000FBE7C046840E0020C046C046C046C04631
:100D1000F0B55F46564644464D46F0B49B46C3691F
:100D200083B0041C884601929A4672B6171E20D0E2
:100D3000A3683D1CBB4200D2A56860692369414697
:100D40001E1AAE423AD81FD32A1C04F041FBE368B6
:100D50006361A3685B1BA360002D28D05346002B62
:100D600001D0201CD04762B67F1BA84472B6002F6A
:100D7000DED1002762B6019BD81B03B03CBC904675
:100D80009946A246AB46F0BD321C04F021FB311C53
:100D9000AB1B99461A1C4144E06804F019FBE36858
:100DA0004B446361A3685B1BA360002DD6D1201C5C
:100DB0005946FFF795FF0028BAD0DBE72A1C04F05C
:100DC00007FB63695B196361C3E7C046C046C04661
:100DD00008B53030FFF79CFF08BDC046C046C0468E
:100DE00008B5012330305B42FFF792FF08BDC046D3
:100DF00070B5041C0E1C151C72B605E0201C291CC5
:100E0000FFF76EFF002817DBA368002BF6D0A3685E
:100E1000013BA36063695A1C62611E7063692269A9
:100E2000934201D3E3686361E369002B01D0201C86
:100E3000984762B6002070BD62B6FCE7C046C04667
:100E400008B53030FFF7D4FF08BDC046C046C046E5
:100E5000012208B530305242FFF7CAFF08BDC04634
:100E6000F0B55F46564644464D46F0B49B46C369CE
:100E700083B0041C884601929A4672B6171E20D091
:100E8000A3683D1CBB4200D2A568A1692369404606
:100E90005E1AAE423AD81FD32A1C04F099FAE368CE
:100EA000A361A3685B1BA360002D28D05346002BD1
:100EB00001D0201CD04762B67F1BA84472B6002F19
:100EC000DED1002762B6019BD81B03B03CBC904624
:100ED0009946A246AB46F0BD321C04F079FA301CAC
:100EE000AB1B99461A1C4044E16804F071FAE368B0
:100EF0004B44A361A3685B1BA360002DD6D1201CCB
:100F00005946FFF7EDFE0028BAD0DBE72A1C04F0B3
:100F10005FFAA3695B19A361C3E7C046C046C04638
:100F200008B50C30FFF79CFF08BDC046C046C04660
:100F300008B501230C305B42FFF792FF08BDC046A5
:100F400038B5041C0D1C72B605E0201C291CFFF7E7
:100F5000C7FE002816DBA368002BF6D0A368A269A1
:100F6000013BA360531CA36115782269934201D30E
:100F7000E368A361E369002B01D0201C984762B6A7
:100F8000281C38BD62B6FCE7C046C046C046C04615
:100F900008B50C30FFF7D4FF08BDC046C046C046B8
:100FA000012108B50C304942FFF7CAFF08BDC04611
:100FB00008B5011C72B60820FFF772FE62B608BDC4
:100FC00008B5EFF30583DB0501D1FFF7A1FA62B69F
:100FD00008BDC046C046C046C046C046C046C04622
:100FE000EFF31080C30702D4EFF3058372B67047A6
:100FF00030B5051CC30711D5284A116891423CD071
:101000000023096801339142FBD14C688C4232D0F5
:101010006468013B9442FBD1002B2CD1AB0713D564
:101020001E4B1C1CDA691C34A2422BD00023126810
:101030000133A242FBD1516891421CD04968013B67
:10104000A142FBD1002B16D100206B0712D5134A09
:10105000116991421CD00023096901339142FBD1EF
:101060004C698C4207D06469013B9442FBD1581E05
:101070008341D8B230BD0120FCE75468002394427C
:10108000C6D1CBE7196A141C00239142D6D1DBE705
:101090004C6900238C42E6D1ECE7C046840E002068
:1010A0009C20474AC003916A30B501439162936A1C
:1010B0004449454C19409162936A53699021034316
:1010C0005361536900234148C9054B60886040481B
:1010D000404DC86040484861802040000862802040
:1010E000400548623D48086001203D4940424B6050
:1010F0008860CC603B4C4C6140240B624B620C60BE
:1011000039493A4C4B608860CD604C610B624B6250
:101110000B6037494B608860CD604C610B624B625D
:101120000B60116801330B43136003301168244BCB
:101130000842FBD003215A680C208A43191C5A60CC
:101140004B681F4A0340FBD1F92011680140116030
:101150005360516B01330B435363F738516B184B9A
:101160000842FBD00122596A02200A435A621A1C23
:10117000516A134B0842FBD0A02100228903DA6296
:101180005960802180201A631A6849040A431A6052
:10119000800419680A4A0142FBD01121154B0C202A
:1011A0001960022351680B4353605368044903409C
:1011B000082BFAD18A69073B13438B618B6930BDD9
:1011C00000100240FFFFB1FF155555555FF7FFFFB7
:1011D0004555552555555555DFFF0000200000A801
:1011E00000040048F7FF000000080048FFFF00006F
:1011F0000014004800200240C046C046C046C04619
:1012000010B574460348FFF7FBFB201C02F048FFB3
:1012100010BDC04684060020C046C046C046C04639
:1012200010B574460348FFF7EBFB201C02F038FFB3
:1012300010BDC04624060020C046C046C046C04679
:101240008022F8B54F464646D2051369C0B4F14630
:101250009B0706D4484602F023FF0CBC90469946F3
:10126000F8BD0023136172B61D4C9046261C002762
:10127000E3691C3699684246506AA26A851A8D4213
:1012800009D215E062B61869884772B6E3699968B1
:101290008D42F0D3A26A5218A2621A686D1A566083
:1012A000D968E261DF60B242ECD14246D760E9E73B
:1012B000261CE1691C36B1420DD05219A2628C681D
:1012C000121A651B8D609B68D218012A05D98023EC
:1012D0001018DB05586362B6BCE70222F7E7C04688
:1012E000840E0020C046C046C046C046C046C04628
:1012F000F0B50F4E0025371C80377368B46831682D
:10130000A3420AD21A1C01C901C2A242FBD3DA438A
:101310001419A4080134A4001B19F268934202D2E4
:1013200020C39342FCD31036BE42E6D3F0BDC04684
:101330006C540008C046C046C046C046C046C046C1
:10134000FEE7C046C046C046C046C046C046C0468E
:101350007047C046C046C046C046C046C046C046AC
:101360007047C046C046C046C046C046C046C0469C
:101370000022024B1B605B609A607047740E002075
:101380000022024B1B605B609A607047740E002065
:101390000022024B1B605B609A607047740E002055
:1013A0000022024B1B605B609A607047740E002045
:1013B0000122024B1B605B609A607047740E002034
:1013C0000022014B1A60704730040020C046C0461E
:1013D0000122044B1A608022D205516A536A8B4263
:1013E000FCD07047640D0020C046C046C046C046D1
:1013F00008B502480021FFF7C3FA08BD740E0020AB
:101400000123F0B54A4D85B02B60002301AC019457
:101410006460A36072B6039B464E581E1843C00F0B
:10142000311C02F06DFD002802D062B605B0F0BD9F
:1014300062B60223201C00212B60FFF7A1FA72B6CE
:10144000039B311C581E1843C00F02F059FD0028A1
:10145000EBD162B603232B60374B384A9B6938487F
:101460009968231C013903F04BFD364B18600423A7
:10147000201C2B60FFF7ECF8071C72B6039B311C95
:10148000581E1843C00F02F03BFD0028CDD162B6B4
:10149000784278412C49C0B202F032FD0028C5D113
:1014A00005232B6072B6A368002B39DDFFF730F8F7
:1014B00062B672B6039B2549D817C01AC00F02F056
:1014C0001FFD0028B1D162B672B6039B204E581E94
:1014D00042424241311CD0B202F012FD0028A4D198
:1014E00062B606232B6072B6A368002B1CDDFFF7E3
:1014F0000FF862B672B6039B1649D817C01AC00F10
:1015000002F0FEFC002800D08FE762B672B6039BA3
:10151000311C581E42424241D0B202F0F1FC84E735
:10152000201CFFF715FAC1E7201CFFF711FADEE7D0
:10153000640D0020EC540008840E002061150008A2
:10154000E8060020680D0020F85400080C5500083B
:1015500018550008F0540008C046C046C046C046B2
:1015600008B572B68368002B03DDFEF7D1FF62B6C3
:1015700008BDFFF7EDF9F8E7C046C046C046C046D3
:1015800008B502F0BDF908BDC046C046C046C04619
:1015900008B502F0B5F908BDC046C046C046C04611
:1015A000F8B501231E4D1F4A2B601F4B1F489B6936
:1015B00099680023013103F0A3FC1D4B186002233E
:1015C0002B6003F00DFD1B4C1B4E2368311C181BB8
:1015D00042424241D0B202F093FC002800D0F8BD54
:1015E000A068164F43425841391CC0B202F088FC33
:1015F0000028F4D103232B6003F0F2FC2368311C94
:10160000181B42424241D0B202F07AFC0028E6D1D7
:10161000A368391C58425841C0B202F071FCDEE7A1
:10162000640D002041160008840E0020E80600200A
:10163000680D0020740E00202C5500083C55000851
:1016400010B5044C201CFFF703F8201CFEF7D0FF58
:1016500010BDC046740E0020C046C046C046C046FD
:10166000F8B501231E4C1F4F201C3B60FEF7F0FF16
:10167000051C72B6A0681C4E43425841311CC0B2D2
:1016800002F03EFC002801D062B6F8BD62B66842A6
:1016900068411649C0B202F033FC0028F5D102239C
:1016A000201C3B60FEF7A4FF72B6A368311C581ED5
:1016B00042424241D0B202F023FC0028E4D162B69B
:1016C0000323201C02213B60FFF75AF972B6A06881
:1016D000311C023842424241D0B202F011FCD3E741
:1016E000740E0020640D0020505500086455000859
:1016F00010B5041C0348FEF7ABFF207802F030F968
:1017000010BDC046740E0020C046C046C046C0464C
:1017100008B5007802F024F908BDC046C046C046AE
:101720002D4BF0B5474698460123424680B42B4FD7
:101730001360BB692A4E2B4C9968321C0531201C62
:10174000294B03F0DDFB294DBB692860201C9968FB
:101750004930321C0131264BFF3003F0D1FBA4236A
:101760009B006860E018BB69321C9968214B03310B
:1017700003F0C6FBF6239B00A860E018BB69321C8F
:1017800099681D4B043103F0BBFBA423DB00E86028
:10179000E018BB69321C9968184B023103F0B0FBAA
:1017A00042460223164C2861201C1360FEF720FFDE
:1017B000201CFEF71DFF201CFEF71AFF201CFEF761
:1017C00017FF201CFEF714FF02F09AF80D4803F0F3
:1017D000AFFD04BC9046F0BD640D0020840E0020D7
:1017E000F1160008E80600207C550008680D00206E
:1017F0008055000884550008885500089055000859
:10180000740E00208C550008C046C046C046C04635
:10181000F8B55E4B5F469B4656464D46444601230F
:101820005A46F0B45A4E1360B3695A4D5A4F9968EC
:101830002A1C0539594B381C03F062FBA4235B00BA
:101840009A46B369564C9968BA44206004392A1CF8
:10185000544B504603F054FBB369606099682A1CEE
:101860000339514B514803F04BFBB369A0609968B1
:101870002A1C02394E4B4F4803F042FBB369E0602B
:1018800099684D4B01392A1C4C48994603F038FBA6
:10189000206102F035F84A4B181C984603F048FDC9
:1018A000002805D03CBC90469946A246AB46F8BD00
:1018B00002235A461360B3692A1C99683F480139CC
:1018C0004B4603F01DFBB369206199682A1C02395D
:1018D000374B384803F014FBB369E06099682A1C61
:1018E0000339314B314803F00BFBB369A0609968B1
:1018F0002A1C04392B4B504603F002FBB36960608D
:1019000099682A1C0539254B381C03F0F9FA206028
:1019100001F0F6FF404603F00BFD0028C2D15A4605
:1019200003231360B3692A1C9968504604391D4B80
:1019300003F0E6FAB369606099682A1C0539381C1F
:10194000164B03F0DDFAB369206099682A1C4B46F8
:1019500001391A4803F0D4FAB369206199682A1C46
:101960000239134B134803F0CBFAB369E06099686E
:101970002A1C03390C4B0D4803F0C2FAA06001F099
:10198000BFFF404603F0D4FC8CE7C046640D002046
:10199000840E002011170008E8060020905500086A
:1019A000680D00208855000884550008780900203B
:1019B00080550008C00A00207C550008080C002053
:1019C0008C550008C046C046C046C046C046C0460A
:1019D000F8B501231E4C1F4E23601F4B1F4A9B6905
:1019E0001F489968331C013103F08AFA1D4B1860B7
:1019F0000223236072B602251B4C002702E0012D52
:101A00000ED00125A3680133A360002BF7DC20680A
:101A1000036823605C60FEF73BFE4762012DF0D156
:101A2000FEF776FD62B601F06BFF72B6A0680F4953
:101A3000013842424241D0B202F062FA002801D09D
:101A400062B6F8BD62B6301C03F072FCF9E7C0461E
:101A5000640D00207C550008840E0020F11600085B
:101A6000E8060020680D0020740E00209455000840
:101A700010B5041C72B6084B1868002804D0002268
:101A800042621A60FEF704FEFEF742FD62B620785D
:101A900001F066FF10BDC04630040020C046C046BD
:101AA000FA2008B54000FFF783FA72B6094A936836
:101AB00001339360002B03DDFEF72AFD62B608BDFB
:101AC000106803685A60136000234362FEF7E0FD6C
:101AD000F2E7C046740E0020C046C046C046C0466D
:101AE00070B501238025284EED0533606C6A6420B3
:101AF000FFF75EFA201C211C6430673103F048FCBC
:101B0000002800D070BD0223FA20336080006C6A88
:101B1000FFF74EFAFA239B00E0181C4BE11803F084
:101B200037FC0028EED10323FA20336080006C6A72
:101B3000FFF73EFAFA239B00E018144BE11803F07C
:101B400027FC0028DED10423114833606C6AFFF7BC
:101B50002FFA0F4BE0180F4BE11803F019FC002887
:101B6000D0D1052333606C6A261C643672B6696A6C
:101B7000711A02D00830FFF793F862B6211C301CAE
:101B8000673103F005FCBDE7640D0020EB030000A6
:101B90001027000013270000C046C046C046C046BC
:101BA000F8B546464F460123C0B44B4E336072B67B
:101BB0004A4CA368013B00D58CE00020A36062B6CC
:101BC000474D291C02F09CF9002803D00CBC90461C
:101BD0009946F8BD2368434F181B42424241391CC5
:101BE000D0B202F08DF90028F0D1A06843425841EC
:101BF0003D4BC0B2191C994602F082F90028E5D18C
:101C000002233360394B3A4A9B693A48996800236A
:101C1000013903F075F9384B1860384803F0B8F90A
:101C2000804601F06DFE404643425841291CC0B237
:101C300002F066F90028C9D12368391C181B4242FA
:101C40004241D0B202F05CF90028BFD1A0684946F9
:101C500043425841C0B202F053F90028B6D10323E1
:101C6000336001F03DFE41268046301C01F078FED5
:101C7000FA20400003F08CF9013042424241291C15
:101C8000D0B202F03DF90028A0D12368391C181BFE
:101C900042424241D0B202F033F9002896D1A06806
:101CA000494643425841C0B202F02AF9002800D008
:101CB0008CE70136F6B2462ED7D1114803F038FB37
:101CC000002800D082E70F480F494044414403F008
:101CD0005FFB7BE7012072E7640D0020740E00209B
:101CE000A45500082C5500083C550008840E00201F
:101CF000A11A0008E8060020680D002088130000E3
:101D00008C550008C4090000D8090000C046C04630
:101D1000F0B5012347462D4E2D4D80B43360AB699D
:101D20002C4A99682C4801392C4B03F0E9F82C4BCC
:101D3000186072B62B4CAB6903205C622360FEF71F
:101D40006FFCAB695F6A62B6206843425841264B1C
:101D5000C0B2191C984602F0D3F8002802D004BC87
:101D60009046F0BD78427841204FC0B2391C02F055
:101D7000C7F80028F3D101F0C3FD0223336072B627
:101D80008023DB055E6AAB6919495C62032023602E
:101D9000FEF786FF051C62B6154BF018154BF118BF
:101DA00003F0F6FA0028DAD1236841465842584138
:101DB000C0B202F0A5F80028D1D1013568426841CF
:101DC000391CC0B202F09CF8C9E7C046640D00207F
:101DD000840E0020711A0008E80600207C550008D7
:101DE000680D002030040020BC5500086455000830
:101DF0001027000013270000C046C046C046C0465A
:101E0000F0B54E4645465746E0B4334EB3699C683C
:101E1000A51C9D60314B671C984602234246381C26
:101E20001360FEF79DFB001B434258412C4BC0B290
:101E3000191C994602F064F8002804D01CBC904696
:101E40009946A246F0BDB3699868281A4542684190
:101E5000244DC0B2291C02F053F80028EED1B3691A
:101E60002149D86B381A43425841C0B202F048F8B1
:101E70000028E3D1032342461360E31C181C9A4652
:101E8000FEF76EFB381A474278414946C0B202F06D
:101E900037F80028D2D1B369291C98685346181A1C
:101EA00043425841C0B202F02BF80028C6D1B369B2
:101EB0000E49D86B5346181A43425841C0B202F03B
:101EC0001FF80028BAD104234246136072B6B369E2
:101ED0009C60DC6362B6B1E7840E0020640D0020D4
:101EE000C8550008EC550008085600083056000890
:101EF000234BF0B5454698464E4657460123424689
:101F0000E0B4204E1360B3699D686C1C201CFEF782
:101F100027FB071C401B434258411B4BC0B2191CF6
:101F2000994601F0EDFF002804D01CBC904699466C
:101F3000A246F0BDB3699868201A43425841134B3A
:101F4000C0B2191C9A4601F0DBFF0028EDD1022334
:101F50004246381C1360FEF703FB201A44426041DE
:101F60004946C0B201F0CCFF0028DED1B36951462A
:101F70009868281A45426841C0B201F0C1FFD4E711
:101F8000640D0020840E0020C8550008EC550008A0
:101F90000022024B1B605B609A607047680E002055
:101FA0007047C046C046C046C046C046C046C04650
:101FB000A4210022044B490059604539FF391A60B9
:101FC0009960DA607047C046000F0020C046C046E6
:101FD00010B5CC240722E400A4460020084BD91DEC
:101FE00091435B1A074A6344DB08516090604B6081
:101FF000131C0C3310600860D3601361506110BD76
:10200000E80600203C0F0020C046C046C046C0463F
:10201000F8B53C4B4F469946464601234A46C0B464
:10202000394F1360BB69394C394E9968321C053100
:10203000201C002302F064FF364DBB692860201C81
:1020400099684930321C04310023FF3002F058FFF8
:10205000A4239B006860E018BB69321C99680023C8
:10206000033102F04DFFF6239B00A860E018BB6926
:10207000321C99680023023102F042FFA423DB00E6
:10208000E860E018BB69321C99680023013102F056
:1020900037FF02234A462861136001F021FC8027A4
:1020A000804600241C4D1D4EFF05281C0021FEF714
:1020B00067FC42467B6A01349B1AB342F5D94A4613
:1020C0000323136001F034FC0021281CFEF758FCA8
:1020D00001F016FC4A4604231148136001F070FC1D
:1020E000201C01F0CDFB0F4801F06AFC60000019D4
:1020F000400001F0C5FB0C4801F042FC0CBC9046CE
:102100009946F8BD640D0020840E0020E8060020EA
:1021100031210008680D0020680E00200F27000004
:10212000505600086056000874560008C046C04665
:10213000F8B52123074CA269D35C5B0709D421269B
:102140000425054F381CFEF783FAA3699B5D1D42E9
:10215000F8D0F8BD840E0020680E0020C046C046AE
:10216000F8B55F4656464D4644461A4BF0B49B6957
:1021700080279D68184B00249B4601235A46136014
:1021800001F0AEFB154B82469946154B154E98460D
:102190000135FF0542460023291C484602F0B0FEE7
:1021A000FEF756FB52467B6A01349B1AB342F1D9C3
:1021B0005A4602230C48136001F002FC201C01F077
:1021C0005FFB0A4801F0DCFB3CBC90469946A24606
:1021D000AB46F8BD840E0020640D0020E806002008
:1021E000512C00080F2700005056000880560008A8
:1021F000F8B55F4656464D4644461A4BF0B49B69C7
:1022000080279D68184B00249B4601235A46136083
:1022100001F066FB154B82469946154B154E9846C4
:10222000013DFF0542460023291C484602F068FE96
:10223000FEF776FB52467B6A01349B1AB342F1D912
:102240005A4602230C48136001F0BAFB201C01F02F
:1022500017FB0A4801F094FB3CBC90469946A24605
:10226000AB46F8BD840E0020640D0020E806002077
:10227000512C00080F270000505600088056000817
:10228000F8B5294B4F469946464601234A46C0B405
:102290001360264B264A9B69264899680023013122
:1022A00002F02EFE244B4A4618600223041C1360E1
:1022B00001F016FB802780460025204EFF0572B6F0
:1022C0000021201CFEF764F9201C0021FEF760F9B4
:1022D000201C0021FEF75CF9201C0021FEF758F9B4
:1022E00062B642467B6A04359B1AB342E7D90323A0
:1022F0004A46136072B60121201C4942FEF748F994
:1023000062B601F0FDFA4A4604230D48136001F05D
:1023100057FB680001F0B4FA0A4801F031FB0CBC2D
:1023200090469946F8BDC046640D0020840E0020FA
:1023300051230008E8060020680D00200F27000048
:102340005056000874560008C046C046C046C046F5
:10235000054B10B59C6972B60320FEF761F9636AFC
:10236000002BF9D062B610BD840E0020C046C046D6
:1023700010B501F0BDFE446A72B6211CFEF708F9E3
:1023800062B6002CF5D110BDC046C046C046C0465E
:10239000F8B5041C21260425084FFEF739F8FEF78E
:1023A00037F8FEF735F8FEF733F823680433236077
:1023B000BB699B5D1D42F0D0F8BDC046840E002075
:1023C000F0B5474680B4051C01F08AFA80278046A4
:1023D00000240A4EFF05281C012101F0A9FE4246F7
:1023E0007B6A01349B1AB342F5D9281C002101F005
:1023F0009FFE201C04BC9046F0BDC0460F27000085
:10240000F0B54746012380B42C4E2D4F2D4C3B6038
:10241000B369201C99682C4A0131002302F070FD39
:1024200002232A4D3B602860201CB369493099681B
:10243000274B023998461A1CFF30002302F060FD3A
:10244000A4239B006860E018B369424699680023A2
:10245000033902F055FDF6239B00A860E018B3692C
:10246000424699680023043902F04AFDA423DB00A8
:10247000E860E018B369424699680023053902F024
:102480003FFD0323286128683B60FFF799FF041C88
:1024900001F036FA04230F483B6001F091FA201C4A
:1024A00001F0EEF90C4801F08BFA600001F0E8F958
:1024B0000A4801F065FA04BC9046F0BD840E002085
:1024C000640D0020E806002071230008680D00203C
:1024D000512C0008505600088C560008745600080D
:1024E00038B50123124D134A2B60134B13489B69D7
:1024F00099680023013102F003FD114B186002239B
:102500002B60FFF75DFF041C01F0FAF903230D486F
:102510002B6001F055FA201C01F0B2F90A4801F0D5
:102520004FFA600001F0ACF9084801F029FA38BD13
:10253000640D002071230008840E0020E8060020AE
:10254000680D0020505600088C560008745600088C
:1025500038B50123124D134A2B60134B13489B6966
:1025600099680023013902F0CBFC114B186002235B
:102570002B60FFF725FF041C01F0C2F903230D486F
:102580002B6001F01DFA201C01F07AF90A4801F0D5
:1025900017FA600001F074F9084801F0F1F938BD4C
:1025A000640D002071230008840E0020E80600203E
:1025B000680D0020505600088C560008745600081C
:1025C000012370B53A4E3B48336000233A49C25864
:1025D00072B60C6814600A6062B60433102BF6D130
:1025E000364B374A9B6937489D680323691E336021
:1025F00002F06EFE344CA91E2060344A344802F0CA
:1026000067FEE91E6060334A334802F061FE291F0D
:10261000A060324A324802F05BFE691FE060314A36
:10262000314802F055FE0423336023682061002BFB
:102630003CD06368002B39D0A368002B36D0E0680B
:10264000431E9841C0B2294901F05AFC002800D02D
:1026500070BD2369264958425841C0B201F050FC70
:102660000028F5D10523336001F04AF9214802F032
:102670005FFE0028ECD1062304241F4D336002F0D6
:102680000FFE431E9841291CC0B201F039FC0028FE
:10269000DED1013C002CF2D102F002FE031C5842B4
:1026A00058411649C0B201F02BFCD1E70020CAE71F
:1026B000640D002050580008000F0020840E0020F8
:1026C0007C55000898560008680D002080550008C9
:1026D000A056000884550008A85600088855000830
:1026E000B056000890550008B8560008C0560008BB
:1026F000D8560008F4560008FC5600080C5700088D
:1027000008B5007801F02CF908BDC046C046C046A7
:10271000F8B55C4B4D469B6944469B685F46564600
:1027200099460223F0B4584F00263B60574B0025D2
:102730009846181CFEF784F843460024083B1B68A3
:10274000002B08D0596801346D188E42F7D21B68EF
:102750000E1C002BF6D14046FDF7DAFF601E434207
:1027600058414B49C0B201F0CBFB002805D03CBC1E
:1027700090469946A246AB46F8BD03233B604B46C4
:1027800049305A1E4349444BFF3002F0E9FC434BA9
:102790009A461860431E9841414BC0B2191C9B4693
:1027A00001F0AEFB0028E2D104233B604B464930E8
:1027B0009A1E3C493C4BFF3002F0D2FC5346586015
:1027C000431E98415946C0B201F09AFB0028CED171
:1027D00005234A4680203B603449354B033A0006C6
:1027E00002F0BEFC53469860434258413149C0B2A2
:1027F00001F086FB0028BAD106233B6001F080F887
:102800002D4802F095FD0028B1D1072340463B60DA
:10281000FEF716F800239A46994643460027083BE0
:102820001B68002B0AD001218C465A68E14492446F
:102830009742F5D21B68171C002BF4D14046FDF7D8
:1028400067FF4B46181B444260411C49C0B201F06F
:1028500057FB002800D08AE75346E81AC0004542DB
:1028600068411749C0B201F04BFB002800D07EE759
:10287000F01BC000464270411249C0B201F040FB5B
:1028800075E7C046840E0020640D0020480F00202C
:1028900020570008985600087C550008680D002055
:1028A000C0560008A056000880550008A856000829
:1028B00084550008D85600083057000834570008DF
:1028C0004C57000868570008C046C046C046C0467E
:1028D00008B502F0EDFB024B1B60024B1B6008BD0C
:1028E0000404002000040020C046C046C046C04684
:1028F00008B502F0DDFB08BDC046C046C046C04674
:1029000008B502F0D5FB08BDC046C046C046C0466B
:10291000F0B54E46574645460123E0B4394E8AB0DD
:10292000336072B6384F02933A68023B00926A46AF
:102930003A60364A049392469269019200220392C9
:1029400062B672B6324905AC88460968E260059104
:1029500041460C60514689692361616004218946C2
:10296000A16062B60333336000F0BAFF53469B693F
:10297000051C9968274A0139274B284802F0C0FAFC
:10298000274B18600323336002F0D2FB281C8223FC
:10299000F5309B00FF30E91802F0FAFC002805D062
:1029A0000AB01CBC90469946A246F0BD02F080FBDE
:1029B000031C584258411B49C0B201F0A1FA00283B
:1029C000EED100F09DFF4B46381C69463360FDF7A1
:1029D0000FFD211C4046FDF70BFD3B68124CD81B38
:1029E00043424341211CD8B201F08AFA0028D7D1D2
:1029F00043461A68211CD01A42424241D0B201F02B
:102A00007FFACDE7640D002004040020840E00202E
:102A100000040020814500087C550008E8060020DD
:102A2000680D00208857000894570008C046C0462B
:102A3000012370B54B4D4C4C2B60A26972B6536BA1
:102A4000002B08D162B6494E0120311C01F058FA22
:102A500000280FD070BD5842011C19408B435363AE
:102A600062B648424841414EC0B2311C01F048FABA
:102A70000028EFD1A36972B65A6B002A63D058635D
:102A800062B6311C01F03CFA0028E3D1A36972B6AA
:102A90005A6B01325AD062B60130311C01F030FA63
:102AA0000028D7D102232B60A56972B66B6B002B6F
:102AB00009D1FA21013B6B620A304900FEF7F0F8B8
:102AC000002846DB6B6B5842021C1A4093436B6331
:102AD00062B650425041C0B2311C01F011FA0028D8
:102AE000B8D1A56972B66B6B002B09D1FA21013BF5
:102AF0006B620A304900FEF7D3F800282CDB6B6BC1
:102B000000226A6362B658425841C0B2311C01F0DB
:102B1000F7F9051E00D09DE7A46972B6636B013317
:102B200009D00123FA215B4263620B204900FEF7C2
:102B3000B7F8002813DB0023636362B6281C311C3E
:102B400001F0DEF986E762B601309AE7586362B6B3
:102B5000A3E762B60120BFE762B60120D6E762B6FE
:102B60000135EBE7640D0020840E0020A457000817
:102B7000012370B52C4C05202360FDF729FC0223AE
:102B8000236002F0D5FA0538424242412749D0B2CB
:102B900001F0B6F9002800D070BD02F089FA031CDC
:102BA00058425841224DC0B2291C01F0A9F9002811
:102BB000F2D1032304302360FDF70AFC04232360D1
:102BC00000F08EFE1B4B061C9B691B489A68511E29
:102BD0001A4A02F095F91A4B18600523236002F097
:102BE000A7FA8223041C301C9B00F530FF30F1183B
:102BF00002F0CEFB0028CFD1601F43424341114970
:102C0000D8B201F07DF90028C6D102F051FA031CB8
:102C100058425841291CC0B201F072F90028BBD1BA
:102C200000F06EFEB8E7C046640D0020B4570008FF
:102C300088570008840E0020E8060020C1450008DF
:102C4000680D0020CC570008C046C046C046C046AC
:102C500008B5FDF7ADFE08BDC046C046C046C0463B
:102C60000022024B1B605B609A607047580E002088
:102C70000122024B1B605B609A607047680E002067
:102C800038B50824064B074A9B69074D9A616C8347
:102C90000648FEF78DF92C830448FEF789F9F6E71C
:102CA000840E0020505B00080004004888130000D8
:102CB00038B50123324D33482B6000F081FE74207B
:102CC00000F0DEFD304C201C00F05AFE02232F489D
:102CD0002B6000F075FE442000F0D2FD201C00F0B7
:102CE0004FFE03232A482B6000F06AFE142000F0F8
:102CF000C7FD201C00F044FE042326482B6000F092
:102D00005FFE0C2000F0BCFD201C00F039FE052306
:102D100021482B6000F054FE102000F0B1FD201C73
:102D200000F02EFE06231D482B6000F049FE08200F
:102D300000F0A6FD201C00F023FE072318482B609E
:102D400000F03EFE042000F09BFD201C00F018FE69
:102D5000082314482B6000F033FE142000F090FD8F
:102D6000201C00F00DFE09230F482B6000F028FE08
:102D7000282000F085FD201C00F002FE38BDC04672
:102D8000640D0020585B0008685B0008705B000859
:102D9000805B0008905B0008A05B0008B05B000847
:102DA000C05B0008D05B0008E05B0008C046C0467E
:102DB000F8B51F4B4F469946464601234A46C0B4D4
:102DC000136000F08DFD802780460025194C1A4EB7
:102DD000FF05201CFDF734FD201CFDF799FC201C8D
:102DE000FDF72EFD201CFDF793FC201CFDF728FDB0
:102DF000201CFDF78DFC201CFDF722FD201CFDF79B
:102E000087FC42467B6A01359B1AB342E1D94A46A8
:102E100002230A48136000F0D3FDA80000F030FD43
:102E2000074800F0ADFD0CBC90469946F8BDC04681
:102E3000640D0020580E00200F2700005056000897
:102E4000F05B0008C046C046C046C046C046C0460B
:102E5000F8B51F4B4F469946464601234A46C0B433
:102E6000136000F03DFD802780460025194C1A4E66
:102E7000FF05201CFDF7ECFB201CFDF7B9FB201C17
:102E8000FDF7E6FB201CFDF7B3FB201CFDF7E0FB84
:102E9000201CFDF7ADFB201CFDF7DAFB201CFDF725
:102EA000A7FB42467B6A01359B1AB342E1D94A46E9
:102EB00002230A48136000F083FDA80000F0E0FC44
:102EC000074800F05DFD0CBC90469946F8BDC04631
:102ED000640D0020680E00200F27000050560008E7
:102EE000005C0008C046C046C046C046C046C0465A
:102EF000F8B5214B5F469B4656464D464446012356
:102F00005A46F0B4136000F0EBFC8023DB059946D1
:102F10001A4B824600249846194F1A4E1A4D72B623
:102F20000121381C321C0023FDF772FE1749321CA8
:102F30000023281CFDF76CFE381CFDF729FE281C19
:102F4000FDF726FE62B64B4652465B6A01349B1A79
:102F50004345E4D95A4602230D48136000F030FD82
:102F6000600000F08DFC0B4800F00AFD3CBC904670
:102F70009946A246AB46F8BD640D00200F2700001D
:102F800088050020A11F0008500D00201027000018
:102F900050560008105C0008C046C046C046C046F7
:102FA0002F4BF0B5474698460123424680B4136044
:102FB000002382B0019300F093FC2A4F2A4CBB6996
:102FC0002A4E9968321C01AB0139201C01F098FF90
:102FD000274DBB692860201C99684930321C01AB21
:102FE0000139FF3001F08CFFA4239B006860E018DA
:102FF000BB69321C996801AB013901F081FFF623EE
:103000009B00A860E018BB69321C996801AB0139CC
:1030100001F076FFA423DB00E860E018BB69321CF6
:10302000996801AB013901F06BFF42460223286128
:1030300010481360FDF7BCFF00F07AFC00F060FC64
:10304000032342460C48136000F0BAFC019800F0DC
:1030500017FC0A4800F094FC02B004BC9046F0BD96
:10306000640D0020840E0020E80600209123000853
:10307000680D002010270000505600087456000804
:10308000F0B544465F4656464D46F44BF4499A6ABD
:10309000F0B40A439A629C22996AD2030A409A6267
:1030A0009A6A1A690122002152421A611A69196149
:1030B0001A69EC48DA6880240243DA608022D86812
:1030C000D20302408020DA60DA68DA694005024300
:1030D000E548DA61DA690268640022430260C022CE
:1030E000186A92000240802083B08000824203D0A0
:1030F000802252021A6219628020D84B00021A6A9A
:10310000024207D18022196A9200114319621A6A99
:1031100002431A62C121D54A89005058D44BC027B6
:103120000340C02000020343535020237F00D351AB
:1031300013605358CF48802683460340C0200004C4
:10314000034353504023C020D3511360535800060B
:103150001B021B0A03435350C74BD65198464146A6
:10316000C64B166002C3C54982464B600B1C01204A
:103170000C330872CB600B610021C04BBF4C59610E
:10318000BF4BA162A361636223621033E361231C1E
:1031900030332363636310239C46E462231C64463C
:1031A0009C63B84BB54C5546E363A364636410332A
:1031B0002364B54B2465E364B44B6365231CB44CB2
:1031C0009C65C6239B009946D35844461B021B0AA4
:1031D0002B434D46535180231B05D3511360AD4BF8
:1031E0001D1C10C50C24A04698444446DC601C619C
:1031F000A94C59619C615C621C62A0461024A146E6
:10320000C8444446DC613024A046984444461C63CC
:103210005C6364469C63A14C5D6018729962DB62DA
:10322000A446DC639C645C641024A046C4446446E9
:103230001C649B4C1B65DC649A4C5C65944C9C65DF
:10324000C723FF249B009C46D358A3431C1CC023C8
:103250002343644613518023804C5B05D351136094
:10326000E3690343E361E3698F4B9C4665469B68D2
:103270000343AB6080238D4DDB059D6201256D42CC
:10328000DD6299615963D960596058611860C32340
:10329000AC469B0080259846D3582D061B021B0A7E
:1032A0002B434546535180231B02D3511360804B5F
:1032B00004251A1C1C3299601B605B60DA611A627B
:1032C00062467C4F5A627C4AAC4617607B4F9962DB
:1032D00057607B4A7B4F51601760171C0C37916019
:1032E00017615161D760784AD5612035A84690446E
:1032F000454655622825171CA84610371761142724
:10330000904445469761714F956217629763171C09
:103310001C253C37D763171C156365464037916001
:103320005161D1625563126052601764171C4437B3
:1033300057645122995401329854654A9E63DE665F
:103340001E1C9A641A1C583630329E651E1C1A6167
:103350005A619A6150225D465C3698549966596666
:103360001B645B64DE651E66D9645A4B1A6A15409D
:103370001D6262B672B65848FDF772F80021FDF77B
:1033800007F962B68020800001F06AFD8020C0004D
:1033900001F066FD72B6394B1B7A012B05D18022F4
:1033A000A369D2011343A361A369E121334B49020D
:1033B0005C6D9B6D181C0193FCF70EFF4023E060D1
:1033C00063603F3BA3602E235C22FF3323602B49C5
:1033D0002F3BFF3B23628B5403330B7262B60023F7
:1033E0003E4880213E4A01F08BFD3E4B3E4C9A46C2
:1033F0003E4B3F4E9B46214B3E48236000F0C0FAB7
:103400002A213D4D206801350368DB6898472978FB
:103410000029F7D1394800F0B3FA394800F0B0FA82
:103420002A21384D206801350368DB6898472978E0
:103430000029F7D1344800F0A3FA2A21334D20683F
:1034400001350368DB68984729780029F7D12A25D8
:103450002F4800F095FA291C2E4F5DE00010024025
:10346000FFFFB1FFFFFFBFFF0070004000E100E081
:10347000FF00FFFFFFFF00FFD858000824060020D0
:103480009C0500200406002081030008003801404C
:10349000006CDC0284060020AC050020140600202D
:1034A000710300080044004000580140BF120000B2
:1034B000840E0020600F002034040020001800203B
:1034C000100F002021380008BC050020F13700084B
:1034D0008458000800ED00E0646400084004002007
:1034E000812C00082C0F0020E4060020640D002031
:1034F000FC0E0020986E00081C5C00080C5D0008A3
:10350000245D0008245C0008285D0008385C000881
:10351000405D00084C5C0008206801370368DB68E8
:10352000984739780029F7D10D1C8D4800F028FA0A
:103530008C4800F025FA8C4B1D708C4B994600236B
:1035400001934B461B68002B00D1E7E04C25206817
:103550003D210368013DDB689847002DF7D12068C5
:103560008349036802225B6898473D21814D2068AA
:1035700001350368DB68984729780029F7D1019B5A
:103580000133181C019300F07BF920217A4D20684B
:1035900001350368DB68984729780029F7D14B4645
:1035A0001B681D682978002907D020680135036849
:1035B000DB68984729780029F7D100276F4800F089
:1035C000DFF9B84643469F004B461B685B68DB59F2
:1035D000002B00D19AE000F04BFD2D21684D2068B2
:1035E00001350368DB68984729780029F7D10198ED
:1035F00000F046F920682E210368DB689847012314
:103600009C46E044404600F03BF920215A4D20689A
:1036100001350368DB68984729780029F7D14B46C4
:103620001B685B68DB591D682978002907D0206872
:1036300001350368DB68984729780029F7D14F489E
:1036400000F09EF9FA20C000FDF7B2FC4B461B6863
:103650004C4A5B68DD5953463360002313706B6836
:10366000002B00D09847EB689847AB68002B00D040
:103670009847444B1B78002B6AD02D21424D20687F
:1036800001350368DB68984729780029F7D15B4644
:10369000186800F0F5F820213C4D206801350368DA
:1036A000DB68984729780029F7D133685546534598
:1036B00009D92068013503686A1EDB6811789847CC
:1036C00033689D42F5D35D21314D20680135036893
:1036D000DB68984729780029F7D12E4B1D68297897
:1036E000002907D0206801350368DB6898472978EE
:1036F0000029F7D1284800F043F943469F004B4684
:103700001B685B68DB59002B00D064E704339C46E0
:10371000E1444B461B68002B00D017E700F0A8FCE3
:10372000104800F02DF946211C4D20680135036832
:10373000DB68984729780029F7D10B4B1B78002BC1
:103740000AD1174800F01CF91648FDF731FC52E683
:10375000154800F015F935E7144800F011F9F3E7C2
:10376000B85C0008986E0008580F0020D06400086C
:10377000E45C0008605C0008745C0008E85C000819
:10378000785C0008F80E0020885C0008A05C000847
:10379000A45C0008800E0020EC5C0008A85C000817
:1037A000FC5C000888130000F05C0008045D000861
:1037B0000122034B1A6072B672B672B662B67047D7
:1037C000640D0020C046C046C046C046C046C04644
:1037D00008B5034B302118680368DB68984708BDBB
:1037E000E4060020C046C046C046C046C046C046AB
:1037F00070B50A4C4A1E26684D42731E5B1811189C
:103800002B40294062685918914204D88E4202D850
:10381000181C216070BD0020FCE7C0463404002065
:1038200030B572B60A4B4C1E1D684942AA181219CF
:1038300020180A40084059681018884205D8854267
:1038400003D81860101C62B630BD0020FBE7C046EC
:1038500034040020C046C046C046C046C046C046EC
:1038600008B572B662B672B6FDF7BAFBC30701D4EB
:10387000FDF7A6FB62B608BDC046C046C046C046BE
:10388000F0B5474680B4061C84B0002823D0E84633
:103890006F46301C0A21FCF725FD01373031CCB2D0
:1038A0007D1E301C2C700A21FCF796FC061EF0D100
:1038B00047450CD96B46094E5F1E00E02C783068F6
:1038C000211C0368013DDB689847BD42F6D104B076
:1038D00004BC9046F0BDFFF77BFFF8E7E40600204C
:1038E00008B50120FDF764FB72B68023DB05586A3A
:1038F00062B608BDC046C046C046C046C046C046C7
:1039000070B5074C0026251C14352068002802D00D
:10391000FDF706F826600434AC42F6D170BDC0460F
:10392000680D0020C046C046C046C046C046C046DE
:1039300030B5002321200425064CE258002A04D08B
:1039400072B6115C2943115462B60433142BF4D1BE
:1039500030BDC046680D0020C046C046C046C046C7
:1039600072B6054A054913688B4202D2591C116090
:10397000187062B67047C046FC0E00203C0F002055
:1039800038B50178041C094D002907D02868013496
:103990000368DB68984721780029F7D12868044933
:1039A000036802225B68984738BDC046E4060020E1
:1039B000E45C0008C046C046C046C046C046C0469B
:1039C00038B50178041C002908D0054D2868013459
:1039D0000368DB68984721780029F7D138BDC046D5
:1039E000E4060020C046C046C046C046C046C046A9
:1039F0000122C14B10B5C1481A60FFF7E1FF20203A
:103A0000FFF73EFFBE4C201CFFF7BAFFBD48FFF793
:103A1000D7FFBD48FFF734FF201CFFF7B1FFBB48BD
:103A2000FFF7CEFF2020FFF72BFF201CFFF7A8FF9A
:103A3000B748FFF7C5FF2020FFF722FF201CFFF744
:103A40009FFFB448FFF7BCFF0220FFF719FF201CBF
:103A5000FFF796FFB048FFF7B3FFFFF7B9FE201C52
:103A6000FFF78EFFAD48FFF7ABFFFFF7B1FE201C5D
:103A7000FFF786FFAA48FFF7A3FFFFF7A9FE201C68
:103A8000FFF77EFFA748FFF79BFF0120FFF7F8FE37
:103A9000201CFFF775FFA448FFF792FFFFF798FE81
:103AA000201CFFF76DFFA148FFF78AFF0120FFF7F9
:103AB000E7FE201CFFF764FF9D48FFF781FF012010
:103AC000FFF7DEFE201CFFF75BFF9A48FFF778FF49
:103AD0000120FFF7D5FE201CFFF752FF9648FFF7A5
:103AE0006FFFFFF775FE201CFFF74AFF9348FFF7B3
:103AF00067FF0120FFF7C4FE201CFFF741FF90483D
:103B0000FFF75EFFFFF764FE201CFFF739FF8D48CB
:103B1000FFF756FF0120FFF7B3FE201CFFF730FF31
:103B20008948FFF74DFF0120FFF7AAFE201CFFF791
:103B300027FF8648FFF744FF0120FFF7A1FE201C66
:103B4000FFF71EFF8248FFF73BFF0120FFF798FEBB
:103B5000201CFFF715FF7F48FFF732FF0120FFF71A
:103B60008FFE201CFFF70CFF7B48FFF729FFFFF7B4
:103B70002FFE201CFFF704FF7848FFF721FF0120EC
:103B8000FFF77EFE201CFFF7FBFE7548FFF718FFCE
:103B90000120FFF775FE201CFFF7F2FE7148FFF7CA
:103BA0000FFF0120FFF76CFE201CFFF7E9FE6E48B7
:103BB000FFF706FF0120FFF763FE201CFFF7E0FE82
:103BC0006A48FFF7FDFE0120FFF75AFE201CFFF7B1
:103BD000D7FE6748FFF7F4FE0120FFF751FE201CD7
:103BE000FFF7CEFE6348FFF7EBFE0120FFF748FE2C
:103BF000201CFFF7C5FE6048FFF7E2FE0820FFF734
:103C00003FFE201CFFF7BCFE5C48FFF7D9FE0120F9
:103C1000FFF736FE201CFFF7B3FE5948FFF7D0FE32
:103C20000120FFF72DFE201CFFF7AAFE5548FFF7E5
:103C3000C7FE0120FFF724FE201CFFF7A1FE52481B
:103C4000FFF7BEFE0120FFF71BFE201CFFF798FECA
:103C50004E48FFF7B5FE0120FFF712FE201CFFF7CC
:103C60008FFE4B48FFF7ACFEFFF7B2FD201CFFF7BD
:103C700087FE4848FFF7A4FEFFF7AAFD201CFFF7C8
:103C80007FFE4548FFF79CFEFFF7A2FD201CFFF7D3
:103C900077FE4248FFF794FEFFF79AFD201CFFF7DE
:103CA0006FFE3F48FFF78CFEFF20FFF7E9FD201C69
:103CB000FFF766FE3B48FFF783FE8020FFF7E0FD3D
:103CC000201CFFF75DFE3848FFF77AFEFFF780FD06
:103CD000201CFFF755FE3548FFF772FEFFF778FD11
:103CE000201CFFF74DFE3248FFF76AFEFFF770FD1C
:103CF000201CFFF745FE10BD640D00205C65000828
:103D0000986E00088865000810270000B465000858
:103D1000E06500080C660008386600086466000864
:103D200090660008BC660008E86600081467000892
:103D3000406700086C67000898670008C4670008BF
:103D4000F06700081C6800084868000874680008EC
:103D5000A0680008CC680008F8680008246900081A
:103D6000506900087C690008A8690008D469000847
:103D7000006A00082C6A0008586A0008846A000873
:103D8000B06A0008DC6A0008086B0008346B0008A1
:103D9000606B00088C6B0008B86B0008E46B0008CF
:103DA000106C00083C6C0008686C0008946C0008FB
:103DB000C06C0008C046C046C046C046C046C046AB
:103DC0000122184B10B518481A60FFF7D9FD1748A3
:103DD000FFF7F6FD0120FFF753FD154C201CFFF700
:103DE000CFFD1448FFF7ECFD1348FFF7C9FD13485A
:103DF000FFF7E6FD0620FFF743FD201CFFF7C0FD9F
:103E00000F48FFF7DDFDFFF7E3FC201CFFF7B8FDCF
:103E10000C48FFF7D5FDFFF7DBFC201CFFF7B0FDDA
:103E200010BDC046640D0020EC6C0008206D000839
:103E3000986E00084C6D0008786D0008806D0008D1
:103E4000AC6D0008D86D0008C046C046C046C046EC
:103E500001221C4B10B51C481A60FFF7B1FD1B482E
:103E6000FFF78EFD1A48FFF7ABFD1A48FFF788FDF4
:103E70001948FFF7A5FD1948FFF782FD1848FFF71D
:103E80009FFD1848FFF77CFD1748FFF799FD0420B8
:103E9000FFF7F6FC154C201CFFF772FD1448FFF7E6
:103EA0008FFD0820FFF7ECFC201CFFF769FD11488F
:103EB000FFF786FD0820FFF7E3FC201CFFF760FDFD
:103EC00010BDC046640D0020046E0008306E00086E
:103ED000386E0008646E0008706E00089C6E000862
:103EE000E46E0008106F0008286F0008986E000844
:103EF000546F0008806F0008C046C046C046C046E8
:103F00000023002807D1054A01331370044A1370B7
:103F1000044B19600123181C7047C046F80E00209E
:103F2000580F0020800E0020C046C046C046C04644
:103F300030B50125264C87B02560FDF751F80542C4
:103F400001D1FDF73DF80223236072B6FDF748F872
:103F5000C30701D4FDF734F862B603232360EFF3FF
:103F60001083DB0700D472B6EFF31083DB0700D4B5
:103F700072B662B60423236072B6EFF31083DB07D8
:103F800000D562B6EFF31083DB0700D562B60523D8
:103F900023600023049372B6049B01AC002B02D073
:103FA000201CFCF7F5FD201C01210A4A0023FCF728
:103FB0002FFE62B60A20FCF7FBFF72B6049862B6C9
:103FC000434258410449C0B2FFF79AFF07B030BDE1
:103FD000640D002061380008AC6F0008C046C04680
:103FE00038B501231C4D2B6072B60120FDF700F897
:103FF00062B601246040C0B21849FFF781FF002873
:1040000000D038BD02232B6072B60230FCF7F0FFFF
:1040100062B66040C0B21249FFF772FF0028F0D1CB
:1040200003232B6072B60430FCF7E2FF62B66040F7
:10403000C0B20C49FFF764FF0028E2D104232B60D3
:1040400072B60830FCF7D4FF62B64440E0B20649CD
:10405000FFF756FFD5E7C046640D0020C06F00088B
:10406000D86F0008FC6F000818700008C046C046F2
:1040700038B54C24074D28682D210368013CDB68C6
:104080009847002CF7D128680349036802225B682F
:10409000984738BDE4060020E45C0008C046C046EE
:1040A0000F3011D072B6EFF30983203B83F30988F8
:1040B00080225204DA61064A11689269896892681E
:1040C000914202D8034A9A617047034A9A61FBE71A
:1040D000840E0020C8010008C5010008C046C04683
:1040E000EFF30983203383F3098862B67047C04633
:1040F00010B572B60B4CA3691A1CD86A2C329042C8
:1041000007D00168D9624A6020230D22C25462B6EA
:1041100010BD0E20FCF784FAA3691A1CD86A2C3251
:10412000EFE7C046840E0020C046C046C046C046E9
:104130000C4B10B59C6972B6031C61622C33236072
:10414000036B63601C6020230463C35C0E2B05D0EB
:104150000C20FCF765FA606A62B610BDFCF798FAAD
:10416000F6E7C046840E0020C046C046C046C046A2
:1041700008B5436B194320234163C35C0A2B0BD062
:104180000B2B00D008BD436A19408B42FAD10023A3
:104190004362FCF77DFAF5E7436A0B42F2D0002355
:1041A0004362FCF775FAEDE7C046C046C046C0461C
:1041B0000022064B1B605B60054B1B605B609A60D6
:1041C000044B1B605B609A607047C0462804002067
:1041D0001804002008040020C046C046C046C0465F
:1041E0000022044B1B605B60034B1B605B609A60AA
:1041F0007047C0462804002018040020C046C0466E
:104200000022044B1B605B60034B1B605B609A6089
:104210007047C0462804002018040020C046C0464D
:104220000022024B1B605B609A60704718040020FC
:104230000022044B1B605B609A60034B1B605B6059
:104240009A6070471804002008040020C046C04649
:104250000022024B1B605B609A60704718040020CC
:1042600008B500F025FF08BDC046C046C046C046A0
:1042700008B500F01DFF08BDC046C046C046C04698
:1042800008B500F015FF08BDC046C046C046C04690
:10429000012370B5294C05202360FCF799F802230F
:1042A000236000F02DFF0538424242412449D0B23C
:1042B000FFF726FE002800D070BD00F0F9FE031CB9
:1042C000584258411F4DC0B2291CFFF719FE002863
:1042D000F2D103232360FFF703FB1B4B061C9B69F2
:1042E0001A489A68511E1A4A00F00AFE194B1860C3
:1042F0000423236000F004FF8223041C301C9B0075
:10430000F530FF30F11801F043F80028D4D1601ED9
:10431000434243411049D8B2FFF7F2FD0028CBD108
:1043200000F0C6FE031C58425841291CC0B2FFF7DA
:10433000E7FD0028C0D1FFF7E3FABDE7640D0020D8
:10434000B457000888570008840E0020E8060020B3
:10435000C1450008680D002030700008C046C04606
:1043600008B5FFF7CDFA08BDC046C046C046C046F6
:10437000012370B5354C07202360FCF729F8022390
:10438000236000F0A5FE013842424241304DD0B2D8
:10439000291CFFF7B5FD002800D070BD00F098FE85
:1043A000023842424241291CD0B2FFF7A9FD002841
:1043B000F3D100F08DFE043842424241291CD0B2B4
:1043C000FFF79EFD0028E8D100F072FE031C584262
:1043D0005841204DC0B2291CFFF792FD0028DCD1C6
:1043E00003232360FFF77CFA1B4B061C9B691B48C9
:1043F0009A68511E1A4A00F083FD1A4B1860042374
:10440000236000F065FE8223041C301C9B00F53005
:10441000FF30F11800F0BCFF0028BED1601E4342FF
:1044200043411149D8B2FFF76BFD0028B5D100F028
:104430003FFE031C58425841291CC0B2FFF760FDE3
:104440000028AAD1FFF75CFAA7E7C046640D002058
:104450004470000888570008840E0020E8060020F9
:10446000C1450008680D002030700008C046C046F5
:104470000122F8B50D4B00241A60072501260C4FC8
:1044800002E00134002D0DD02B1CE3401E42F8D079
:10449000331CA3409D43A300201CDB5998470134E3
:1044A000002DF1D1034800F043FFF8BD640D00205A
:1044B000A870000858700008C046C046C046C046F4
:1044C0000221F0B5284C294E8BB02460316072B6C1
:1044D0002368274800936B46236083690022019379
:1044E00001230293023B0392049362B672B62768DB
:1044F000806905AD059725606860A960EA602B6159
:1045000062B672B623681B4F181B431E9841391CB4
:10451000C0B2FFF7F5FC002802D062B60BB0F0BDC8
:1045200062B60323201C69463360FBF761FF72B655
:104530002368391C181B431E9841C0B2FFF7E0FCEA
:104540000028EAD162B60423201C291C3360FBF743
:104550004FFF72B623680849181B43424341D8B243
:10456000FFF7CEFCD9E7C04604040020640D00200C
:10457000840E00205C70000894570008C046C046B6
:1045800008B572B609480021FBF70AFFFBF7C0FF28
:1045900062B6FA204000FCF70BFD72B60448002119
:1045A000FBF7FEFEFBF7B4FF62B608BD0404002073
:1045B00000040020C046C046C046C046C046C046B3
:1045C00010B5041CFA204000FCF7F2FC72B6012181
:1045D000201CFFF7CDFDFBF79BFF62B610BDC04668
:1045E00008B54320FFF7BCF908BDC046C046C04629
:1045F00008B54220FFF7B4F908BDC046C046C04622
:1046000008B54120FFF7ACF908BDC046C046C0461A
:1046100010B5041C4121FFF78BFD201C4221FFF740
:1046200087FD201C4321FFF783FD201C4421FFF759
:104630007FFD10BDC046C046C046C046C046C0460D
:1046400038B50123114C12482360124B04259B6995
:104650009A68511C104A00F053FC104B186002235A
:104660002360FFF745FD446A72B6211CFBF790FFFB
:1046700062B6E0B2013DFFF773F9002DF1D1FFF70B
:104680003FF9074800F054FE38BDC046640D0020D5
:10469000E8060020840E002011460008680D002066
:1046A000F4560008C046C046C046C046C046C04694
:1046B000F8B51A4B1A4C9B691A4E9D680223691C67
:1046C0002360301C184A194B00F01AFC184F0323C2
:1046D0003860301C4930A91C2360164A164BFF3045
:1046E00000F00EFC04232360A4239B00E91C134A62
:1046F0007860F018124B00F003FC0523B8602360CB
:1047000000F0B6FC0623236000F0B2FC0723236010
:10471000FFF7F6F80B4800F00BFEF8BD840E002002
:10472000640D0020E8060020614D00087C5500085B
:10473000680D0020F14D000884550008514700081D
:104740008055000858700008C046C046C046C046A4
:1047500038B5051C054C201CFCF772F82878FFF7CB
:10476000FFF8201CFBF7D4FF38BDC046080400202A
:10477000F8B556464D4644465F46F0B4454D464E64
:10478000AB69464A9C68A31C984602233360444B9D
:10479000671C9946181C391C424B00F0B1FB424B78
:1047A0004146186048469A464930404A404BFF30DF
:1047B00000F0A6FB53465860032333603D4B181CA2
:1047C0009946FCF73DF8AB699868201A4342584176
:1047D000394BC0B2191C9A46FFF792FB002805D04E
:1047E0003CBC90469946A246AB46F8BDFA2004234D
:1047F00080003360FCF7DCFBAB6951469868381ADF
:1048000043425841C0B2FFF77BFB0028E8D10523A3
:1048100033602A4B181C9B46FCF712F8AB695146D3
:104820009868381A43425841C0B2FFF769FB002824
:10483000D6D1FA20062380003360FCF7B9FBAB69C0
:10484000514698684346181A43425841C0B2FFF790
:1048500057FB0028C4D1072358463360FBF758FFA5
:10486000AB6951469868381A47427841C0B2FFF7A1
:1048700047FB0028B4D1082348463360FBF748FFC4
:10488000AB6951469868201A44426041C0B2FFF7B4
:1048900037FBA5E7840E0020640D0020C148000806
:1048A000E80600207C550008680D0020314D000806
:1048B00080550008180400206870000808040020D3
:1048C000FA2010B54000FCF773FB044C201CFBF7EA
:1048D000B7FF201CFBF71CFF10BDC04618040020CA
:1048E0002F4BF0B54E4699469B6945469C682D4B2B
:1048F0005746984602234246E0B413602A4B181CE0
:104900009A46FBF79DFF03234246284D284F13602C
:10491000611C3A1C274B281C00F0F2FA264EA11C01
:104920003060281C49303A1C244BFF3000F0E8FA74
:10493000A4239B00E11C70603A1CE818204B00F097
:10494000DFFAF6239B00211DB0603A1CE8181D4BCE
:1049500000F0D6FAA423DB00611DF0603A1CE818D1
:10496000194B00F0CDFA04234246306150461360E3
:10497000FBF7CEFEFEF7C4FF4B469B6913499868D0
:10498000201A44426041C0B2FFF7BAFA002802D1AF
:104990000F4800F0CDFC1CBC90469946A246F0BDE5
:1049A000840E0020640D002018040020E80600207A
:1049B000E149000890550008680D0020885500085E
:1049C00084550008805500087C5500086870000870
:1049D0008C550008C046C046C046C046C046C046CA
:1049E00038B5051C054C201CFBF72AFF2878FEF77C
:1049F000B7FF201CFBF78CFE38BDC0461804002012
:104A00002B4BF0B5474698460123424680B41360CD
:104A1000284B294D9B69294F9C683A1C611C281C16
:104A2000274B00F06DFA274EA11C3060281C49303E
:104A30003A1C254BFF3000F063FAA4239B00706002
:104A4000E11CE8183A1C214B00F05AFAF6239B00AF
:104A5000B060211DE8183A1C1D4B00F051FAA42348
:104A6000DB00F0603A1CE818611D1A4B00F048FAB0
:104A7000022342463061136072B60225164C6D4225
:104A80002068A04208D0036823605C60FBF700FE4A
:104A900045622068A042F6D1FBF73AFD62B6FEF708
:104AA0002FFF0E4800F044FC04BC9046F0BDC04609
:104AB000640D0020840E0020E8060020F14D00085F
:104AC00090550008680D002088550008845500089E
:104AD000805500087C550008280400208C550008EB
:104AE000284BF0B5474698460123424680B41360F0
:104AF000254B264D9B69264F9C683A1C611C281C3F
:104B0000244B00F0FDF9244EA11C3060281C4930D4
:104B10003A1C224BFF3000F0F3F9A4239B00706095
:104B2000E11CE8183A1C1E4B00F0EAF9F6239B0042
:104B3000B060211DE8183A1C1A4B00F0E1F9A423DB
:104B4000DB00F0603A1CE818611D174B00F0D8F943
:104B5000022342463061136072B600F099FA00F009
:104B600097FA00F095FA00F093FA00F091FAFBF74B
:104B7000CFFC62B6FEF7C4FE0C4800F0D9FB04BCC3
:104B80009046F0BD640D0020840E0020E806002051
:104B9000F14D000890550008680D00208855000868
:104BA00084550008805500087C5500088C55000885
:104BB000F8B55F4656464D464446F0B4524D534C08
:104BC000AB699F680223236000F03AFA504E311C13
:104BD000FFF796F9002805D03CBC90469946A246BE
:104BE000AB46F8BD0323236000F02AFA0123984660
:104BF00043465840474BC0B2191C9946FFF780F90D
:104C00000028E9D104232360434B9A46181CFBF784
:104C10007FFD5346986843425841404BC0B2191C2F
:104C20009B46FFF76DF90028D6D153461A683C49D8
:104C3000D01A42424241D0B2FFF762F90028CBD1EC
:104C400005232360AB6937499868381A42424241CC
:104C5000D0B2FFF755F90028BED10623236000F03B
:104C6000EFF9311CFFF74CF90028B5D100F0E8F955
:104C700043465840C0B24946FFF742F90028ABD13D
:104C8000AE6972B6B36B002B1AD0002290460BE0CF
:104C900002681A605360826B9860DA608363FBF786
:104CA000F7FCB36B002B07D0DA681868B263834255
:104CB000EED142469A60F4E7F36BB360FBF728FC51
:104CC00062B653469868594643425841C0B2FFF70E
:104CD00017F9002800D07FE753461A681049D01A08
:104CE00042424241D0B2FFF70BF9002800D073E7EF
:104CF00007232360AB690B499868381A4342434144
:104D0000D8B2FFF7FDF867E7840E0020640D00209D
:104D10008070000890700008180400209C70000843
:104D20002C55000868700008C046C046C046C04602
:104D300010B50748FCF73CF972B6064C201CFBF78F
:104D400017FD201CFBF7BCFCFBF7E2FB62B610BDB5
:104D5000DC05000008040020C046C046C046C0462E
:104D6000F0B547461D4D80B48046281CFBF768FD12
:104D70001B4E301CFBF764FD72B61A4CA3699F6B87
:104D8000381CFBF79DFC1849A2690B1C516204E01A
:104D9000986884469068844502D31B688B42F7D19B
:104DA00059681360516007200A605A60FBF738FCAD
:104DB000A3695B6A013302D0381CFBF7D9FC62B6E9
:104DC00043461878FEF7CCFD301CFBF7A1FC281CED
:104DD000FBF79EFC04BC9046F0BDC04608040020D2
:104DE00018040020840E002028040020C046C0467D
:104DF000F8B5154D071C281CFBF722FD72B6134BA6
:104E00009C69A66B301CFBF75BFC114A6262131CA9
:104E100003E09968A068814202D31B689342F8D1ED
:104E20005A6823606260072014605C60FBF7F8FB3F
:104E3000301CFBF79DFC62B63878FEF791FD281C0C
:104E4000FBF766FCF8BDC04618040020840E002065
:104E500028040020C046C046C046C046C046C046E2
:104E60000723F0B590215F464D46444656469C4682
:104E70000833F0B40022022501249B46C9050FE047
:104E800047460E6ABE43B046564647463E430E620C
:104E90000E6833402B430B60400828D0AD00013230
:104EA0000442F9D06346261C13409B009E40B24644
:104EB0005E469E40B046261C96404B68B343032690
:104EC0004B608B68994653009E40F3434E461E400C
:104ED0008E60CE681E40CE60072AD1D947464E6A02
:104EE000BE43B046564647463E434E62D0E73CBCC2
:104EF00090469946A246AB46F0BDC046C046C04665
:104F000038B572B6051C441CFF34DC35E061E56041
:104F10006B61194B2A612B62031C02222133FF3380
:104F2000A1601A70021C00232232FF321370A363A7
:104F30006363031C01222333FF33E1631A700F4BB9
:104F40000021A3610E4B5A69236162611461021C46
:104F50005C6194232932FF325B00C250031C96220D
:104F60002D33FF33520083505B60201CFBF710FB96
:104F700062B6201C38BDC046B9010008B4700008F4
:104F8000840E0020C046C046C046C046C046C0464B
:104F900010B5011C72B60D4B00209C68621E9A6011
:104FA000002A01DB62B610BD00290BD0084A586800
:104FB000926950601360536202605A600520FBF7EB
:104FC0006FFEEFE79C600138ECE7C046740E0020EE
:104FD000840E0020C046C046C046C046C046C046FB
:104FE00038B572B6124CA3680133A360002B15DDEF
:104FF000013BA360002B04DBFBF78AFA002062B6BA
:1050000038BD0C4B05209D6963682C606B601D608A
:1050100065606C62FBF704FB686AF0E72068036870
:1050200023605C60FBF734FB00234362A368DFE787
:10503000740E0020840E0020C046C046C046C04604
:1050400072B6074B00209A68002A01D062B67047FA
:10505000044A01309269916B9A60D9609363F5E7D5
:1050600018040020840E0020C046C046C046C0463A
:1050700008B572B6054B1868984205D00268002141
:105080001A605360FBF784FA62B608BD280400205A
:1050900008B5064B1868984206D0026853601A603B
:1050A00000234362FBF7F4FA08BDC0462804002041
:1050B00072B60022024B9B69586B5A6362B6704706
:1050C000840E0020C046C046C046C046C046C0460A
:1050D000094B10B59C6972B6636B002B05D1013B7F
:1050E00063620A20FBF79CFA636B584218408343C3
:1050F000636362B610BDC046840E0020C046C04641
:10510000084B10B59C6972B6606B002806D101236C
:105110005B420A306362FBF783FA606B00236363D0
:1051200062B610BD840E0020C046C046C046C046D0
:105130000A4B10B59C6972B60522111C636B1940AD
:10514000052904D062620B20FBF76AFA636B052223
:105150009343636362B6052010BDC046840E0020F1
:10516000F0B54D4644465F465646F0B48146C41DF0
:10517000484889B00C30019388460092FBF760FBE9
:10518000444BE4081F1D3B680725A446002B15D09F
:105190001A1C1E1C5C680F32611CAA43C900083A25
:1051A00058180836824205D20839981A4018C0109B
:1051B000844538D91F1C3B68002BE9D1354864462B
:1051C0000C30FBF7A5FA334B1B68002B5BD0E000DB
:1051D000082108229847002855D0031C2D4A083B77
:1051E0001A604A46051C5A6043460293009B039589
:1051F0000593294B4D440693019B0495079372B682
:1052000002A8FBF72DF9012221230021C254041C1E
:10521000FBF7BEF962B6201C09B03CBC904699462B
:10522000A246AB46F0BDB2469346261C55466446A0
:105230009A4210D9511BC9105960844208D2611C8E
:10524000E443C900511820184860186808601960C4
:105250000832151C0CE0B44217D09B460134186884
:10526000E4001A191060981A4118C91051603A6088
:105270005B464A465A60074A101C1A600C30FBF71E
:1052800047FA002DB0D10020C6E71A689B463A6065
:10529000EEE7C0463C0F002001270008C046C0468C
:1052A00008B572B6074B1868002803D002681A6068
:1052B00062B608BDDA68002AFAD058689968904743
:1052C000F6E7C046000F0020C046C046C046C046B4
:1052D00070B586B0051C0E1C141CFFF7E1FF0028FA
:1052E0001AD000950D4D01906B6803969C460C4BAF
:1052F000604402900493059472B66846FBF7B0F8D8
:10530000022221230021C2540564041CFBF740F94A
:1053100062B6201C06B070BD0020FBE7000F002025
:1053200001270008C046C046C046C046C046C04629
:10533000F0B50F4E0F4F35683B1C05E014780A7826
:1053400001330130944209D1011C1A1C9D42F5D849
:105350000378002B02D13760002008E001230120F0
:10536000054A1370054A1370054A064B1A60F0BDD2
:10537000FC0E00202C0F0020F80E0020580F0020FB
:10538000BC700008800E0020C046C046C046C04623
:105390008023DB055B6A091A1B1A00208B4208D3A5
:1053A0000123044A01301370034A1370034A044B6B
:1053B0001A607047F80E0020580F0020D0700008C7
:1053C000800E0020C046C046C046C046C046C0460B
:1053D00070B50F2A32D9041C0C430B1CA40731D121
:1053E000151C041C103D2D0901352D0149191E689D
:1053F00026605E6866609E68A660DE681033E660C0
:1054000010349942F3D10F2345191340032B1BD9B4
:105410001C1F0023A4080134A400CE58EE5004330E
:10542000A342FAD1ED18C91803231A4005D000236E
:10543000CC5CEC5401339342FAD170BD051C002AB8
:0C544000F5D1FAE7051CF2E71A1CF8E7AA
:10544C004603000824030008240300084A0300084C
:10545C001A03000812030008240300081A030008AA
:10546C00147100085C0F00205C0F00205C0F002002
:10547C001471000800000000000000000000000093
:10548C001471000800000000000000000000000083
:10549C001471000800000000000000000000000073
:1054AC001471000800000000000000000000000063
:1054BC001471000800000000000000000000000053
:1054CC001471000800000000000000000000000043
:1054DC001471000800000000000000000000000033
:1054EC006E6F742074616B656E000000756E65786C
:1054FC00706563746564206D657373616765000026
:10550C007374696C6C2074616B656E00756E657874
:10551C0070656374656420636F756E7465720000EA
:10552C007175657565206E6F7420656D707479008A
:10553C00636F756E746572206E6F74207A65726F0E
:10554C000000000077726F6E6720636F756E746574
:10555C00722076616C75650077726F6E672072656C
:10556C007475726E6564206D657373616765000098
:10557C004100000042000000430000004400000015
:10558C004142434445000000696E76616C696420B9
:10559C00636F756E7465720077726F6E67207761DA
:1055AC006B652D7570206D65737361676500000008
:1055BC006E6F74204E554C4C00000000756E657873
:1055CC007065637465642072657475726E656420B1
:1055DC007072696F72697479206C6576656C000005
:1055EC00756E6578706563746564207072696F722E
:1055FC00697479206C6576656C000000756E657851
:10560C007065637465642072657475726E65642070
:10561C007265616C207072696F72697479206C6547
:10562C0076656C00756E6578706563746564207260
:10563C0065616C207072696F72697479206C657623
:10564C00656C00002D2D2D2053636F7265203A2060
:10565C00000000002072657363686564756C657387
:10566C002F532C2000000000206374787377632F75
:10567C005300000020746872656164732F5300003E
:10568C00206D7367732F532C2000000064796E31EA
:10569C000000000064796E320000000064796E3303
:1056AC000000000064796E340000000064796E35EF
:1056BC000000000074687265616420637265617437
:1056CC00696F6E206661696C656400007468726550
:1056DC006164206372656174696F6E206E6F7420F3
:1056EC006661696C6564000041424344000000003F
:1056FC00706F6F6C206C69737420656D70747900B9
:10570C00706F6F6C206C697374206E6F7420656D94
:10571C00707479006865617020667261676D656E82
:10572C007465640041420000667261676D656E7459
:10573C006174696F6E206368616E67656400000058
:10574C00746F74616C20667265652073706163653B
:10575C00206368616E676564000000006C617267AD
:10576C0065737420667261676D656E742073697AF7
:10577C0065206368616E676564000000737475630F
:10578C006B206576656E7400737475636B206C6941
:10579C007374656E6572000073707572696F7573E2
:1057AC00206576656E740000756E6578706563743F
:1057BC0065642070656E64696E67206269740000B0
:1057CC006576656E7420666C616773206572726FA6
:1057DC0072000000EC5F00080000000000000000F8
:1057EC00C1440008D45F000881420008000000009A
:1057FC0071440008AC5F0008714200080000000012
:10580C0071430008845F000861420008000000003A
:10581C00914200085C5F00080129000800000000AC
:10582C00712B0008405F0008F12800080000000000
:10583C00312A0008BC610008C113000800000000F8
:10584C00111D0008E806002030080020780900200F
:10585C00C00A0020080C0020B4630008345B000868
:10586C005464000800000000D863000800590008C8
:10587C00C8630008B85900086D61696E00160030E5
:10588C00040444080C1014181C20212200000000F1
:10589C007C630008A85A0008646300086C58000870
:1058AC00FC5A0008145B000844640008245B0008E0
:1058BC000000000034630008AC6400087861000844
:1058CC00A1130008000000002117000800000000D0
:1058DC00E10D0008310F0008510E0008A10F00085F
:1058EC00410E0008910F0008D10D0008210F00088F
:1058FC00910300087C640008B86400088C640008FC
:10590C009C64000800000000E8590008F8590008E1
:10591C00085A0008185A0008285A0008385A000873
:10592C00485A0008585A0008685A00082C650008A4
:10593C000C6500081C65000800000000F85E0008FB
:10594C00D11F00080000000011270008D45E0008D9
:10595C00B11F000800000000C12500089461000878
:10596C00B1130008F113000861160008606100080B
:10597C009113000800000000A11B0008346100080E
:10598C008113000800000000D1190008E460000831
:10599C000000000081150008011400080C610008CB
:1059AC007113000891150008A11500084058000853
:1059BC0000000000CC60000851420008000000000C
:1059CC00E1480008106400084C650008AC60000851
:1059DC00314200086143000871470008BC5E0008B2
:1059EC00000000000000000051250008A45E000823
:1059FC000000000000000000E12400088C5E00089C
:105A0C00000000000000000001240008705E000887
:105A1C00000000000000000081220008505E000819
:105A2C000000000000000000F1210008285E0008C2
:105A3C000000000000000000612100080C5E00085E
:105A4C00911F00080000000011200008E85D00080C
:105A5C000000000000000000A12F0008C05D00083D
:105A6C000000000000000000F12E00086460000837
:105A7C000142000800000000E14A00081C63000815
:105A8C000000000000000000513E000810630008F8
:105A9C000000000000000000C13D0008C0590008D3
:105AAC00D8590008D45A0008785A0008C45A00087B
:105ABC00E45A00080000000040600008E1410008C2
:105ACC0000000000014A0008846000082142000820
