:020000040800F2
:10000000000400200101000801050008B1100008EB
:10001000B1100008B1100008B1100008B1100008BC
:10002000B1100008B1100008B1100008B1100008AC
:10003000B1100008B1100008B1100008B11000089C
:10004000B1100008B1100008B1100008B11000088C
:10005000B1100008B1100008B1100008B11000087C
:10006000B1100008B1100008B1100008B11000086C
:10007000B1100008B1100008B1100008913000085C
:10008000B1100008B1100008B1100008B11000084C
:10009000B1100008B1100008B1100008B11000083C
:1000A000B1100008B1100008B110000801380008B4
:1000B000B1100008B1100008B1100008B11000081C
:1000C0000000000000000000000000000000000030
:1000D0000000000000000000000000000000000020
:1000E0000000000000000000000000000000000010
:1000F0000000000000000000000000000000000000
:1001000072B6224880F30988022080F31488BFF376
:100110006F8F03F08DF800F0D3FF1D481D491E4A74
:10012000914202DA08600431FAE71C49174A914209
:1001300002DA08600431FAE719491A4A1A4B9A425E
:1001400004DA0868106004310432F8E70020174927
:10015000174A914202DA08600431FAE703F008F81E
:1001600003F05EF8134C144DAC4203DA2168884763
:100170000434F9E707F0B4FD104C114DAC4203DA3A
:10018000216888470434F9E70E4908470006002033
:1001900055555555000000200004002000040020A3
:1001A000C896000800060020B8060020B806002007
:1001B00020170020000100080001000800010008CD
:1001C00000010008113200080000000000000000DB
:1001D000F0B544464D4656465F46F0B46B46CB609C
:1001E000C3689D46F0BCA046A946B246BB46F0BDDA
:1001F00003F0BEFB62B6281CA047002000F0C0FF41
:1002000003F04EFC00F0B4FF03F0B2FB014A024BD6
:100210001360FEE704ED00E0000000800000000035
:10022000002934D00123002210B488422CD30124A9
:100230002407A14204D2814202D209011B01F8E73E
:10024000E400A14204D2814202D249005B00F8E7F7
:10025000884201D3401A1A434C08A04202D3001B23
:100260005C0822438C08A04202D3001B9C08224356
:10027000CC08A04202D3001BDC082243002803D094
:100280001B0901D00909E3E7101C10BC70470028C6
:1002900001D00020C04307B4024802A140180290D8
:1002A00003BDC0461D0000000029F0D003B5FFF7D4
:1002B000B9FF0EBC4243891A1847C046000000002F
:1002C0007047C04600000000000000000000000071
:1002D00006480749074B00221B605B6000604060D6
:1002E0008260096049608A607047C04694060020B9
:1002F0007806002070060020C046C046C046C046B2
:100300000448054B00221B605B6000604060826017
:100310007047C0469406002070060020C046C046C4
:100320000448054B00221B605B60006040608260F7
:100330007047C0469406002070060020C046C046A4
:10034000024B00221B605B609A607047940600209D
:10035000044B054800221B605B609A6000604060AF
:10036000826070479406002078060020C046C04690
:10037000024B00221B605B609A607047940600206D
:10038000024B00221B605B609A607047E40D002006
:10039000094B0A4A181C1A60DA609A6014321C3041
:1003A0005A601A1C1032D861186205210020596267
:1003B0001A615A619861704700060020B806002053
:1003C000024B00221B605B609A607047A40600200D
:1003D000024B00221B605B609A607047A4060020FD
:1003E000024B00221B605B609A607047A4060020ED
:1003F000024B01221B605B609A607047480D002031
:10040000024B00221B605B609A607047480D002021
:10041000034BA821002248001A6058609A60704778
:10042000780D0020C046C046C046C046C046C04603
:10043000034BA821002248001A6058609A60704758
:1004400088060020C046C046C046C046C046C046DA
:100450007047C046C046C046C046C046C046C046BB
:10046000074B0848042208499A60D860986158618F
:10047000002204301B605B601861D9611A6270470A
:1004800028060020B806002051040008C046C046D7
:10049000074B084A08480021DA609A615A61043221
:1004A0001B605B6099601A61D86119627047C04631
:1004B0004C060020B806002051040008C046C04683
:1004C0007047C046C046C046C046C046C046C0464B
:1004D00000207047C046C046C046C046C046C04621
:1004E000014B01221A707047180E0020C046C0460A
:1004F000024B802219680A431A6070470038014095
:10050000EFF30983203383F3098862B67047C0464E
:10051000FEE7C046C046C046C046C046C046C046CC
:10052000002804D00023006040608360704772B6EA
:10053000014A0248C262FEE7F08E00084010002027
:1005400008B50748074B0022D1210260C2601A603B
:10055000CA0083605A601030FFF7E2FF08BDC04652
:10056000880D0020B8060020C046C046C046C046E0
:10057000054B1A6B002A02D1586B002803D072B6C3
:100580000249D962FEE770474010002070840008DD
:10059000054B1A6B002A02D1586B002803D072B6A3
:1005A0000249D962FEE770474010002078840008B5
:1005B000064B1A6B002A02DD586B002803D072B676
:1005C000034ADA62FEE701215963704740100020B8
:1005D00080840008C046C046C046C046C046C046EB
:1005E000064B1A6B002A05DD586B002802DD00213E
:1005F0005963704772B6024ADA62FEE74010002083
:1006000088840008C046C046C046C046C046C046B2
:1006100072B6074B1A6B002A02DB596B002903D014
:1006200072B60448D862FEE701321A6362B67047B8
:100630004010002090840008C046C046C046C04616
:1006400072B6074B1A6B002A02DD596B002903D0E2
:1006500072B60448D862FEE7013A1A6362B6704780
:100660004010002098840008C046C046C046C046DE
:10067000054B1A6B002A03DB586B002800DD70471E
:1006800072B60249D962FEE740100020A08400083B
:1006900010B5041CFFF7ECFFE30712D52049002337
:1006A0000A688A4203D0126801338A42FBD1486843
:1006B000884203D04068013B8842FBD10120002BD7
:1006C0002BD1A30715D516490023081CCA691C3075
:1006D000824203D0126801338242FBD1086A1C3186
:1006E000884203D04068013B8842FBD10120002BA7
:1006F00013D10020630710D5094C2169A1420DD008
:1007000009690130A142FBD16369A34203D05B694F
:100710000138A342FBD1431E984110BD0020F3E7EE
:1007200040100020C046C046C046C046C046C04635
:1007300010B5041CFFF79CFF002C19D02023E25CAD
:10074000002A10D00F2A0ED00020E054A2680B4BD4
:100750001B6899689142FBD258682360606004600E
:100760005C60201C10BD72B6054C044AD462FEE7E2
:1007700072B60349014BD962FEE7C0464010002023
:1007800040840008C046C046C046C046C046C04679
:1007900038B5041C0D1CFFF76BFF002C1CD0A16B9F
:1007A00020232943A163E05C0A280CD00B2800D049
:1007B00038BD626A11408A42FAD100216162201C70
:1007C000FFF7B6FFF4E7656A0D42F1D000216162E0
:1007D000201CFFF7ADFFEBE772B6024C024BDC6268
:1007E000FEE7C0468085000840100020C046C04695
:1007F00008B5FFF73DFF064B1868984206D002681F
:1008000000211A6053604162FFF792FF08BDC046A5
:1008100070060020C046C046C046C046C046C0461E
:1008200038B5041C0D1CFFF723FF002C05D0002D4C
:1008300003D023682B60256038BD72B6014A024898
:10084000C262FEE73084000840100020C046C04667
:10085000054B1A6B002A03D1586B002800DD704746
:1008600072B60249D962FEE740100020A884000851
:100870008023DB05DA68910701D55863704772B6AB
:1008800001480249C862FEE7908500084010002038
:1008900010B5041CFFF7ECFE002C30D0E0680028F7
:1008A00032D01F4BD969A1420ED060682268002166
:1008B000026022681C335060E1609A4203D0A46851
:1008C00093681819906010BD0A681C1C1C34002025
:1008D000DA615460C860A2421DD0946889689B6A3E
:1008E000091991608022D005446AE21A9142EAD93E
:1008F000891A01290DD90819FFF7BAFFE3E772B683
:10090000084C074BDC62FEE772B6064A0449CA622D
:10091000FEE70221EFE78024E305D860D3E7C04675
:1009200040100020A0850008C046C046C046C04612
:10093000F8B5041C0E1C151C1F1CFFF799FE002C9B
:1009400003D0002D01D0002E04D172B6254D264EC5
:10095000F562FEE78023D8052761E560426A012E33
:1009600021D9214D291CEF691C318F4222D0B018AA
:10097000AB6ABA68C61A96422DD3E8698768BE4248
:1009800004D90068F61B8768B742FAD34168A660AD
:10099000206061600C60446084680122A31B5642A1
:1009A00083606E62F8BD104D0226291CEF691C3170
:1009B0008F42DCD18020AA62EC612C6227606760E4
:1009C000A660C405E3680221B7180B4006D167632F
:1009D0002361E160E6E7FFF74BFFCEE772B6034A1B
:1009E000EA62FEE76084000840100020508400089E
:1009F000F0B556464D4644465F46F0B40723022103
:100A00000F2590260327994683B000220124A8468B
:100A1000F305BC468A4608E01D6A019EBD432E438D
:100A20001E6240082CD0890001320442F9D04D46A4
:100A30001540AD00261CAE4047460196AF405E68AB
:100A4000251C9540AE435E609E686546B3465600E1
:100A5000B540ED435E462E409E60DE682E40DE606F
:100A6000022914D01E6835400D431D60072AD3D9D2
:100A70005D6A4008BD43019F2F435F620028D2D1C9
:100A800003B03CBC90469946A246AB46F0BD072A4F
:100A90000BD81E6ABE43371C019E3E431E621F6870
:100AA00056463D4035431D60BBE75E6ABE43371C7A
:100AB000019E3E435E62F2E7C046C046C046C04665
:100AC000F0B51F4A474680B4804617681D489446D3
:100AD0003C1A031CE40714D5B84214D20E780578EA
:100AE000431C0131B5420CD016E01C780A785E1C1C
:100AF0004D1C944210D15C784A78731C691C944256
:100B00000AD1BB42F1D3097800290FD162461060A7
:100B1000002004BC9046F0BD0B480C4F0C4E012148
:100B200045460170397035600120F2E70648074FED
:100B3000074D0123444603703B702C600120E8E719
:100B4000B80F0020A8150020800F0020B00F002053
:100B5000B40F0020C046C046C046C046C046C0468E
:100B60000022002907D1054A0549012313700B70A3
:100B7000044B01221860101C7047C046B00F0020C3
:100B8000800F0020B40F0020C046C046C046C046BB
:100B900038B50178041C094D002907D028680134B4
:100BA00003689A68904721780029F7D128680222C3
:100BB00001680C680249A04738BDC046BC0F002040
:100BC000B0840008C046C046C046C046C046C046C5
:100BD00038B50178041C002908D0054D2868013477
:100BE00003689A68904721780029F7D138BDC0463C
:100BF000BC0F0020C046C046C046C046C046C046E6
:100C0000F0B5474680B4041C84B000283BD06F4642
:100C10006D46201C0A21FFF747FB0E1C3036F6B24A
:100C20002E70201C0A21FFF7FBFA0135041EF0D1BB
:100C3000BD4224D9012358426844AC1E154F80465A
:100C4000E30715D4386801688A68311C9047386812
:100C50002678EC1E0568311CAB68984744450ED0D9
:100C6000386821780268661E9568A8473678023C85
:100C70003868311C0568AB6898474445F0D104B02A
:100C800004BC9046F0BD034F386801688C68302181
:100C9000A047F4E7BC0F0020C046C046C046C0468F
:100CA00010B52E48FFF794FFAD20C000FFF7A8FF56
:100CB0002B4C201CFFF76CFF2A48FFF789FF4820C8
:100CC000FFF79EFF201CFFF763FF2748FFF780FF19
:100CD0001420FFF795FF201CFFF75AFF2348FFF76A
:100CE00077FF0C20FFF78CFF201CFFF751FF2048F7
:100CF000FFF76EFF0420FFF783FF201CFFF748FF7C
:100D00001C48FFF765FF1420FFF77AFF201CFFF750
:100D10003FFF1948FFF75CFF1020FFF771FF201C11
:100D2000FFF736FF1548FFF753FF0820FFF768FF6E
:100D3000201CFFF72DFF1248FFF74AFF2420FFF782
:100D40005FFF201CFFF724FF0E48FFF741FF28201C
:100D5000FFF756FF201CFFF71BFF10BDB4840008EF
:100D6000C4840008CC840008DC840008EC840008FB
:100D7000FC8400080C8500081C8500082C850008F0
:100D80003C8500084C850008C046C046C046C046A9
:100D900038B50B4D4C2428682D210368023C9A6815
:100DA0009047286801688B682D219847002CF2D164
:100DB00028680449046802222568A84738BDC0464F
:100DC000BC0F0020B0840008C046C046C046C046E4
:100DD0000F3011D072B6EFF30983203B83F30988FB
:100DE00080225004064AD861116890698968826837
:100DF000914202D803489861704703499961FBE723
:100E0000401000200C02000801020008C046C04645
:100E10000B4A8021C905D36B496A196091695960F1
:100E2000416A99602021405C88211873C800103302
:100E300011188B4201D3131C4033D3637047C04653
:100E400040100020C046C046C046C046C046C0460E
:100E500070B5051C0E1CFFF7FBFC174CA06922683F
:100E60008368A24202D091688B4220D36E62AE6842
:100E70009E4218D9FFF75CFC2022061C0120A854D2
:100E8000A561301CFFF7C4FFEFF30983F169243B30
:100E9000994204D8281C311CFFF79AF970BD72B62C
:100EA000064DE562FEE7281CFFF742FCF6E772B646
:100EB000034EE662FEE7C046401000205C85000855
:100EC000B0850008C046C046C046C046C046C046C1
:100ED00070B5061CFFF7BCFC0E4C20222368A569E8
:100EE00019680120AE544C6098542160A361281CFD
:100EF000FFF78EFFEFF30986EA69243EB24204D879
:100F0000291CA069FFF764F970BD72B6024DE56255
:100F1000FEE7C046401000205C850008C046C04681
:100F2000F0B54746404E80B4051CB469FFF790FC0D
:100F3000002D36D0AB68002B3ED0A1689A682020E7
:100F400084468A4213D299606746D85D06284ED0FF
:100F5000072838D000280AD15F6818680121386056
:100F6000202299541968181C4F60FFF7E1FB291CD7
:100F70002B1C1B689D4204D09F68A0688742F8D252
:100F8000191C4A682160626014604C60656206202A
:100F9000FFF79EFFAB68A34207D072B6234FF762FC
:100FA000FEE772B62148F062FEE7E46BAC4207D080
:100FB00072B61E4DF562FEE7E16BAC60E960E56379
:100FC00004BC9046F0BD5A681F68176018684260FC
:100FD0005A6A101C0068824203D087688F42F9D297
:100FE000021C51681A6059600B605360BFE75F686C
:100FF000186838601A6857605A6A9046101C126860
:10100000904503D097688F42F9D2101C4168186050
:1010100059600B60436043469B68A1689A688A42A6
:1010200000D290E7A3E7C04640100020708500087A
:1010300070B50C1C86B0061CFFF70AFC631C15D0AB
:101040000D4D211CAB690D4A01A8FFF771FC301C46
:10105000FFF73EFFFFF70CFB049B002B02D001A81B
:10106000FFF716FCA869406A06B070BD301CFFF798
:101070002FFF014DF6E7C04640100020912F0008D9
:1010800008B500290AD0074B42689B6918605A606E
:10109000136043600420FFF7CBFF08BD01204042EE
:1010A000FBE7C04640100020C046C046C046C046D0
:1010B000FEE7C046C046C046C046C046C046C04621
:1010C0002748012302680221134303600368244A6E
:1010D0001942FBD050680321884350605368101CAC
:1010E00053600C2143681E4A0B40FBD11168F92064
:1010F000014011605360516B01230B435363022085
:10110000536B17491842FBD04A6A012010434862CA
:1011100002204B6A124A1842FBD0A0218803002308
:101120005060D36213631168802043040B43802115
:101130001360880413680A490342FBD0094811224E
:1011400002604A68022313434B600C204B68044A38
:101150000340082BFAD19169012008439061704740
:101160000010024000200240C046C046C046C046B3
:1011700008B502F055F908BDC046C046C046C04695
:1011800070B5061C72B602F08BFC0F4DAC6966623E
:10119000A06A261C2836B04206D00368A362FFF777
:1011A000C7FAA06AB042F8D12120215C8A0704D195
:1011B000666922693261246966610F20FFF788FE43
:1011C00072B6024BEB62FEE740100020C0850008BB
:1011D00008B5FFF7D5FFC046C046C046C046C0466A
:1011E00030B587B003AD002303956D60AB6072B678
:1011F00002F056FC281C002102F08AFA02F040F9A5
:1012000002F0B6FBB34C2068A04204D0A269836808
:101210009168994252D362B672B602F041FCFFF770
:1012200027FAA868421E1043C10F0120FFF798FC5F
:1012300000280CD002F09CFB2368A34204D0A169D3
:101240009A688D6895423DD362B607B030BD02F012
:101250008FFB2168A14205D0A3698A6898689042F3
:1012600000D21BE162B6A169A8238A689A48590096
:10127000013A9A4B009501F0EBFD994A1060281C49
:1012800001F046F972B602F00BFCFFF7F1F9A8681D
:10129000411E0843C10F0220FFF762FC002815D051
:1012A00002F066FB2068A042CED0A36985689968E9
:1012B000A942C9D272B68B4AE262FEE772B68A4B85
:1012C000E362FEE772B68748E062FEE702F050FB99
:1012D0002368A34205D0A26999689068884200D229
:1012E000E0E062B672B602F0DBFBFFF7C1F9AB6873
:1012F000002B02DC281C02F05BF902F0C1F802F0BE
:1013000037FB2068A04205D0A269836891689942A2
:1013100000D2CBE062B672B602F0C2FBFFF7A8F9CA
:10132000A868C217111AC90F0320FFF719FC00287B
:101330000FD002F01DFB2568A54200D184E7A26909
:10134000AB689068984200D37EE772B66549E16267
:10135000FEE702F00DFB2368A34205D0A06999685F
:1013600082688A4200D2A5E062B672B602F098FBAB
:10137000FFF77EF9A968042001394B425941FFF774
:10138000EFFB00280FD002F0F3FA2168A14200D150
:101390005AE7A2698B6895689D4200D354E772B6FC
:1013A0005048E062FEE702F0E3FA2368A34205D06A
:1013B000A069996882688A4200D27FE062B672B6FC
:1013C00002F06EFBFFF754F9AB68002B02DC281C1F
:1013D00002F0EEF802F054F802F0CAFA2068A042D7
:1013E00004D0A2698368916899426BD362B672B6E1
:1013F00002F056FBFFF73CF9A868C217111AC90F93
:101400000320FFF7ADFB00280FD002F0B1FA2368EC
:10141000A34200D118E7A069996882688A4200D384
:1014200012E772B62F4DE562FEE702F0A1FA2368DB
:10143000A34204D0A069996882688A4246D362B602
:1014400072B602F02DFBFFF713F9A96805200139E8
:101450004B425941FFF784FB00280FD002F088FA75
:101460002568A54200D1EFE6A369AA689868904272
:1014700000D3E9E672B61B49E162FEE702F078FAB2
:101480002568A54200D1DFE6A369AA689868904262
:1014900000D3D9E672B61349E162FEE772B611488D
:1014A000E062FEE772B60F4AE262FEE772B60D4DE9
:1014B000E562FEE772B60B49E162FEE772B60948E3
:1014C000E062FEE772B6074BE362FEE772B6054DD7
:1014D000E562FEE740100020B8060020116D00080C
:1014E000B8150020D085000800860008C046C04618
:1014F00070B582B072B602F0D3FAFFF7B9F8D74DE3
:1015000000216869AA69904200D1D7E10120FFF764
:1015100027FB002800D0ADE102F02AFAD04C236866
:10152000A34205D0A16998688E68864200D2C1E1C5
:1015300062B60122281C4121524204F039FE0123E7
:101540005A42281C4221012604F032FE7242281C15
:10155000432104F02DFE0122281C4421524204F0B4
:1015600027FE72B602F09CFAFFF782F8A968022003
:101570004B425941FFF7F4FA002800D088E102F00D
:10158000F7F92168A14205D0A0698B6886689E4260
:1015900000D297E162B672B602F082FA281C01F01E
:1015A0004FFEC6B202F0E4F92168A14205D0A2695B
:1015B0008B689068984200D2DDE162B6301C03F07F
:1015C0008FFD72B602F06CFA281C01F039FEC6B22B
:1015D00002F0CEF92168A14205D0A2698B6890681B
:1015E000984200D2C7E162B6301C03F079FD72B6B2
:1015F00002F056FA281C01F023FEC6B202F0B8F938
:101600002168A14205D0A2698B689068984200D2F7
:10161000B1E162B6301C03F063FD72B602F040FA2D
:10162000281C01F00DFEC6B202F0A2F92168A14209
:1016300005D0A2698B689068984200D29BE162B69F
:10164000301C03F04DFD72B602F02AFAFFF710F8D5
:101650006E69AA690021964200D188E10320FFF754
:101660007FFA002800D08AE102F082F92168A142C5
:1016700005D0A0698B6886689E4200D28FE162B671
:1016800004207849FFF71CFA002800D0FEE072B66B
:1016900002F006FA281C01F0D3FDC11C4B4259414F
:1016A0000520FFF75DFA002800D04CE102F060F958
:1016B0002168A14205D0A2698E689068B04200D22C
:1016C00051E162B6684EA823590071180023281C06
:1016D000082202F085FB011F4B4259410620FFF70B
:1016E0003FFA002800D0D1E072B602F0D9F9FEF737
:1016F000BFFFA96807204B425941FFF731FA002884
:1017000000D00EE102F034F92068A04205D0A269B1
:1017100083689168994200D211E162B6A069002104
:101720008268A823009101325900301C4F4B01F010
:101730008FFB4F4A106072B602F0B2F9FEF798FFC5
:101740002869E968AB68421AD11A04394B425941F9
:101750000820FFF705FA002800D0C8E002F008F9D9
:101760002368A34205D0A0699A688168914200D29B
:10177000CBE062B600F0DCF972B602F091F9FEF748
:1017800077FFEB682869AB61C11A281C6B61A960FF
:1017900001F0C6FD02F0ECF82368A34205D0A2696F
:1017A00099689068884200D2B3E062B672B602F0DF
:1017B00077F9FEF75DFFE8682A69AB68111AC91A64
:1017C0004B4259410920FFF7CBF9002800D07DE0BA
:1017D00002F0CEF82368A34205D0A2699968906808
:1017E000884200D299E062B65136FF36311C0023A0
:1017F000281C022202F0F4FA811E4B4259410A20B1
:10180000FFF7AEF9002841D1311C0023281C022229
:1018100002F0E6FA811E4B4259410B20FFF7A0F976
:10182000002833D172B602F03BF9FEF721FFA96818
:101830000C204B425941FFF793F9002854D102F094
:1018400017F9281C00210A2204F0B2FC411C4B426B
:1018500059410D20FFF784F918E0C0462806002002
:1018600040100020E0850008B806002071620008E2
:10187000B815002002F07CF84B4C2068A04204D040
:10188000A26985689168A94210D362B602B070BDA2
:1018900002F06EF82068A042F7D0A26985689168CE
:1018A000A942F2D272B6414EE662FEE772B63F4EF0
:1018B000E662FEE772B63D4BE362FEE7A9684B1EA7
:1018C000994123E672B6394BE362FEE702F050F825
:1018D0002668A642D9D0A369B0689A688242D4D259
:1018E00072B63249E162FEE702F0C2F8CEE702F0DA
:1018F0003FF82368A342C8D0A269996890688842DB
:10190000C3D272B6294DE562FEE772B6274EE66293
:10191000FEE772B6254DE562FEE772B6234DE5623D
:10192000FEE702F025F82368A342AED0A2699968C9
:1019300090688842A9D272B61C4DE562FEE772B685
:101940001A4EE662FEE702F013F82368A34200D1C4
:101950009BE7A26999689068884200D395E772B6C0
:10196000124DE562FEE772B6104EE662FEE7A96828
:101970004B1E994172E672B60C4EE662FEE701F02C
:10198000F7FF2368A34200D17FE7A26999689068B6
:10199000884200D379E772B6044DE562FEE772B67D
:1019A000024EE662FEE7C04640100020F0850008C7
:1019B00070B5041C72B602F073F82222A35C002BEF
:1019C00015D0013BD8B2A054002803D12021655C7A
:1019D0000F2D15D001F0CCFF2F4C2068A04204D071
:1019E000A16986688D68B54206D362B670BD72B6CD
:1019F0002A48294BD862FEE772B6294BE362FEE71C
:101A00002126A35D03221340012B28D0022BE1D114
:101A10006069226902612169486101F0A9FF1E4DD8
:101A20002E68AE4204D0AB69B268986890422BD35E
:101A300062B6666C72B602F033F8211C301CFEF7F9
:101A4000EFFE01F095FF2C68AC42CED0A969A368E7
:101A500088689842C9D272B6124AEA62FEE765699E
:101A6000216929612069456101F082FF0A4B1A68EA
:101A70009A4204D09E699168B5688D4208D362B6D7
:101A8000201C00F085FFB1E772B6054EEE62FEE75E
:101A900072B6034CDC62FEE740100020408600086E
:101AA000A086000880890008C046C046C046C046DF
:101AB00070B5041C72B6002830D001F0F1FF194D4A
:101AC000AB69A34226D02222A05C00281ED0202190
:101AD000665C0F2E05D0A26A09201A60A362FFF788
:101AE000F7F9666A01F044FF2B68AB4204D0A8699D
:101AF0009A688168914205D362B6201CFFF758FFAF
:101B0000301C70BD72B6084CEC62FEE772B6074E30
:101B1000EE62FEE772B6054BEB62FEE7034D01484D
:101B2000C562FEE740100020008B00081086000808
:101B300010B5124C2068002803D0FFF7B9FF00232E
:101B400023606068002803D0FFF7B2FF00206060C8
:101B5000A068002803D0FFF7ABFF0021A160E06878
:101B6000002803D0FFF7A4FF0022E26020690028CC
:101B700003D0FFF79DFF0023236110BDB81500209F
:101B8000F0B547464E4C80B4A0694E4E4E4B82682D
:101B900082B00027A821984605320097181C4900FA
:101BA000331C01F055F9494DA269286092684046FE
:101BB000A823513059000432331C0097FF3001F044
:101BC00047F9A2696860A82092688100081CA823D0
:101BD00059000332331C0097404401F039F9A269DF
:101BE000A860FC2092688100081CA82359000232DA
:101BF000331C0097404401F02BF9A269E860A8204B
:101C00009268C100081C0097A8277900331C013294
:101C1000404401F01DF9286100F072FD03F088FED8
:101C20002B4E2C4F002572B601F03AFF301C0021DC
:101C300001F06EFD01F024FC01F09AFE2368A3423E
:101C400004D0A0699A688168914231D362B63B782A
:101C50000135002BE7D002F043F872B601F020FF07
:101C6000301C002101F054FD01F00AFC01F080FE5F
:101C70002668A64204D0A769B168B86888421BD319
:101C800062B6FFF755FF1448FEF7A2FF6C00281C50
:101C9000FEF7B6FF65191148FEF79AFF6800FEF7D8
:101CA000AFFF0F48FEF774FF02B004BC9046F0BDD2
:101CB00072B60C4BE362FEE772B60A4AE262FEE7D6
:101CC00040100020C1250008B8060020B8150020EB
:101CD000480D0020180E002050860008608600087D
:101CE0007486000800860008C046C046C046C0464C
:101CF000F0B5304C83B0A36900209A68A821490050
:101D00002D4B013200902D4801F0A2F82C4A051C01
:101D1000106000F0F5FC03F00BFE2A4F002672B6AF
:101D200001F0BEFE281C0021FFF792F8281C0021BC
:101D3000FFF78EF8281C0021FFF78AF8281C0021E5
:101D4000FFF786F801F014FE2368A34204D0A069CF
:101D50009A688168914224D362B63B780436002B9E
:101D6000DDD072B601F09CFE281C01256942FFF708
:101D70006FF801F0FDFD2768A74204D0A069BA689A
:101D80008168914211D362B6FFF7D2FE0E48FEF78A
:101D90001FFF7000FEF734FF0C48FEF7F9FE03B09A
:101DA000F0BD72B60A4BE362FEE772B6084EE66219
:101DB000FEE7C0464010002051420008B80600204F
:101DC000B8150020180E0020508600087486000800
:101DD000B08A0008C046C046C046C046C046C0469D
:101DE000F0B54F464646C0B42F4F304BB869A825D2
:101DF000826883B06D0000269846291C0132009647
:101E0000181C2B4B01F024F82A4CB96920608A6811
:101E10004046294B5130291C023A0096FF30994622
:101E200001F016F8B969A82293008A686060181C4E
:101E3000291C4B464044033A009601F009F8BB695F
:101E4000A060FC208200101C9A68291C4B4640446C
:101E5000043A009600F0FCFFBF69A821BA68E06070
:101E6000C800053A291C4B464044009600F0F0FF9C
:101E70002061206803F094FD051CFFF759FE0F4810
:101E8000FEF7A6FE281CFEF7BBFE0D48FEF7A0FEDF
:101E90006800FEF7B5FE0B48FEF77AFE03B00CBCF7
:101EA00090469946F0BDC04640100020B80600207C
:101EB000B1400008B8150020D11100085086000874
:101EC0008086000874860008C046C046C046C046EA
:101ED00010B5124B82B0986900218268A824104B7B
:101EE0000091013261000F4800F0B2FF0E4A10600D
:101EF00003F056FD041CFFF71BFE0C48FEF768FEBE
:101F0000201CFEF77DFE0A48FEF762FE6000FEF729
:101F100077FE0848FEF73CFE02B010BD40100020DE
:101F2000B1400008B8060020B8150020508600080F
:101F30008086000874860008C046C046C046C04679
:101F400010B5124B82B0986900218268A824104B0A
:101F50000091013A61000F4800F07AFF0E4A1060CC
:101F600003F01EFD041CFFF7E3FD0C48FEF730FEF6
:101F7000201CFEF745FE0A48FEF72AFE6000FEF729
:101F80003FFE0848FEF704FE02B010BD40100020DE
:101F9000B1400008B8060020B8150020508600089F
:101FA0008086000874860008C046C046C046C04609
:101FB000F0B5174B4F464646C0B4986983B0816868
:101FC00000240139894600F09BFB03F0B1FC114A63
:101FD000114F124E90460025A82359004A463B1C3B
:101FE0000095404600F034FFFFF762FD3078013481
:101FF0000028F1D00A48FEF7EBFD201CFEF700FE9A
:102000000848FEF7C5FD03B00CBC90469946F0BDEC
:1020100040100020B8060020D1110008180E002042
:10202000508600088C860008C046C046C046C046A0
:10203000F8B54F464646C0B4814672B601F030FD51
:10204000274C22232569EA5C0132EA5401F090FC16
:102050002068A04204D0A16987688E68BE422DD353
:1020600062B622230027984672B601F019FD2E6948
:10207000A64221D04246B05CFF282CD00130B0549B
:1020800001F076FC2368A34204D0A26999689068A5
:10209000884217D34B46E81A42425041074362B682
:1020A000281CFFF785FC002E10D0351C72B601F0FD
:1020B000F7FC2E69A642DDD10026E1E772B6094A97
:1020C000E262FEE772B6074EE662FEE7381C0CBC21
:1020D00090469946F8BD72B6034DE562FEE7C046EC
:1020E000401000203086000820860008C046C04608
:1020F000F0B5474680B42A4E82B0071C301C884693
:1021000002F04EF8041E48D0031C4833051CFF2281
:102110002A706A700235AB42FAD170682518AB425A
:1021200013D2D9435522691801201A700133014096
:10213000AB420AD0002903D01A700133AB4204D05D
:102140001A705A700233AB42FAD172B601F0A8FC91
:10215000434600937168134B201C3A1C01F0A8F908
:1021600002252122466485540021041CFEF770FEDE
:1021700001F0FEFB0C480668864204D08169B36812
:102180008F689F4205D362B6201C02B004BC904603
:10219000F0BD72B6054CC462FEE70024F4E7C04609
:1021A000780D0020C153000840100020A0860008D0
:1021B000F0B5474680B48846A82182B0071C490084
:1021C000274800F09DFB041E47D0031C4833051C24
:1021D000FF222A706A700235AB42FAD1A82046006D
:1021E000A5195520591B0122187001338A439D42BD
:1021F0000AD0002A03D0187001339D4204D0187011
:10220000587002339D42FAD172B601F049FCA826FB
:1022100043463A1C0093201C124B710001F048F910
:102220000125041C212025540021201CFEF710FE4E
:1022300001F09EFB0C4F3A68BA4204D0B969966827
:102240008B68B34205D362B6201C02B004BC904632
:10225000F0BD72B6054CFC62FEE70024F4E7C04610
:10226000880D0020C153000840100020A0860008FF
:1022700070B54F4D4F49AB69222698680138FFF77A
:1022800097FF815D041C01394B4259410120FEF743
:1022900067FC002800D070BD72B601F001FCA05DA3
:1022A000FF287DD00130A05501F062FB2968A942CA
:1022B00004D0AA698B6896689E4275D362B62225BF
:1022C000615D022002394B425941FEF749FC00286A
:1022D000E1D1201CFFF76CFB615D032001394B420B
:1022E0005941FEF73DFC0028D5D1201CFFF7A0FE88
:1022F000011C0420FEF734FC0028CCD1201CFFF781
:1023000097FE011C0520FEF72BFC0028C3D1201CE2
:10231000FFF74EFB615D06204B425941FEF720FC62
:102320000028B8D12026A15D07204B425941FEF775
:1023300017FC0028AFD1201CFFF77AFE011C0820F3
:10234000FEF70EFC0028A6D1201CFFF771FE011C31
:102350000920FEF705FC00289DD1FA20400000F07E
:10236000A7F9A15D0A200F394B425941FEF7F8FB4E
:10237000002800D08FE7201CFFF75AFE011C0B201D
:10238000FEF7EEFB002800D085E7201CFFF750FE8B
:102390000124011C6140C9B20C20FEF7E1FB7AE781
:1023A00072B6054BEB62FEE772B6044AEA62FEE7DC
:1023B0004010002098860008B0860008A08600081B
:1023C00070B5124CA56972B601F06AFBA96B0029C1
:1023D00006D10123584268620A20FEF779FDA96BF5
:1023E0004E420E40B143A96301F0C2FA2568A542EE
:1023F00004D0A269AB689068984202D362B6301CE0
:1024000070BD72B60249E162FEE7C046401000208E
:10241000508B0008C046C046C046C046C046C046B5
:1024200070B5061C0C1C72B601F03AFBFEF710FAF0
:10243000134D211C281C01F083F8041E0ED12B1C07
:102440001C3B9A68596840C29A608A4201D3186856
:1024500098600C4801F0ACF801F012F801F088FA2D
:10246000094E3568B54204D0B369AA6899689142AB
:1024700002D362B6201C70BD72B6044CF462FEE753
:102480001C0600201006002040100020108B0008C1
:1024900070B5061C0C1C72B601F002FBFEF7D8F9F1
:1024A000144D211C281C01F04BF8041E10D12A1CCD
:1024B0001C3AD3681168043BD3608B4202D2536844
:1024C000043BD3601E600C4801F072F800F0D8FFA6
:1024D00001F04EFA09480668864204D08569B26860
:1024E000A968914202D362B6201C70BD72B6044C3A
:1024F000C462FEE71C0600201006002040100020E9
:10250000108B0008C046C046C046C046C046C04604
:1025100038B5041C72B601F0C3FAFEF799F9002C25
:102520001FD0A3682268002B06DB944206D072B647
:10253000174D1848C562FEE79442F8D0013BA360EE
:10254000002B17DB134D002401F012FA2868A84273
:1025500004D0AA6983689168994207D362B6201CA7
:1025600038BD72B60A4A0B49CA62FEE772B60A4C17
:10257000EC62FEE7074DA86944626168046041604F
:10258000086060600520FEF7A3FCAB695C6ADBE7CE
:10259000208700084010002000860008C046C04682
:1025A00010B5044C201CFFF7B3FF201C01F0E0FA2B
:1025B00010BDC046A4060020C046C046C046C04666
:1025C000F8B5084C2123A269D05C420709D4064F14
:1025D00021260425381CFFF79BFFA1698B5D1D4256
:1025E000F8D0F8BD40100020480D0020C046C0467D
:1025F00038B572B601F054FAFEF72AF9FEF728F959
:10260000194C2368A5699968AA6891420BD201F018
:10261000AFF92568A54204D0A169AB688A689A42DF
:1026200019D362B638BD18680121202244602060A9
:102630009954281CA361FEF77BF8281CFEF7E8FBE1
:10264000EFF30983E869243B984208D8A069291C64
:10265000FDF7BEFDDBE772B60448E062FEE772B646
:10266000034DE562FEE7C04640100020008B0008E5
:102670005C850008C046C046C046C046C046C0464D
:10268000F8B50A4F041C21260425FFF7B1FFFFF718
:10269000AFFFFFF7ADFFFFF7ABFF2368BA69043365
:1026A0002360905D0542F0D0F8BDC0464010002088
:1026B00010B5041C72B601F0F3F9002C10D0211CE7
:1026C0000820FEF7B5FC01F053F90A4B1A689A424C
:1026D00004D0996994688868A04206D362B610BD98
:1026E00072B60549034BD962FEE772B6034ADA6255
:1026F000FEE7C04640100020F08A0008008B00086A
:1027000010B50120FFF7D4FF72B601F0C9F980239C
:10271000D805446A01F02CF9074B1A689A4204D094
:10272000996992688868904202D362B6201C10BDF5
:1027300072B6024CDC62FEE740100020008A0008FE
:1027400038B5084B084A98698024084D8261A40076
:102750006C830748FFF7ACFF2C830548FFF7A8FF01
:10276000F6E7C04640100020F08600080008004848
:10277000C4090000C046C046C046C046C046C04668
:1027800038B5074B074A9869074D826180246C83EE
:102790000648FFF78DFF2C830448FFF789FFF6E713
:1027A00040100020FC860008000800488813000044
:1027B00010B5041C72B601F073F9201CFEF7B0FBD3
:1027C00001F0D6F8074B1A689A4204D099699468C8
:1027D0008868A04201D362B610BD72B6024ADA62BE
:1027E000FEE7C04640100020F0890008C046C04601
:1027F000F8B5304D46464F46C0B4041CAE6972B6BB
:1028000000280CD001F04CF9F36B002B4DD09A68E6
:102810009046B24206D072B62749E962FEE7264FDB
:10282000EF62FEE79C4203D072B62348E862FEE7FF
:10283000E668D663FEF70CF82768BC4232D0434600
:102840001A6C9146002E0BD0FEF702F830688642D3
:1028500003D08168894500D28946F668002EF3D1FD
:102860003868F96B4A4643469A6020604460E160EC
:10287000A760381CFC63FDF75BFF00F001FE01F070
:1028800077F82C68AC4204D0AF69A268BE68964263
:1028900004D362B60CBC90469946F8BD72B6074B9D
:1028A000EB62FEE70021A160E9E772B6024CEC6240
:1028B000FEE7C0464010002010870008F08900089D
:1028C00010B50548FFF7F4FE044C201CFFF770FF1D
:1028D000201CFFF78DFF10BDDC05000094060020D2
:1028E000FA2010B54000FFF7E3FE044C201CFFF770
:1028F0005FFF201CFFF77CFF10BDC046780600205C
:10290000F0B5474680B4071E38D0CE1D10210723EE
:102910003D1CC8199E4308358046FFF749FF00E07B
:10292000251C2C68002C1AD063689E42F8D8311CF4
:102930000831994210D822689B1B6018083B02603E
:1029400043602860666040462760FFF751FF201C07
:10295000083004BC9046F0BD26682E60F3E7404680
:10296000FFF746FF3A68002A0AD0301C083090472B
:10297000002805D0076046600830EAE7014FC4E749
:102980000020E6E7880F0020C046C046C046C0468B
:1029900070B5002847D0041C083C25682E1C103553
:1029A0000836281CFFF704FF331CA34204D85A68DA
:1029B00008329818844210D3B34201D0A34211D2F6
:1029C0001968002910D08C420ED30B1CA342F3D8F7
:1029D0005A68083298188442EED272B6144D154BDC
:1029E000DD62FEE71B68E0E766682160321C1C6060
:1029F00008322068A218824205D151681268761800
:102A00000836666022605868011C08315E18B442BE
:102A100005D1626824688018083058601C60281C42
:102A2000FFF7E6FE70BD72B60149024EF162FEE7A5
:102A3000E086000840100020C046C046C046C046A0
:102A400070B5041C0E1C002817D0251C1035281C3E
:102A5000FFF7AEFEA36800220024002B05D05968C2
:102A60001B6852180134002BF9D1002E00D03260BF
:102A7000281CFFF7BDFE201C70BD014CE5E7C046D9
:102A8000880F0020C046C046C046C046C046C0466B
:102A9000F0B583B001A90020FFF7D2FF102100207C
:102AA000FFF72EFF011C041C4B1E99410120FEF76D
:102AB00057F8002801D003B0F0BD201CFFF768FFD5
:102AC0007C490020FFF71CFF414241410220FEF7F4
:102AD00047F80028EFD1784C01A9201CFFF7B0FF80
:102AE0001021201CFFF70CFF1021071C201CFFF7F2
:102AF00007FF1021061C201CFFF702FF051C381CD5
:102B0000FFF746FF301CFFF743FF281CFFF740FF8D
:102B10006946201CFFF794FF411E4B425941032098
:102B2000FEF71EF80028C6D11021201CFFF7E8FE92
:102B30001021071C201CFFF7E3FE1021061C201C9F
:102B4000FFF7DEFEFFF724FF301CFFF721FF381CE4
:102B5000FFF71EFF6946201CFFF772FF411E4B4224
:102B600059410420FDF7FCFF0028A4D11121201CAD
:102B7000FFF7C6FE1021051C201CFFF7C1FE071C35
:102B8000281CFFF705FF6946201CFFF759FF811E2F
:102B90004B4259410520FDF7E3FF002800D08AE7AA
:102BA0001021201CFFF7ACFE6946061C201CFFF715
:102BB00047FF0121012806D06946201CFFF740FF8E
:102BC000811E4B4259410620FDF7CAFF002800D064
:102BD00071E7381CFFF7DCFE301CFFF7D9FE6946B1
:102BE000201CFFF72DFF411E4B4259410720FDF7E6
:102BF000B7FF002800D05EE71021201CFFF780FE01
:102C00001021071C201CFFF77BFE051C381CFFF75A
:102C1000BFFE6946201CFFF713FF811E4B4259413E
:102C20000820FDF79DFF002800D044E72021201C4C
:102C3000FFF766FEFFF7ACFE281CFFF7A9FE69460A
:102C4000201CFFF7FDFE411E4B4259410920FDF7B4
:102C500087FF002800D02EE76946201CFFF7F0FE12
:102C60000099201CFFF74CFE6946061C201CFFF74C
:102C7000E7FE414241410A20FDF772FF002800D0E3
:102C800019E7301CFFF784FE6946201CFFF7D8FEC9
:102C9000411E4B4259410B20FDF762FF002800D036
:102CA00009E7019B009A0C20D11A4B425941FDF7CC
:102CB00057FF00E700FFFFFF580D0020C046C04649
:102CC00038B5051C0C1C72B600281AD0002918D083
:102CD00000F0E6FE2B1C00E0131C1A68AA4203D089
:102CE0009442F9D12068186000F042FE094C226835
:102CF000A24204D0A16993688D689D4205D362B653
:102D000038BD054C034AD462FEE772B60348E06260
:102D1000FEE7C04640100020C0860008508B000827
:102D2000F0B5474680B4444C8AB0246072B600F0D7
:102D3000B7FE424D2268A869012700AB009201212D
:102D40007A4200262360019002910396049200F0DB
:102D50000FFE2B68AB4204D0A8699E688168B1421F
:102D600028D362B672B600F09BFE2268AB690126DA
:102D700005AF05920220002172427B602760B86097
:102D8000F9603A6100F0F4FD2B68AB4204D0A86909
:102D90009E688168B14211D362B622680120111B7E
:102DA0004B1E9941FDF7DCFE00280BD00AB004BC95
:102DB0009046F0BD72B6224FEF62FEE772B6204E2B
:102DC000EE62FEE7201C6946FFF77AFF23680220C7
:102DD000191B4B1E9941FDF7C3FE0028E6D1201CAC
:102DE000391CFFF76DFF27680320391B4C426141F6
:102DF000FDF7B6FE0028D9D1124800240726012786
:102E00008046311CE1400F4209D0A3004246D15810
:102E100000290CD0381CA0408643201C8847013470
:102E2000002EEED108490420FDF74AFEBEE772B637
:102E3000064CEC62FEE7C046B406002040100020BD
:102E4000508B0008608A000808870008D0860008B8
:102E5000F0B557464E464546E0B4061C82B0071C06
:102E6000884691469A464836041CFF2525706570B1
:102E70000234A642FAD14246BB189E4213D2F14315
:102E800055245D1801203470013605409E420AD059
:102E9000002D03D0347001369E4204D0347074701B
:102EA00002369E42FAD172B600F0FAFD0A9E4A46F8
:102EB000534641460096381C00F0FAFA0021041CE3
:102EC000FDF7C6FF00F054FD0A4B1A689A4204D081
:102ED000996990688D68854207D362B6201C02B05C
:102EE0001CBC90469946A246F0BD72B6024FDF6206
:102EF000FEE7C04640100020008B0008C046C046D8
:102F000010B51B4B82B0986900218268A824194B28
:102F10000132009118486100FFF79AFF174A1060CC
:102F200000F0D6FD164C01202368191B4B42594175
:102F3000FDF716FE002801D002B010BDA068414286
:102F400041410220FDF70CFE0028F5D100F0C0FD44
:102F500021680320091B4B425941FDF701FE00285F
:102F6000EAD1A16804204B425941FDF7F9FDE3E79E
:102F700040100020A1250008B8060020B815002048
:102F8000A4060020C046C046C046C046C046C04653
:102F900038B5041C72B6FDF70BFB2023E05C072854
:102FA0000ED8114A81005558AF46656AFDF760FB9F
:102FB000AB680133AB6060682168016022685060D3
:102FC000012041426162201CFDF7B2FBFDF708FBC6
:102FD00062B638BD656A0120414200232B60201C87
:102FE0006162FDF7A5FBF1E730870008C046C046E7
:102FF00008B50748074B0022D1210260C2601A6061
:10300000CA0083605A601030FDF78AFA08BDC046D6
:10301000580D0020B8060020C046C046C046C04635
:1030200008B50748074B0022D1210260C2601A6030
:10303000CA0083605A601030FDF772FA08BDC046BE
:10304000880D0020B8060020C046C046C046C046D5
:1030500008B572B6FDF78CFA72B6094B1A6B002AE6
:1030600002D1586B002803D072B60649D962FEE738
:1030700072B6FDF77DFAFDF78BFA62B608BDC04661
:103080004010002040880008C046C046C046C046E8
:10309000F0B54E4657464546E0B48026F605F14663
:1030A000FDF7B6FA33699A0709D4FDF7C9FA48461D
:1030B000FDF78EFE1CBC90469946A246F0BD00204E
:1030C000306172B6FDF774FAFDF7D2FAFDF7D0FA67
:1030D000224C736AE569A16AAA685F1A97421DD3F8
:1030E0001C231819804600278A18E8682968434677
:1030F000A26282464B60E161EF6041452BD0FDF753
:103100006FFA62B62869D04772B6FDF751FAE569E1
:10311000736AA16AAA68581A8242E5D9104EB5426C
:1031200013D08F18FD1A012D13D9EE18301CFDF79E
:103130009FFB8023DA05A16A506A751A471AAF42CD
:1031400003D972B6074EE662FEE7FDF749FA62B6AA
:10315000ABE70225E9E7F760D1E7C0464010002061
:103160005C100020A0870008C046C046C046C0468C
:10317000F0B5474680B4254880238446984600240D
:10318000E0446246566895681168AE4220D2F74323
:10319000E8190A1C430701CADF0F331C01C3AB4205
:1031A00010D2002F04D04968043202C3AB4209D2C6
:1031B000101C80C8191C80C152685A600B1D021D6A
:1031C000AB42F5D3F3435D19A80801308700F61927
:1031D0006146CD68AE4211D2F243AB18580710C613
:1031E000C70FAE420AD2002F02D010C6AE4205D29F
:1031F000311C10C174600E1DAE42F9D31025AC44D1
:10320000C445BED304BC9046F0BDC046B08700089C
:10321000FEE7C046C046C046C046C046C046C0469F
:103220007047C046C046C046C046C046C046C046BD
:103230007047C046C046C046C046C046C046C046AD
:1032400038B5041CFDF714FAFDF712FAA369626998
:103250009A421FD0A16822690131A1601D78013313
:10326000A361934201D3E368A361206884420FD035
:10327000016821604C602024025D042A04D072B6EB
:103280000748084DE862FEE700234362FDF750FA65
:10329000281C38BDA0680028DCD003214842F8E78C
:1032A0006088000840100020C046C046C046C046A6
:1032B00038B5041C0D1CFDF7DBF9FDF7D9F963697E
:1032C000A26993421FD0A1680131A1601D702569D8
:1032D00001336361AB4201D3E368636120688442D8
:1032E00017D00268226054602024015D042904D0B4
:1032F00072B60948094BD862FEE700254562FDF722
:1033000017FA002038BDA0680028DCD00422504203
:10331000F8E70020F6E7C04660880008401000206B
:1033200070B5041C0068844220D00268202122600D
:103330005460435C042B04D072B60D480D4CE0621F
:10334000FEE7022676424662FDF7F2F92068202564
:1033500084420BD0026822605460415D0429EBD1A5
:103360004662FDF7E5F920688442F3D170BDC0469E
:103370006088000840100020C046C046C046C046D5
:10338000F0B54746244D80B4041CAE69FDF760FAE1
:10339000002C09D0F36B002B39D09F68B74207D0BF
:1033A00072B61E4EEE62FEE772B61C4BEB62FEE793
:1033B0009C4203D072B6194CEC62FEE7E568FD63EF
:1033C000FDF746FA2668B4421ED0396C8846002DB7
:1033D0000BD0FDF73DFA2A68954203D093689845D3
:1033E00000D29846ED68002DF3D14046B860F16BED
:1033F0003768301C27607C60A660E160F463FDF7ED
:1034000097F904BC9046F0BD0020A060F9E772B6C1
:10341000024AEA62FEE7C04640100020908700089A
:1034200038B5144D20212A68AC6913680120505426
:103430005D60AA6100222B606254A06800E01B68F6
:1034400099688142FBD85A682360626014605C60AE
:10345000201CFDF7DDFCEFF30983E069243B984273
:1034600004D8A869211CFCF7B3FE38BD72B6024C23
:10347000EC62FEE7401000205C850008C046C046B4
:1034800008B5FDF7E5F9FDF7F3F8054B1A689869FB
:1034900091688368994201D9FFF7C2FF08BDC04611
:1034A00040100020C046C046C046C046C046C04688
:1034B000F8B5041C0F1C151C1E1CFDF7D9F8002CB8
:1034C0002CD0CF2F2AD97F2D28D8002E26D0391CDA
:1034D00024396018069B144AE06002270661202602
:1034E00043610262A755114F261C7A690020A5602E
:1034F000212125642223012528366054E5542761C3
:103500001461A6620436E66226631C36E063A0639B
:10351000A0616261E6617C61201CF8BD72B6044C5A
:103520000248C462FEE7C046F101000840100020D6
:1035300030880008C046C046C046C046C046C046A7
:1035400038B5041C0D1CFDF783F9002C12D0A368BC
:103550002268002B06DB944206D072B6114D124948
:10356000CD62FEE79442F8D0591EA16000200029E8
:1035700005DB38BD72B60B480B4BD862FEE7002D59
:103580000CD00948291C836905205C6262681C60B4
:103590005A6013606360FDF74BFDEAE7A360012406
:1035A0006042E6E75087000840100020C046C04651
:1035B00010B5041CFDF75CF8002C11D0A36822683C
:1035C000002B06DB944206D072B60C480C4BD86236
:1035D000FEE79442F8D00133A360002B05DD10BD57
:1035E00072B6064A0649CA62FEE720680168216091
:1035F0004C6000244462FDF79BF8F0E780880008E7
:1036000040100020C046C046C046C046C046C04626
:1036100070B5051CFDF72CF8002D04D172B60F4CC7
:103620000F4EF462FEE7FDF723F80E4CA669002E5C
:1036300011DDFDF71DF8013EE368A66104CB60686B
:103640002A60E360834201D32168E1600648FFF706
:10365000AFFF002001E00125684270BD50880008DE
:1036600040100020000600201C0600200000000082
:1036700070B5061CFCF7FCFFFCF7FAFF0C4C656A02
:10368000002D11DDFCF7F4FFA368013D626865625F
:1036900040C3A360934204D20648FFF789FF00208D
:1036A00070BD2068A060F7E701214842F8E7C046F6
:1036B0000006002010060020C046C046C046C04696
:1036C00070B5061CFCF7D4FFFCF7D2FF0D4C656A01
:1036D000002D13DDFCF7CCFFE3682268013D043BBD
:1036E0006562E360934205D307481E60FFF760FF01
:1036F000002070BD6368043BE360F5E701204042B1
:10370000F7E7C0460006002010060020C046C0466D
:10371000F8B5041C0E1CFCF7ABFF002C3ED0002EAD
:103720003CDBA5682368002D06DB9C4206D072B600
:103730001D4C1E4DEC62FEE79C42F8D00135A660A0
:10374000002D2ADC022046426068012741682F4094
:1037500061600C60FCF7ECFF01354662012D1CD066
:10376000002F09D060680135426862601460FCF780
:10377000DFFF4662012D10D0606802354368636048
:103780001C60FCF7D5FF46626068476867603C6074
:10379000FCF7CEFF4662012DEED1F8BD72B60248AD
:1037A000024EF062FEE7C0469088000840100020FC
:1037B00070B5061C0D1CFCF75BFF002E12D03468A0
:1037C000A6420ED0E3682B43E360002D02D02269AD
:1037D0001A4203D06068A168FCF7DAFF2468A642A9
:1037E000F0D170BD72B602480249C862FEE7C04619
:1037F0007087000840100020C046C046C046C04642
:10380000F0B5454657464E46E0B4F046FCF700FF9B
:10381000514E756F2F68EC692C62220724D1E305A5
:1038200045D4A20650D480233B4201D0234264D128
:10383000630609D4FCF704FF4046FDF7C9FA1CBC37
:1038400090469946A246F0BD72B6FCF7B1FEFCF771
:103850000FFF746CB26C944263D04026B7432F6064
:10386000FCF7BEFE62B6E5E72307D80FC101894623
:10387000E30703D520230A1C1A439146A30703D567
:103880004946402001438946630704D580234A46C0
:1038900058000243914672B6FCF78AFE2F4849460B
:1038A000FFF786FFFCF79CFE62B6E305B9D572B65A
:1038B000FCF77EFE802129488900FFF779FFFCF79D
:1038C0008FFE62B6A206AED572B6FCF771FEAB8C67
:1038D000D8B28246FCF7CCFEFCF7CAFE7269002A19
:1038E0001AD01F498946081C5146FFF7E1FC002801
:1038F0001FDBFCF775FE62B695E772B6FCF758FE63
:1039000018488246FFF79CFC002818DB82B22A8503
:10391000FCF766FE62B68BE7301D0421FFF748FF17
:10392000DFE7B16B002998D0301D1021FFF740FF71
:1039300093E7484608388021FFF73AFFD9E7504619
:103940002C380821FFF734FFC021381C884340235E
:1039500003432B60DCE7C046C00F0020C40F0020EB
:10396000CC0F0020F00F0020C046C046C046C04625
:10397000064B1A6B002A04D1596B002901DD5A63EA
:10398000704772B60248D862FEE7C0464010002079
:1039900020890008C046C046C046C046C046C04652
:1039A00008B5EFF30583D80512D1FFF769FDFFF7DE
:1039B000DFFF094B1A689A4208D0996992688868B3
:1039C000904203D272B60549D962FEE762B608BDDD
:1039D000FCF706FE62B6FAE740100020A088000857
:1039E00008B5FFF7C5FF074B1A689A4204D09969DA
:1039F00092688868904201D362B608BD72B60249E7
:103A0000D962FEE740100020508B0008C046C04637
:103A100008B5FFF7ADFF074B1A689A4204D09969C1
:103A200092688868904201D362B608BD72B60249B6
:103A3000D962FEE740100020108B0008C046C04647
:103A400008B5FFF795FF074B1A689A4204D09969A9
:103A500092688868904201D362B608BD72B6024986
:103A6000D962FEE740100020E08A0008C046C04648
:103A700008B5FFF77DFF074B1A689A4204D0996991
:103A800092688868904201D362B608BD72B6024956
:103A9000D962FEE740100020F0850008C046C0460D
:103AA000064B1A6B002A02D1586B002803D072B65D
:103AB000034ADA62FEE70121596370474010002093
:103AC00028890008C046C046C046C046C046C04619
:103AD00070B5234CA368002B07DB2068A04207D0F9
:103AE00072B6204D204BDD62FEE72168A142F7D07F
:103AF00072B6FFF7D5FFA6680136A660002E08DC77
:103B000020680025026822605460FCF711FEA66858
:103B10004562013EA660002E10DBFFF7B1FC124D9E
:103B20000024FFF725FF2868A84204D0A969866809
:103B30008A68B2420FD362B6201C70BD0A4D63681A
:103B4000AE690520346073601E6074626660FDF7C4
:103B5000BFF9746AE5E772B6044CEC62FEE7C04652
:103B6000A4060020008900084010002000860008FC
:103B700010B5041E22D08368002B07DB0068844246
:103B800007D072B6164C1749CC62FEE7016888422E
:103B9000F7D072B6FFF784FFA2680132A260002A54
:103BA00015DDFFF7E5FE0F4C2068A04204D0A169A7
:103BB00082688B68934206D362B610BD72B6084A1B
:103BC000084BDA62FEE772B60748E062FEE720685B
:103BD0000021036823605C60FDF73AF9E1E7C04625
:103BE000F08800084010002000860008C046C0464B
:103BF00038B5041C0D1C72B6FFF752FF2023E05CA1
:103C00000D2804D072B60D4C0D4AD462FEE7FCF7C5
:103C10001FFE201C291CFDF71BF9FFF7A9FE084C0D
:103C20002268A24204D0A16993688D689D4201D3A5
:103C300062B638BD72B60348E062FEE760890008EC
:103C40004010002070890008C046C046C046C046EB
:103C5000F8B5184D061C0F1CAC6972B6002826D0AA
:103C6000FFF71EFF331C2C336362306B23606763E6
:103C70006060046020213463725C0E2A02D1301C23
:103C8000FCF756FD0C20FDF723F9666AFFF770FE7E
:103C90002F68AF4204D0AC69BB68A068984202D3D9
:103CA00062B6301CF8BD72B60349E962FEE7034A0A
:103CB000EA62FEE7401000207089000810890008C1
:103CC00010B54121041CFFF7C3FF201C4221FFF760
:103CD000BFFF201C4321FFF7BBFF10BDC046C046FD
:103CE00038B53C4C2568002D13D072B6FFF7D8FECE
:103CF0002123E95C04220A43EA54FFF739FE364BDC
:103D00001868984204D09D698268A96891425DD381
:103D100062B66568002D13D072B6FFF7C1FE21238D
:103D2000E85C04210143E954FFF722FE2A4B1A689C
:103D30009A4204D09D699168A868884246D362B6C9
:103D4000A568002D13D072B6FFF7AAFE2123E85C08
:103D500004220243EA54FFF70BFE1F4B1D689D42ED
:103D600004D09969AA68886890422FD362B6E56842
:103D7000002D13D072B6FFF793FE2123E95C0420D7
:103D80000843E854FFF7F4FD134B1A689A4204D035
:103D90009D699068A968814218D362B62469002C95
:103DA00013D072B6FFF77CFE2123E55C04222A4380
:103DB000E254FFF7DDFD084B1868984204D099697A
:103DC00085688C68AC4201D362B638BD72B6034ACE
:103DD000DA62FEE7B815002040100020008B0008D2
:103DE000F0B545468846C16957464E46E0B4041CC6
:103DF000161C9A46894672B6002A4FD0FFF750FE2D
:103E00002A4D0027FCF734FCA368002B2BD0A068B8
:103E100042460138A0606369117819702069013346
:103E20006361834201D3E36863614A46002A01D09B
:103E3000201CC847FFF79CFD2868A84204D0A96948
:103E400083688A689A4225D362B6013E0137002E04
:103E50001AD00120804472B6FFF722FEFCF708FC5E
:103E6000A368002BD3D1201C5146FDF709F9002887
:103E7000C8D0FFF77DFD2968A94204D0AA698B68E4
:103E8000906898420ED362B6381C1CBC9046994686
:103E9000A246F0BD72B6064CEC62FEE7054D034E3D
:103EA000F562FEE772B6024CEC62FEE740100020BD
:103EB000D08A0008D0880008C046C046C046C04628
:103EC00008B53030FFF78CFF08BDC046C046C0467D
:103ED00008B5012330305B42FFF782FF08BDC046C2
:103EE00070B5051C72B67F281ED8FFF7D9FD104C9F
:103EF000A3691E6C9A68964201D0954200D99D60D4
:103F00001D64FFF7BDFAFFF733FD2068A04204D01F
:103F1000A16983688D689D4202D362B6301C70BD72
:103F200072B6044EE662FEE7034C014AD462FEE735
:103F300040100020008B000830890008C046C046B1
:103F4000F8B51A4DAE6972B6FFF7AAFDF46B002CF6
:103F50001CD0002703E0A760F46B002C12D0E368AC
:103F6000F363FCF775FC20688442F4D00168C26BEF
:103F700021604C60A060E260C463FCF7D9FBF46B85
:103F8000002CECD1306CB060FFF77AFAFFF7F0FC50
:103F90002E68AE4204D0AF69B368B968994201D3C4
:103FA00062B6F8BD72B6024AEA62FEE7401000202F
:103FB000F0890008C046C046C046C046C046C0465C
:103FC00008B572B6FFF76CFD0D4B1868984205D026
:103FD000026800211A605360FCF73AFFFFF7C8FC43
:103FE00008480368834204D081699A6889689142CD
:103FF00001D362B608BD72B6034BC362FEE7C0468A
:10400000700600204010002090890008C046C0467D
:1040100038B50B4B9C6972B6FFF742FDA56B002DBE
:1040200006D10120414261620A20FCF751FFA56BD5
:10403000A26BAA43A263FFF7D3FC281C38BDC0467D
:104040004010002000000000000000000000000000
:1040500070B572B6FFF724FD134CFCF709FBA56998
:104060002B1CEE6A2C339E4206D10E20FCF730FF4B
:10407000A5692B1CEE6A2C3332680D202021EA62E0
:1040800053607054FFF774FC2568A54204D0A369FF
:10409000A8689A68824202D362B6301C70BD72B6BC
:1040A000024EE662FEE7C04640100020708900081C
:1040B00010B5FFF7CDFF446B211CFFF799FD002CD5
:1040C000F7D110BDC046C046C046C046C046C04637
:1040D00070B5051C0C1C72B6FFF7E2FCFCF7B8FBD0
:1040E000002D04D172B60F4E0F4CE662FEE70F4E64
:1040F000211C301CFFF724FA041E0FD1331C103B87
:10410000DA68586802CA2960DA60824201D31D6801
:10411000DD600748FFF74CFAFFF7B2F9FFF778FCCC
:10412000201C70BD5089000840100020100600209F
:104130001C0600200000000000000000000000003D
:1041400010B5041C72B6FFF7ABFCFCF791FA1049EE
:104150001048E21D07239A4304680B68191B8A4222
:1041600013D8A2180260FFF703FC0B4803688342D0
:1041700004D081699A688968914202D362B6201C92
:1041800010BD72B6054CC462FEE70024EBE7C046E2
:10419000A80F0020AC0F002040100020C0880008AD
:1041A00038B5041C72B6FFF77BFCFCF761FA002CF3
:1041B0001DD02568002D0FD028682060FFF7D8FBA0
:1041C0000D4C2268A24204D0A16990688B6883429A
:1041D00009D362B6281C38BDA368002BEED06068F6
:1041E0009847051CEAE772B6044DE562FEE772B631
:1041F000034C014AD462FEE7401000208089000889
:10420000B0880008C046C046C046C046C046C0464A
:1042100010B572B6FFF744FC8023D805446AFFF757
:10422000A7FB084B1A689A4204D09969926888687B
:10423000904202D362B6201C10BD72B6024CDC6202
:10424000FEE7C04640100020708B0008C046C04604
:1042500038B50D4CA56972B6FFF722FC0320FCF7B8
:1042600037FE6B6A002BF9D0FFF782FB2068A04273
:1042700004D0A26985689168A94201D362B638BDAD
:1042800072B6024BE362FEE740100020B08A0008DD
:1042900010B5EFF31084E30707D4EFF30583D805D7
:1042A00072B6002803D1FFF7FBFB201C10BDFCF702
:1042B0007FF9FAE7C046C046C046C046C046C04681
:1042C00008B572B6FCF774F9FCF78AF962B672B6F3
:1042D000FCF76EF9FFF7DCFFC30701D4FFF760FBC3
:1042E000FCF77EF962B608BDC046C046C046C0466F
:1042F00008B572B6FFF7D4FB08BDC046C046C0463D
:10430000F0B5194B194F9869194C866883B0A825E8
:104310006900721C0094381C164BFEF799FD164C70
:10432000164BA82255002060B21C0093291C781956
:10433000134BFEF78DFDF21C6060124EA820810029
:10434000114B78180096291CFEF782FDA060FFF73C
:1043500037FEFFF735FEFDF7EBFB0C490120FCF7BC
:10436000AFFB03B0F0BDC04640100020B8060020EF
:104370009886000851520008B8150020A08900084E
:10438000A1510008A48900086151000808870008AD
:10439000F0B54F464646C0B42F4A3048936983B0C3
:1043A0009C6890468146FEF703FA2D4F2D4E2E490C
:1043B000A825621C331C0091381C6900FEF748FDDB
:1043C0002A4DA82253002A492860F818A823A21CC5
:1043D00000915900331CFEF73BFD26496860A82078
:1043E0008200A823B8180091E21C5900331CFEF784
:1043F0002FFD2149A860FC208200A823B818009155
:10440000221D5900331CFEF723FDE860A820C200DE
:10441000B8181A4FA821331C621D49000097FEF7F7
:1044200017FD464628614846FEF7E2F9FDF780FB96
:10443000B5690120AB68E41A61426141FCF790FB69
:10444000002803D102200E49FCF73AFB03B00CBC54
:1044500090469946F0BDC0464010002094060020CA
:10446000B806002081510008B0890008B815002066
:10447000A8890008A0890008A48900089886000877
:10448000AC890008C046C046C046C046C046C046CB
:10449000F0B52E4B2E4D986983B0866801A9281C73
:1044A000FEF7CEFA2B49701EFDF782FE2A4C2B49EF
:1044B0002060B01EFDF77CFE69466060281CFEF798
:1044C000BFFA0099281CFEF71BFA2549071CF01EAD
:1044D000FDF76EFEA060381CFEF75AFA2268002A2B
:1044E0002AD063680021002B02D0A068002825D0C4
:1044F0000120FCF735FB002801D003B0F0BDFDF72B
:1045000017FB02201749FCF7DBFA0028F5D16946B2
:10451000281CFEF795FA411E4B4259410320FCF737
:104520001FFB0028E9D10099019D0420491B4B4243
:104530005941FCF715FBE0E70021D9E7E668002EBA
:10454000D6D121694B425941D2E7C04640100020E4
:10455000880D002098860008B8150020A48900085E
:10456000A0890008B4890008C046C046C046C046BD
:10457000F0B54F464646C0B4002385B00393FEF71E
:10458000BFF82F482F4A846991462F4EA268A8276A
:104590007F0003AC8046391C331C013A0094484626
:1045A000FEF756FC4346294D9A69286092684846B2
:1045B0005130391C331C013A0094FF30FEF748FC9F
:1045C00043469A696860A82092688100081C331CE1
:1045D000391C4844013A0094FEF73AFC43469A6974
:1045E000A860FC2092688100081C331C391C4844D8
:1045F000013A0094FEF72CFC43469A69E860A82033
:104600009268C100081C013A391C331C48440094CC
:10461000FEF71EFC28610E48FEF74AF8FFF760FB24
:10462000FDF786FA0B48FCF7D3FA0398FCF7E8FA93
:104630000948FCF7ADFA05B00CBC90469946F0BDB0
:1046400040100020B806002081260008B815002080
:10465000102700005086000874860008C046C04637
:10466000F0B5474680B482B072B6FFF719FACE4D66
:104670000021281CFEF764FF061CFFF779F9CB4CDC
:104680002368A34204D0A2699968906888420CD339
:1046900062B6711C4E4271410120FCF761FA00289C
:1046A00007D002B004BC9046F0BD72B6C04AE262C8
:1046B000FEE72F680220791B4B425941FCF750FA64
:1046C0000028EED1AE68032071427141FCF748FA30
:1046D0000028E6D1A369A8219A6849000090013A10
:1046E000B44BB548FEF7B4FBB44A106072B6FFF79E
:1046F000D7F9B349281CFEF723FF071CFFF738F949
:104700002068A04205D0A6698368B168994200D2AA
:104710005EE162B6FDF70CFA794279410420FCF7BC
:104720001FFA0028BDD12A680520511B4B42594170
:10473000FCF716FA0028B4D1AF6806207942794117
:10474000FCF70EFA0028ACD1FDF7DAFF72B6FFF7DE
:10475000A7F98020C605766AFFF70AF92168A14209
:1047600005D0A3698F689A68BA4200D234E162B674
:1047700094483718412000F0B3FC72B6FFF790F967
:10478000FA214900281CFEF7DBFE8046FFF7F0F80F
:104790002368A34205D0A26999689068884200D234
:1047A000FDE062B6414601314B4259410720FCF71A
:1047B000D7F9002800D074E72B680820591B4B421A
:1047C0005941FCF7CDF9002800D06AE7AA68092012
:1047D00051425141FCF7C4F9002800D061E7422062
:1047E00000F07EFC72B6FFF75BF9FA214900281C45
:1047F000FEF7A6FE8046FFF7BBF82068A04205D072
:10480000A36981689A688A4200D2C8E062B64146CC
:1048100001314B4259410720FCF7A2F9002800D092
:104820003FE72868411B4B4259410820FCF798F9A3
:10483000002800D035E7AB68092059425941FCF700
:104840008FF9002800D02CE7432000F049FC72B615
:10485000FFF726F9FA225100281CFEF771FE804668
:10486000FFF786F82168A14205D0A0698B688268AD
:104870009A4200D293E062B6414601314B4259411F
:104880000720FCF76DF9002800D00AE72968082006
:10489000491B4B425941FCF763F9002800D000E75F
:1048A000A868414241410920FCF75AF9002800D08C
:1048B000F7E6442000F014FC72B6FFF7F1F8FA2294
:1048C0005100281CFEF73CFE8046FFF751F8236894
:1048D000A34204D0A1699A68886890425FD362B607
:1048E000414601314B4259410720FCF739F9002874
:1048F00000D0D6E62B680820591B4B425941FCF7E3
:104900002FF9002800D0CCE6A86841424141092097
:10491000FCF726F9002800D0C3E6452000F0E0FBB4
:1049200072B6FFF7BDF8FA214900281CFEF708FE11
:104930008046FFF71DF82368A34204D0A269996856
:10494000906888422BD362B6414601314B425941AF
:104950000720FCF705F9002800D0A2E62C68082003
:10496000611B4B425941FCF7FBF8002800D098E648
:10497000A96809204B425941FCF7F2F8002800D001
:104980008FE60A201049FCF79BF8002800D088E643
:104990000E4D391C72190B2000F06AFB81E672B6CD
:1049A000034EE662FEE7C046A40600204010002049
:1049B00000860008D1530008B8060020B815002072
:1049C00088130000C4090000AC890008D809000061
:1049D00072B6034BE362FEE772B6024FE762FEE790
:1049E00000860008D0850008C046C046C046C046C4
:1049F000F0B5474680B4384D384EAB6938499F68AA
:104A000082B03848A8247A1C0091331C610080468B
:104A1000FEF71EFA344C354B206040465130A82139
:104A2000BA1C00934900331CFF30FEF711FA304BDB
:104A3000A8226060A82190000093FA1C331C404417
:104A40004900FEF705FA2B4BFC22A060A82190003C
:104A500000933A1D331C40444900FEF7F9F9A8229F
:104A6000E060D0007A1D244FA823590040440097ED
:104A7000331CFEF7EDF9206172B6FFF711F8FBF772
:104A8000F7FD1E4C022620687742A04208D001683C
:104A900021604C60FBF74CFE47622068A042F6D1D3
:104AA000FEF7EEFCFEF764FF2868A84204D0AA696E
:104AB000836894689C420AD362B6FDF739F81049BE
:104AC0000120FBF7FDFF02B004BC9046F0BD72B6BA
:104AD0000C4EEE62FEE7C04640100020A1510008D7
:104AE000B0890008B8060020B8150020A889000881
:104AF000A0890008A4890008988600087006002094
:104B0000AC89000890890008C046C046C046C0462F
:104B1000F0B5474680B4344C344EA36934499F689D
:104B200082B03448A8257A1C0091331C6900804665
:104B3000FEF78EF9304D314B286040465130A821A8
:104B4000BA1C00934900331CFF30FEF781F92C4B4F
:104B5000A8226860A82190000093FA1C331C4044EE
:104B60004900FEF775F9274BFC22A860A8219000A8
:104B700000933A1D331C40444900FEF769F9A8220E
:104B8000E860D0007A1D204FA823590040440097C8
:104B9000331CFEF75DF9286172B6FEF781FFFBF763
:104BA00027FEFBF725FEFBF723FEFBF721FEFBF7B5
:104BB0001FFEFEF765FCFEF7DBFE2668A64204D06A
:104BC000A569B268A96891420AD362B6FCF7B0FF42
:104BD0000E490120FBF774FF02B004BC9046F0BD03
:104BE00072B60B48E062FEE740100020A1510008B9
:104BF000B0890008B8060020B8150020A889000870
:104C0000A0890008A489000898860008AC890008DB
:104C1000208B0008C046C046C046C046C046C046BD
:104C2000F0B55F4656464D464446F0B4914D924A23
:104C3000AB69924F9C68924E601C83B08046A11C69
:104C40009346A82389460096590042465B46381C85
:104C5000FEF7FEF88B4E8C4B3060A8204100CA193D
:104C6000A82149000093101C884B92464A46FEF743
:104C7000EFF870608648FDF79BFDA8698268012007
:104C8000A11A4B425941FBF76BFF002806D003B035
:104C90003CBC90469946A246AB46F0BDFA2398002C
:104CA000FDF706FDA96942468868111A4B42594131
:104CB0000220FBF755FF0028E9D17648FDF778FD83
:104CC000AB6940469968411A4B4259410320FBF7B2
:104CD00047FF0028DBD1FA229000FDF7E9FCAB6921
:104CE00048469968411A4B4259410420FBF738FF66
:104CF0000028CCD16748FDF77BFDAA69434691683F
:104D00000520591A4B425941FBF72AFF0028BED112
:104D1000FA208000FDF7CCFCAA6943469168062082
:104D2000591A4B425941FBF71BFF0028AFD1FFF73F
:104D300007F9A86982680720A11A4B425941FBF77D
:104D40000FFF0028A3D1FCF7F3FE5349381CA82716
:104D50000091424679005B46FEF77AF84F4BA82255
:104D60003060510000934A46484B5046FEF770F8B9
:104D700070604748FDF71CFDAE69B068211A4B42D0
:104D800059410820FBF7ECFE002800D07FE7FA210C
:104D90008800FDF78DFCAF694346BA680920991A6F
:104DA0004B425941FBF7DCFE002800D06FE7394841
:104DB000FDF7FEFCAE694146B068091A4B42594105
:104DC0000A20FBF7CDFE002800D060E7FA27B800E4
:104DD000FDF76EFCAA694B4696680B20991B4B4267
:104DE0005941FBF7BDFE002800D050E772B6FEF730
:104DF00057FE2848FEF7C4FAFEF742FBFEF7B8FD5F
:104E00002868A84204D0A96982688F6897422CD389
:104E100062B6AE694346B068191A4B4259410C203C
:104E2000FBF79EFE002800D031E7FA218800FDF74D
:104E30003FFCAF694646BA680D20B11A4B42594152
:104E4000FBF78EFE002800D021E7FFF779F8AD6967
:104E5000A868211A4C4261410E20FBF781FE002810
:104E600000D014E7FCF764FE11E772B60C4CEC625C
:104E7000FEE7C04640100020E1280008B8060020E8
:104E8000A4890008B815002098860008C1280008E9
:104E90007806002094060020A8890008A089000850
:104EA000208B0008C046C046C046C046C046C0462B
:104EB00070B5614CA3699E6872B6FEF7F1FD5F4D57
:104EC0005F49281CFBF7ACFCFEF752FD2068A042AE
:104ED00005D0A26983689168994200D2A1E062B6C8
:104EE00072B6FEF7DDFD281C5649FBF799FCFEF76C
:104EF0003FFD2068A04205D0A2698368916899426D
:104F000000D28EE062B672B6FEF7CAFD281C4E498A
:104F1000FBF786FCFEF72CFD2068A04204D0A269B6
:104F20008368916899427CD362B672B6FEF7B8FD89
:104F3000281C4649FBF774FCFEF71AFD2068A042C6
:104F400004D0A2698368916899426AD362B64049E5
:104F5000701EFDF7CDF83F4C3F492060B01EFDF7B5
:104F6000C7F83E496060F01EFDF7C2F83C49A060FA
:104F7000301FFDF7BDF83B49E060701FFDF7B8F842
:104F800026682061002E50D06268002A4DD0A168AA
:104F900000294AD0E368002B47D04142414101201B
:104FA000FBF7DEFD002846D1FCF7C2FD02202E49AA
:104FB000FBF786FD00283ED1281CFFF7F1F8011C05
:104FC000481E81410320FBF7CBFD002833D1281C6C
:104FD000FFF7E6F8011C481E81410320FBF7C0FDE6
:104FE000002828D1281CFFF7DBF8011C481E81414E
:104FF0000320FBF7B5FD00281DD1281CFFF7D0F8D2
:10500000011C481E81410320FBF7AAFD002812D194
:10501000281CFFF7C5F8414241410420FBF7A0FDE1
:1050200009E072B6114DE562FEE700210120FBF7B1
:1050300097FD0028B8D070BD40100020780D0020EA
:10504000B80600200808002058090020A80A0020FF
:1050500098860008B8150020A4890008A0890008D7
:10506000A8890008B0890008E08500088089000848
:10507000F8B5051C0C1C161C72B6FEF711FD80233A
:10508000D805476AFEF774FC0D4B1968994204D0A5
:105090009A698968906888420ED362B600203F1BE7
:1050A000341BA74207D30748074B084A012605606F
:1050B0001E7016700120F8BD72B6054DDD62FEE768
:1050C00040100020B40F0020B00F0020800F0020FF
:1050D000008A0008C046C046C046C046C046C0461A
:1050E00010B5041C72B6FEF7DBFC0B4B1A6814708B
:1050F00001321A60FEF73CFC08480468844204D080
:105100008169A2688B68934201D362B610BD72B602
:10511000034CC462FEE7C046B80F002040100020D8
:10512000008A0008C046C046C046C046C046C046C9
:1051300008B50078FFF7D4FF08BDC046C046C0469A
:1051400010B5041C0348FDF7E3F92078FFF7C8FF0A
:1051500010BDC046A4060020C046C046C046C0469A
:1051600038B5064C051C201CFDF722FB2878FFF7FC
:10517000B7FF201CFDF73CFB38BDC0467806002079
:1051800038B5064C051C201CFDF712FB2878FFF7EC
:10519000A7FF201CFDF72CFB38BDC046940600205D
:1051A000F0B5474680B4224F8046381CFDF700FB1F
:1051B00072B6FEF775FC1F4DFBF74AFBAC69E66B58
:1051C000002E30D0301CFEF7DBF81B4A6262131C45
:1051D0001B68934203D09868A1688842F8D25A6845
:1051E0002360626014605C600720FBF771FE301C76
:1051F000FBF796FEFEF7BCFB2C68AC4204D0AE6910
:10520000A368B06898420AD362B645462878FFF78B
:1052100067FF381CFDF7ECFA04BC9046F0BD72B68F
:10522000064FEF62FEE772B60549E962FEE7C04647
:10523000940600204010002070060020908900088D
:10524000C0890008C046C046C046C046C046C046E9
:10525000F0B5294E474680B48046301CFDF7A8FAC9
:10526000264F381CFDF7A4FA72B6FEF719FCFBF7BF
:10527000EFFA234CA369DD6B002D39D0281CFEF713
:105280007FF82048A26984465062031C1B6863456E
:1052900003D0986891688842F8D2586813605060CB
:1052A00002605A60012207205142FBF7C1FE013023
:1052B00002D0281CFBF734FEFEF75AFB2568A542F6
:1052C00004D0A369A868996881420DD362B64446A8
:1052D0002078FFF705FF381CFDF78AFA301CFDF730
:1052E00087FA04BC9046F0BD72B6074EE662FEE750
:1052F00072B6064FE762FEE77806002094060020AB
:10530000401000207006002090890008D089000815
:1053100010B5174B82B09869A8218268154B009090
:10532000490001321448FDF793FD144A1060FEF75E
:105330008FFE446B211CFEF75BFCE0B2FFF7D0FE52
:10534000FEF786FE446B211CFEF752FCE0B2FFF72D
:10535000C7FEFEF77DFE446B211CFEF749FCE0B260
:10536000FFF7BEFE06490120FBF7AAFB02B010BD05
:1053700040100020C13C0008B8060020B8150020ED
:1053800008870008C046C046C046C046C046C04662
:1053900008B54320FFF7A4FE08BDC046C046C0467E
:1053A00008B54220FFF79CFE08BDC046C046C04677
:1053B00008B54120FFF794FE08BDC046C046C04670
:1053C00008B50078FFF78CFE08BDC046C046C04651
:1053D000FA2008B54000FDF76BF972B6FEF760FBE6
:1053E0000A48FEF7E5F8FEF74BF8FEF7C1FA084B5E
:1053F0001A689A4204D0996992688868904201D3E9
:1054000062B608BD72B60349D962FEE7A406002061
:1054100040100020D0850008C046C046C046C046A7
:1054200038B572B6FEF73CFBFBF712FA0F4B9968E2
:1054300000290ED00E4C0025FEF79AFA2368A342ED
:1054400004D0A16998688A6882420AD362B6281C8F
:1054500038BD074C0125A269D06B9A60D860D36330
:10546000EAE772B6034DE562FEE7C0469406002007
:1054700040100020F0890008C046C046C046C04623
:1054800038B572B6FEF70CFB0A4C0022A3699D6B7F
:105490009A63FEF76DFA2068A04204D0A169836880
:1054A0008A689A4202D362B6281C38BD72B6024D91
:1054B000E562FEE740100020508B0008C046C04661
:1054C00008B5FFF7DDFF08BDC046C046C046C04670
:1054D00008B5FFF7D5FF08BDC046C046C046C04668
:1054E00008B5FFF7CDFF08BDC046C046C046C04660
:1054F000F8B572B6FEF7D4FAB04DB14E281C311C87
:10550000FBF78EF9FEF734FAAE4C2368A34205D0C0
:10551000A26999689068814200D947E162B66F68D4
:10552000F71972B6FEF7BCFA281C391CFBF778F99C
:10553000FEF71EFA2368A34205D0A2699868916815
:10554000814200D232E162B66B68FF1872B6FEF794
:10555000A7FA391C281CFBF763F9FEF709FA216842
:10556000A14205D0A2698B689068984200D21DE1E3
:1055700062B669687F1872B6FEF792FA281C391C69
:10558000FBF74EF9FEF7F4F92068A04205D0A269B6
:1055900083689168994200D208E162B668683F1852
:1055A00072B6FEF77DFA391C281CFBF739F9FEF7B5
:1055B000DFF92168A14205D0A2698B689068984202
:1055C00000D2F3E062B6281CFEF7EAFD011C481E7B
:1055D00081410120FBF7C4FA002800D0E5E0281C37
:1055E000FEF7DEFD011C481E81410120FBF7B8FAE1
:1055F000002800D0D9E0281CFEF7D2FD011C481E6F
:1056000081410120FBF7ACFA002800D0CDE0281C36
:10561000FEF7C6FD011C481E81410120FBF7A0FAE0
:10562000002800D0C1E0281CFEF7BAFD011C481E6E
:1056300081410120FBF794FA002800D0B5E0281C36
:10564000FEF7AEFD414241410220FBF789FA0028F6
:1056500000D0AAE072B6FEF723FA311C281CFBF733
:10566000DFF8FEF785F92668A64205D0A769B2687B
:10567000B968914200D29DE062B672B6FEF710FAA8
:10568000281C5149FBF7CCF8FEF772F92068A042BC
:1056900005D0A36987689E68BE4200D28AE062B6E0
:1056A00072B6FEF7FDF94949281CFBF7B9F8FEF779
:1056B0005FF92168A14205D0A2698B689068984281
:1056C00000D277E062B672B6FEF7EAF9281C4049CC
:1056D000FBF7A6F8FEF74CF92668A64204D0A769A6
:1056E000B268B968914265D362B672B6FEF7D8F96E
:1056F000281C3849FBF794F8FEF73AF92068A042D5
:1057000004D0A36987689E68BE4253D362B6281C42
:10571000FEF746FD011C481E81410320FBF720FADD
:10572000002842D1281CFEF73BFD011C481E814188
:105730000320FBF715FA002837D1281CFEF730FDAF
:10574000011C481E81410320FBF70AFA00282CD1D6
:10575000281CFEF725FD011C481E81410320FBF794
:10576000FFF9002821D1281CFEF71AFD011C481E54
:1057700081410320FBF7F4F9002816D1281CFEF71D
:105780000FFD414241410420FBF7EAF900280CD10A
:10579000114928601024281CA9606C60FEF700FDE8
:1057A000414241410520FBF7DBF9F8BD72B60B4AD7
:1057B000E262FEE772B6094DE562FEE78806002068
:1057C000B8060020401000200808002058090020DA
:1057D000A80A0020F80B0020D104000880890008E6
:1057E00070B5051C0C1C161C72B600281FD00029B1
:1057F0001DD0FEF755F92B68012223602C600E4D59
:105800000021A869A66056426060E1602661FEF74B
:10581000AFF82C68AC4204D0AB69A16898688842A4
:1058200001D362B670BD72B6044AEA62FEE7044D67
:10583000014EF562FEE7C04640100020508B000884
:10584000108A0008C046C046C046C046C046C04692
:1058500010B5041CFA204000FCF72AFF72B6002C99
:1058600018D0FEF71DF9201C0121FAF791FFFDF772
:1058700007FEFEF77DF8094B1A689A4204D0996931
:1058800090688C68844201D362B610BD72B6044A37
:10589000DA62FEE70349014BD962FEE740100020BF
:1058A000508B0008708A0008C046C046C046C046FB
:1058B00010B572B6FEF7F4F819480021FDF778FF2D
:1058C000FDF7DEFDFEF754F8164C2368A34204D022
:1058D000A26999689068884219D362B6FA23580081
:1058E000FCF7E6FE72B6FEF7DBF80F480021FDF785
:1058F0005FFFFDF7C5FDFEF73BF82068A04204D02E
:10590000A26983689168994205D362B610BD72B6E8
:10591000064AE262FEE772B60448E062FEE7C0466D
:10592000B406002040100020B0060020508B000874
:10593000134B002210B51A7072B6FEF7B1F8FAF7E1
:1059400097FE104CE068002802D0201CFAF7A0FF58
:105950000D4A0023201C0D49FAF7EAFFFEF708F86C
:105960000B4B1A689A4204D0996990688C688442FB
:1059700001D362B610BD72B6064ADA62FEE7C046CF
:10598000180E0020A80D0020E104000810270000D8
:1059900040100020008A0008C046C046C046C046ED
:1059A00070B5051CFCF7ACFEFFF7C2FF074E0024E4
:1059B000281C0121FEF74CF933780134002BF7D075
:1059C000281C0021FEF744F9201C70BD180E002091
:1059D000F0B5164B4F464646C0B4986983B081680F
:1059E000002401318946FCF78BFEFFF7A1FF104A26
:1059F000104F114E90460025A823590000954046AF
:105A00004A463B1CFDF724FA307801340028F3D0D5
:105A10000A48FBF7DDF8201CFBF7F2F80848FBF713
:105A2000B7F803B00CBC90469946F0BD401000207A
:105A3000B8060020D1110008180E0020508600087A
:105A40008C860008C046C046C046C046C046C04618
:105A5000F8B54F464646C0B4FCF752FEFFF768FF64
:105A60001E4A1F4B1F4F204E204C00259046994642
:105A700072B6FEF715F8404601213A1C0023FAF7EA
:105A800057FF1B493A1C0023301CFAF751FF4046D0
:105A9000FAF7FEFE301CFAF7FBFEFDF769FF2068FF
:105AA000A04204D0A16983688A689A4212D362B680
:105AB0004846017801350029DAD00E48FBF788F80E
:105AC0006800FBF79DF80C48FBF762F80CBC9046A9
:105AD0009946F8BD72B6094DE562FEE7D00D00208B
